:100000000C94FF050C9427060C9427060C942706E5
:100010000C9427060C9427060C9427060C942706AC
:100020000C9427060C9427060C9427060C9427069C
:100030000C9427060C9427060C9427060C9427068C
:100040000C9404150C9427060C9427060C94270690
:100050000C9427060C9427060C9427060C9427066C
:100060000C9427060C9427060020DCFE773F1F3EE9
:1000700031284400402010000020DCFE773F1F3E66
:1000800030204080008080001010142E55385428F5
:10009000111F1E9E76FEDCFE777F5A7260E0507064
:1000A000000E1E3C2E170E0054E840804000000059
:1000B00055EE55AB5488400055EE55BF55EE55F8FA
:1000C00055EE55BF55EE55FF55EE55FF55EE55FF14
:1000D00055AE55FF55AE550155EE550F05000000C4
:1000E0000000000000000000000000000000000010
:1000F0000000000000000000000000000000000000
:1001000000000000000000000000000000000000EF
:10011000000000000000000000000000000050008F
:1001200010205020706050B050305020702050404F
:1001300051A04400510045801503550E1522550A63
:10014000143C540850105000000000000000000053
:10015000000000000000000000000000000000009F
:10016000000000000000000000000000000000008F
:10017000000000000000000000000000000000007F
:10018000000000000000000000000000000000006F
:10019000000000000000000000000000000000005F
:1001A000010045001100450015020502150045003B
:1001B0001102550315FA55021100450255205480CD
:1001C00015025508553E5580500000000000000003
:1001D000000000000000000000000000000000001F
:1001E000000000000000000000000000000000000F
:1001F00000000000000000000000000000004000BF
:10020000100040001000000010000000100010005E
:10021000000040000000000000000000000000009E
:1002200000004400100044000100040011004500DB
:100230005100458011235500110045001100552043
:10024000558255805500558055A050804000400093
:10025000000000000000000000000000000000009E
:10026000000000000000000000000000000000008E
:100270000100050010000000100000000000400018
:1002800000004000000040000000000000000000EE
:1002900010000400510254201000000051204418A6
:1002A00015000500512054001100040011005000F9
:1002B0001101050111034502150205021500000098
:1002C0001503050E153E5DBE75A3550055A0508063
:1002D0001500000000000000000000000000000009
:1002E0000000000000000400100004001000500096
:1002F00040000000000000000000000000000000BE
:10030000000000000000000000004080400041802C
:1003100041004080410040004100010015004408B8
:100320001500540051004400110040001100040069
:10033000110014001120500011001400110254008B
:100340001100050015005500153B55AE55FAF5EFA7
:1003500075001400500000000000000000000000C4
:10036000000000000000000000000000000000008D
:100370000100010001001000010200000100050061
:1003800001000500010001000100400001004000E3
:1003900001004000010054001100000011000000A5
:1003A000050001001100000001000500010000002F
:1003B00001000400010000001100040011004000D1
:1003C00011000100150055805502550A55AF55BF63
:1003D00077FE540011000000000000000000000043
:1003E000000000000000000000000000000000000D
:1003F00000000000000000000100040014000000E4
:100400001000100010005000100011001100040036
:1004100011000400010004000100000000000000C1
:1004200000000000000000000000000000000000CC
:100430000000000000000000040014361500540005
:1004400011000000110004001102450015005500C4
:100450001503050015000100000000000000000069
:10046000000000000000000000000000000000008C
:10047000000000000000000000000000000000007C
:10048000000000000000000000000000000000006C
:10049000000000000000000000000000000000005C
:1004A000000000000000000000000000000000004C
:1004B0000000000000000000000000000100040037
:1004C000150810000100400011004000110050000C
:1004D000010000000000000000000000000000001B
:1004E0000608205F0000000000000000002F000050
:1004F00000000700070000147F147F1400242A7FE7
:100500002A12002313086462003649552250000065
:100510000503000000001C224100000041221C00D5
:100520000014083E08140008083E0808000000A057
:100530006000000808080808000060600000002053
:1005400010080402003E5149453E0000427F400031
:10055000004261514946002141454B3100181412B7
:100560007F10002745454539003C4A494930000184
:100570007109050300364949493600064949291ED3
:100580000000363600000000563600000008142235
:100590004100001414141414000041221408000235
:1005A0000151090600324959513E007C1211127C5A
:1005B000007F49494936003E41414122007F414187
:1005C000221C007F49494941007F09090901003E79
:1005D0004149497A007F0808087F0000417F4100B7
:1005E000002040413F01007F08142241007F40402D
:1005F0004040007F020C027F007F0408107F003E15
:100600004141413E007F09090906003E4151215EFA
:10061000007F091929460046494949310001017FF7
:100620000101003F4040403F001F2040201F003F8D
:100630004038403F0063140814630007087008073F
:1006400000615149454300007F414100AA55AA5528
:10065000AA55000041417F0000040201020400404D
:1006600040404040000003050000002054545478EE
:10067000007F48444438003844444420003844440F
:10068000487F00385454541800087E0901020018AD
:10069000A4A4A47C007F080404780000447D4000EA
:1006A000004080847D00007F102844000000417FCE
:1006B0004000007C04180478007C080404780038AA
:1006C0004444443800FC242424180018242418FC32
:1006D000007C0804040800485454542000043F449B
:1006E0004020003C4040207C001C2040201C003C5E
:1006F0004030403C004428102844001CA0A0A07CAE
:10070000004464544C440000107C8200000000FF50
:1007100000000000827C10000000060909060C1091
:100720002D0D00000080808080808000000000008F
:1007300001030303030303010000000000000000A5
:100740000000000000000000000000C0C000000029
:100750000000000002868686868686020000000071
:1007600081C3C3C3C3C3C381000000FC7A0606066D
:100770000606067AFC00007EBCC0C0C0C0C0C0BC7B
:100780007E0000000000000000000078FC00000077
:10079000000000000000003C7E000000028686860B
:1007A0008686867AFC00007EBDC3C3C3C3C3C381F3
:1007B00000000000028686868686867AFC0000009D
:1007C00081C3C3C3C3C3C3BD7E0000FC78808080E7
:1007D00080808078FC000000010303030303033DD5
:1007E0007E0000FC7A8686868686860200000000EF
:1007F00081C3C3C3C3C3C3BD7E0000FC7A868686A3
:10080000868686020000007EBDC3C3C3C3C3C3BDCA
:100810007E000000020606060606067AFC000000BE
:10082000000000000000003C7E0000FC7A86868606
:100830008686867AFC00007EBDC3C3C3C3C3C3BD26
:100840007E0000FC7A8686868686867AFC0000001A
:1008500081C3C3C3C3C3C3BD7E000E182D0D0000EA
:100860000000000000000000000000000000103840
:1008700038383838383838100000000000000000E0
:100880000000000000000000000000000000000068
:100890000000000000000000000000000000000058
:1008A00000000000000000000040E0E04000000008
:1008B0000000000002060E0E0E0E0E0E06020000D4
:1008C0000000103838383838383838100000000048
:1008D00080C0E0E0E0E0E0E0C080000000FCFAF66C
:1008E0000E0E0E0E0E0EF6FAFC0000EFC78300008F
:1008F0000000000083C7EF00007FBFDFE0E0E0E022
:10090000E0E0DFBF7F00000000000000000000000A
:10091000F0F8FC000000000000000000000083C7A9
:10092000EF00000000000000000000001F3F7F00FB
:10093000000002060E0E0E0E0E0EF6FAFC0000E08F
:10094000D0B83838383838383B170F00007FBFDF51
:10095000E0E0E0E0E0E0C0800000000002060E0EF3
:100960000E0E0E0EF6FAFC0000001038383838383B
:100970003838BBD7EF00000080C0E0E0E0E0E0E006
:10098000DFBF7F0000FCF8F0000000000000F0F87E
:10099000FC00000F173B383838383838BBD7EF0029
:1009A000000000000000000000001F3F7F0000FC6E
:1009B000FAF60E0E0E0E0E0E06020000000F173B8A
:1009C000383838383838B8D0E000000080C0E0E06F
:1009D000E0E0E0E0DFBF7F0000FCFAF60E0E0E0E56
:1009E0000E0E0602000000EFD7BB38383838383812
:1009F000B8D0E000007FBFDFE0E0E0E0E0E0DFBF94
:100A00007F00000002060E0E0E0E0E0EF6FAFC001F
:100A10000000000000000000000083C7EF0000009D
:100A200000000000000000001F3F7F0000FCFAF6FD
:100A30000E0E0E0E0E0EF6FAFC0000EFD7BB383885
:100A400038383838BBD7EF00007FBFDFE0E0E0E0A8
:100A5000E0E0DFBF7F0000FCFAF60E0E0E0E0E0E79
:100A6000F6FAFC00000F173B383838383838BBD757
:100A7000EF00000080C0E0E0E0E0E0E0DFBF7F00EA
:100A80000406205F00000003A000C00C00F94F80A6
:100A90006BEB00988C8052A58003000001C8808910
:100AA000C00050850021C2000840002082000020C4
:100AB00000188C00FA2F804BE0805A66808AA500CF
:100AC000E08F80EAAB0072A9009A8C00FAAF804AEE
:100AD000A70001400009400021488051450089429B
:100AE0000042660072A6807A8780FAA5007225000F
:100AF000FA2700FAA880FA8800722B00F88F808B02
:100B0000E8808BE800F88D80F82080F90F80F9CF1D
:100B100080722700FA8400722740FA85804AA90073
:100B200083E800F02F00E06E00F0EF00D88D80C069
:100B3000EC009AAC8003E880C081808BE000420426
:100B400000082080020400312380F9230031248032
:100B5000312F8031628023EA00255380F90380021F
:100B6000E00006E000F8428003E000798780390366
:100B7000803123007D23003127C078840029400084
:100B800043E40070270060660070670048C480740A
:100B9000578059E68023E8800360008BE200610CF7
:100BA0000000000000240027002A000000000025AB
:100BB0000028002B0000000000230026002900046C
:100BC00004040404040404020202020202030303F4
:100BD00003030301020408102040800102040810EE
:100BE000200102040810200000000700020100009C
:100BF0000304060000000000000000005709112453
:100C00001FBECFEFD8E0DEBFCDBF11E0A0E0B1E066
:100C1000ECE9F4E302C005900D92A631B107D9F7D3
:100C200011E0A6E1B1E001C01D92A339B107E1F7DF
:100C30001BE0CEEFDBE004C02297FE010E94111AF8
:100C4000CC3FD107C9F70E94F5140C944C1A0C94B0
:100C50000000CF93DF93BC018230910510F462E075
:100C600070E0A0919101B0919201ED01E0E0F0E01F
:100C700040E050E021C0888199818617970769F488
:100C80008A819B81309719F09383828304C090936B
:100C9000920180939101FE0134C06817790738F4FE
:100CA0004115510519F08417950708F4AC01FE01B0
:100CB0008A819B819C01E9012097E9F64115510544
:100CC000A9F1CA01861B970B049708F4BA01E0E06A
:100CD000F0E02AC08D919C91119784179507F9F443
:100CE0006417750781F412968D919C911397309734
:100CF00019F09383828304C09093920180939101B1
:100D0000FD0132964CC0CA01861B970BFD01E80F0E
:100D1000F91F6193719302978D939C9340C0FD01DD
:100D2000828193819C01D9011097A1F680918F0156
:100D300090919001892B41F480910C0190910D01CB
:100D40009093900180938F0140910E0150910F017B
:100D50004115510541F44DB75EB780910A0190915C
:100D60000B01481B590B20918F0130919001CA0152
:100D7000821B930B8617970780F0AB014E5F5F4F86
:100D80008417950750F0420F531F509390014093E2
:100D90008F01F9016193719302C0E0E0F0E0CF01AF
:100DA000DF91CF910895CF93DF93009709F450C05E
:100DB000EC0122971B821A82A0919101B0919201BD
:100DC000109709F140E050E0AC17BD0708F1BB8374
:100DD000AA83FE0121913191E20FF31FAE17BF07E5
:100DE00079F48D919C911197280F391F2E5F3F4FF9
:100DF0003983288312968D919C9113979B838A83C4
:100E00004115510571F4D0939201C093910120C016
:100E100012968D919C911397AD01009711F0DC0112
:100E2000D3CFFA01D383C28321913191E20FF31F13
:100E3000CE17DF0769F488819981280F391F2E5F4B
:100E40003F4FFA01318320838A819B819383828380
:100E5000DF91CF910895A0E0B0E0E1E3F7E00C94DA
:100E60001D1AEC01A880B980CA80DB80A114B104EE
:100E7000C104D10441F484E2A82E89EDB82E8BE59B
:100E8000C82E87E0D82EC601B5012DE133EF41E031
:100E900050E00E94BE1927EA31E440E050E00E9491
:100EA0008C197B018C01C601B5012DE133EF41E0C6
:100EB00050E00E94BE19CA01B9012CEE34EF4FEF89
:100EC0005FEF0E948C196E0D7F1D801F911F97FF91
:100ED00004C06150704080409048688379838A8361
:100EE0009B839B01AC015F77B901CA01CDB7DEB727
:100EF000EAE00C94391A0E942B07089580E191E0F2
:100F00000E942B0708956093100170931101809344
:100F10001201909313010895DC0101C06D934150BB
:100F20005040E0F70895FC0161876230B1F0633012
:100F300061F0613009F0089580E990E0968385833F
:100F400080E1848388E08383089588E890E0968335
:100F5000858388E084838383089588E690E0968380
:100F6000858388E790E09087878380E1848388E0A9
:100F7000838308954F925F926F927F928F929F9298
:100F8000AF92BF92CF92DF92EF92FF920F931F9397
:100F9000DF93CF93CDB7DEB72A970FB6F894DEBFB5
:100FA0000FBECDBF3C01A62EBB2482E0A816B10423
:100FB0000CF451C0850191E0E92EF12C8AE0882ED5
:100FC000912C860C971C6E010894C11CD11CC50184
:100FD0008E199F0918161906ACF5F301B40141E00A
:100FE00050E09081DB018C91981709F44BC0981761
:100FF00008F596012F018AE0D2010D902D01D9014B
:101000000D929D018150C1F79F012B018AE0D20111
:101010000D902D01D9010D929D018150C1F79B01C9
:1010200026018AE0D2010D902D01D9010D929D017A
:101030008150C1F74F5F5F4F3A96665F7F4F401711
:10104000510779F60894E11CF11C01501040013061
:10105000110509F0BCCF2A960FB6F894DEBF0FBE7B
:10106000CDBFCF91DF911F910F91FF90EF90DF9057
:10107000CF90BF90AF909F908F907F906F905F9038
:101080004F90089591818385981708F4B2CF4F5FF0
:101090005F4F3A96665F7F4F4017510709F0A1CF27
:1010A000D1CF4F925F926F927F928F929F92AF9229
:1010B000BF92CF92DF92EF92FF920F931F93DF9335
:1010C000CF93CDB7DEB72A970FB6F894DEBF0FBE29
:1010D000CDBF3C01A62EBB2482E0A816B1040CF4BF
:1010E00051C0850131E0E32EF12C2AE0822E912CB3
:1010F000860C971C6E010894C11CD11CC5018E1969
:101100009F0918161906ACF5F301B40141E050E04F
:101110009081DB018C91981709F44BC0891708F571
:1011200096012F018AE0D2010D902D01D9010D9277
:101130009D018150C1F79F012B018AE0D2010D90E2
:101140002D01D9010D929D018150C1F79B0126010E
:101150008AE0D2010D902D01D9010D929D0181509F
:10116000C1F74F5F5F4F3A96665F7F4F4017510759
:1011700079F60894E11CF11C015010400130110572
:1011800009F0BCCF2A960FB6F894DEBF0FBECDBFD4
:10119000CF91DF911F910F91FF90EF90DF90CF9053
:1011A000BF90AF909F908F907F906F905F904F9087
:1011B000089591818385891708F4B2CF4F5F5F4FFF
:1011C0003A96665F7F4F4017510709F0A1CFD1CF04
:1011D000AF92BF92CF92DF92EF92FF920F931F9345
:1011E000DF93CF93CDB7DEB72A970FB6F894DEBF63
:1011F0000FBECDBF09831A832B833C834D835E834F
:101200006F83788789879A87642F512F432FDD2436
:10121000C114D10409F449C0A02FB0E0F70100E0E7
:1012200010E0262F30E0E52EFF24A42EBB24808181
:10123000682F70E08481482F50E0CD01841B950B0E
:101240008617970764F5420F531F4A0F5B1F6417F9
:1012500075072CF58181682F70E08381482F50E05D
:10126000C701841B950B86179707CCF44E0D5F1DA5
:101270004A0D5B1D6417750794F4802F2A960FB6EC
:10128000F894DEBF0FBECDBFCF91DF911F910F91BC
:10129000FF90EF90DF90CF90BF90AF9008950F5FD9
:1012A0001F4F3A960C151D0514F28FEFE7CF86E11C
:1012B00091E062E143E10E94060E08952F923F9271
:1012C0005F926F927F928F929F92AF92BF92CF92D6
:1012D000DF92EF92FF920F931F93DF93CF9300D093
:1012E00000D000D0CDB7DEB73C017A8369835C8340
:1012F0004B8379011801101611060CF069C05524B2
:10130000AA24BB241E141F040CF042C0950135957D
:1013100027953595279535952795C5018770907048
:1013200041E0C42ED12C02C0CC0CDD1C8A95E2F722
:101330002E9D80012F9D100D3E9D100D11248B813F
:101340009C81080F191F1E821D8289809A808A0C39
:101350009B1CF801849190E08C219D2118161906A0
:101360006CF46D817E81660D771D86E191E0A401AC
:101370000E945D0E882311F0552453948D819E8127
:1013800001969E838D830F5F1F4F8E159F050CF373
:101390000894A11CB11CA214B3040CF4B3CF852D86
:1013A00026960FB6F894DEBF0FBECDBFCF91DF916A
:1013B0001F910F91FF90EF90DF90CF90BF90AF9073
:1013C0009F908F907F906F905F903F902F900895A7
:1013D0005524E5CFAF92BF92CF92DF92EF92FF926A
:1013E0000F931F93CF93DF93A82EBB24A114B104B6
:1013F000D9F0C0E0D0E0CC24DD2486E191E0B60154
:1014000040E050E020EA30E008E010E0F6E0EF2EA7
:10141000F12C0E94B7102196CA15DB052CF4C00EE2
:10142000D11EC530D10549F786E191E060E071E059
:101430004CE150E020E030E00E94BF1286E191E0F4
:1014400041E050E060E070E028E230E000E010E0D1
:10145000EE24FF24E0E2CE2E0E942D1386E191E0DF
:1014600064E071E040E350E020E030E00E94BF1211
:101470004091830150E060E070E086E191E028E374
:1014800030E00E942D1386E191E067E071E040E4D6
:1014900050E020E030E00E94BF124091820150E015
:1014A00060E070E086E191E028E430E00E942D13D6
:1014B000DF91CF911F910F91FF90EF90DF90CF9030
:1014C000BF90AF9008956F927F928F929F92AF924C
:1014D000BF92CF92DF92EF92FF920F931F93CF9321
:1014E000DF933B014A010E94E115EC01C4018554E0
:1014F0009E4F8C179D070CF452C08BEB91E088191E
:101500009909C817D9070CF047C0B401882777FD9F
:101510008095982F0E949D189B01AC0160E070E8B7
:101520008DED93E40E949D177B018C01B301882708
:1015300077FD8095982F0E949D18A80197010E9421
:1015400002185B016C01BE01882777FD8095982FFA
:101550000E949D189B01AC01C801B7010E949D1714
:101560009B01AC01C601B5010E9429190E946A18AD
:1015700022273327261B370BC901DF91CF911F91FB
:101580000F91FF90EF90DF90CF90BF90AF909F9022
:101590008F907F906F90089520E030E0EDCFCB5B8F
:1015A000D140C819D909BE01882777FD8095982FA9
:1015B0000E949D185B016C01B301882777FD80951F
:1015C000982F0E949D187B018C01B401882777FD1C
:1015D0008095982F0E949D189B01AC0160E070E8F7
:1015E0008DED93E40E949D179B01AC01C801B701EA
:1015F0000E9402189B01AC01C601B5010E94291985
:101600000E946A189B01B8CF0F931F931091280175
:1016100080E165E070E040E050E00E94630A180F4E
:1016200010932801109129018FE065E070E040E0FF
:1016300050E00E94630A181B109329019091280121
:10164000983008F588E08093280198E0812F865033
:10165000833C18F5183318F087E3809329016091D3
:10166000290140912D0150912E0120912C010091D2
:101670002B01892F90E070E030E010E00E945E09BD
:101680001F910F910895903708F38FE680932801FA
:101690009FE6812F8650833CE8F286E08093290103
:1016A000DECFEF92FF920F931F9386E191E060E40B
:1016B0000E943314882309F4FFCF86E191E061E0B2
:1016C0000E942E1286E191E060E00E94191286E1EC
:1016D00091E060E070E040E050E020EE30E000E8B3
:1016E00010E0E0E4EE2EF12C0E94B71086E191E0CC
:1016F0000E943E120E944C150E94830780E160E028
:101700000E9403168FE060E00E94031681E160E012
:101710000E94031660ED77E080E090E00E94801563
:1017200086E191E060E87AE00E94E70F88E080932C
:1017300028018CE18093290188E291E061E00E9418
:1017400093071F910F91FF90EF9008950F931F93B0
:10175000CF93DF9381E10E94A216892B09F086C006
:10176000409182014330D8F1242F30E0211531051A
:10177000F1F0C9010197EC01CC0FDD1FCC0FDD1F8B
:10178000CC0FDD1F880F991FC80FD91FCE5CDE4F0D
:1017900088818B5F888387FF16C08091820181508A
:1017A000809382012A9781E0C832D80789F7809117
:1017B0008401882319F0815080938401DF91CF91B7
:1017C0001F910F91089569814D815E812C810B815C
:1017D00090E070E030E010E00E945E09E3CF80917D
:1017E0008401882309F6842F90E0FC01EE0FFF1F8F
:1017F000EE0FFF1FEE0FFF1F880F991FE80FF91F55
:10180000EE5CFE4F80912801805F8083842F90E002
:10181000FC01EE0FFF1FEE0FFF1FEE0FFF1F880FE3
:10182000991FE80FF91FEE5CFE4F8091290181831B
:10183000242F30E0C901880F991F880F991F880F46
:10184000991F220F331F820F931F8E5C9E4F63E000
:101850000E949307609182016F5F6093820182E32F
:1018600091E00E94510883E08093840140918201BD
:101870007BCF7F928F929F92AF92BF92CF92DF9257
:10188000EF92FF920F931F93CF93DF930091830109
:10189000053028F480918501882309F436C110E0D1
:1018A0000115110509F4F8C0480108948108910850
:1018B000E401CC0FDD1FC401880F991F880F991F09
:1018C000880F991FC80FD91FC05BDE4F12C0892F28
:1018D000895C863308F048C08091830181508093F1
:1018E00083012A978114910409F4D6C008948108D1
:1018F000910868816150962F68838985823039F715
:101900007A80262F30E02F713070213131050CF4B0
:10191000D8C000D000D0B901882777FD8095982FD6
:1019200028E030E040E050E0EDB7FEB7218332839D
:10193000438354832FE130E040E050E0F0E1EF2EAC
:10194000F12C012D112DAA24BB2465010E9414172E
:101950000F900F900F900F90760E79829881892FBB
:10196000895C863308F4B8CFE92FF0E0CF018370AB
:10197000907002970CF4C5C069814F8158852C8105
:101980000B81CF0170E030E010E00E945E098823F7
:1019900009F4A7CF688170E0498150E08C819B01F8
:1019A000280F311D8B818A01080F111D86E191E0FE
:1019B0000E946E10F401EE0FFF1FC401880F991FE3
:1019C000880F991F880F991FE80FF91FE05BFE4FE2
:1019D0000081118122813381448155816681778123
:1019E00080859185E2E3EE2EE1E0FE2EC09082013B
:1019F0000E94E808282F30E0F901EE0FFF1FEE0FDC
:101A0000FF1FEE0FFF1F220F331FE20FF31FEE0D1C
:101A1000FF1D608170E0282F30E0F901EE0FFF1FFD
:101A2000EE0FFF1FEE0FFF1F220F331FE20FF31FFA
:101A3000EE0DFF1D418150E0282F30E0F901EE0F3F
:101A4000FF1FEE0FFF1FEE0FFF1F220F331FE20FCE
:101A5000F31FEE0DFF1D94819B01290F311DE82F0F
:101A6000F0E0DF01AA0FBB1FAA0FBB1FAA0FBB1F0D
:101A7000EE0FFF1FAE0FBF1FAE0DBF1D13968C9153
:101A80008A01080F111D86E191E00E946E102A97CD
:101A90008114910409F02ACF80918501882319F0DF
:101AA000815080938501DF91CF911F910F91FF901D
:101AB000EF90DF90CF90BF90AF909F908F907F90EE
:101AC000089500D000D0B901882777FD8095982F20
:101AD000EDB7FEB7118212821382148220E130E04A
:101AE00040E050E0EE24FF248701E8E0AE2EB12C68
:101AF000C12CD12C0E9414170F900F900F900F90B3
:101B00002BCF69814D815E813ACF10E066E070E0B5
:101B100080E090E020E330E040E050E00E947F175A
:101B2000D801AA0FBB1FC801880F991F880F991FE2
:101B3000880F991FA80FB91FA05BBE4F8FE78C932A
:101B4000F801EE0FFF1FEE0FFF1FE00FF11FEE0F6A
:101B5000FF1FEE5AFE4F608311966C93119782E03F
:101B600019968C93199788E690E016969C938E931D
:101B7000159788E790E018969C938E93179780E1CD
:101B800014968C93149788E013968C93609183013C
:101B90006F5F6093830184E18093850180E591E02C
:101BA0000E94BA07009183017ACECF92DF92EF9222
:101BB000FF920F931F93F6E1CF2EF1E0DF2EC601C7
:101BC0000E9411140E94A60B0E94040B0E94390C63
:101BD000C60160E070E046E050E028EA30E008E04E
:101BE00010E0EAE3EE2EF12C0E94B71083E00E9491
:101BF000EA09C6010E943E121F910F91FF90EF90DB
:101C0000DF90CF9008950E94D50D0895FC01618367
:101C100040838FEF82830895FC016038710518F5C9
:101C2000878590E048175907F0F4CA0133E096958C
:101C300087953A95E1F79695982F882797958795F8
:101C4000860F971F0384F485E02DE80FF91F477076
:101C5000507081E090E002C0880F991F4A95E2F72A
:101C60002081282B20830895FC016038710520F520
:101C7000878590E048175907F8F4CA01B3E09695B4
:101C80008795BA95E1F79695982F88279795879528
:101C9000860F971F0384F485E02DE80FF91F477026
:101CA000507081E090E002C0880F991F4A95E2F7DA
:101CB00080952081282320830895FC0160387105D8
:101CC00070F5878590E04817590748F5CA01B3E0D9
:101CD00096958795BA95E1F79695982F88279795C9
:101CE0008795860F971F0384F485E02DE80FF91F71
:101CF000208147705070822F90E0042E02C095958D
:101D000087950A94E2F7382F317081E090E002C0A5
:101D1000880F991F4A95E2F7282B208301C030E0F5
:101D2000832F08952F923F924F925F926F927F92EE
:101D30008F929F92AF92BF92CF92DF92EF92FF92DB
:101D40000F931F93DF93CF9300D000D0CDB7DEB7B2
:101D50009C838B8349835A83322E232EDC01179672
:101D60002C911797422F50E0CA01877090701696F9
:101D7000EC91169770E018963C91892B09F088C079
:101D80002695269526952E9FC0011124631B710967
:101D9000869F3001879F700C969F700C1124E4E0A1
:101DA000F0E06E0E7F1E232D322DC9014C01AA24B6
:101DB000BB245BC000E010E0AB81BC8116968C9127
:101DC000169790E0FC01AE9EC001AF9E900DBE9EA6
:101DD000900D1124860D971D8C0D9D1D1496ED916F
:101DE000FC911597E80FF91FE4918E2F90E0002EDB
:101DF00002C0959587950A94E2F71A969C911A97D6
:101E000080FF07C0A801480D591D992339F4CD0161
:101E10000DC0A801480D591D992331F48B819C8177
:101E2000B7010E94340E05C08B819C81B7010E94CE
:101E30000C0E0F5F1F4F0830110509F0BDCF08943D
:101E4000C11CD11C0894E11CF11CAB81BC8116960D
:101E50008C9190E0C816D9060CF4ACCF0894A11C64
:101E6000B11CE8E0F0E08E0E9F1EAB81BC8117969E
:101E70008C9186958695869590E0A816B9060CF00B
:101E80008FC089819A819C017901CC24DD24DDCF2A
:101E9000631B71098E2F90E0FC01E49FC001E59F58
:101EA000900DF49F900D112423E0959587952A9528
:101EB000E1F7689F5001699FB00C789FB00C112426
:101EC00024E030E0A20EB31EAB81BC811496ED91EC
:101ED000FC911597EA0DFB1DE4914E2E55242981A6
:101EE0003A81C9017C0197E0C92ED12C6624772460
:101EF00048C0C2010C2C02C0959587950A94E2F760
:101F0000EB81FC81928580FF04C0992321F4CF01ED
:101F10000BC0992339F48B819C81B701A8010E94E1
:101F2000340E06C08B819C81B701A8010E940C0E63
:101F30000894C108D108D7FE11C00894A11CB11C97
:101F4000AB81BC811496ED91FC911597EA0DFB1DB8
:101F5000E4914E2E552487E0C82ED12C0894811C84
:101F6000911C0F5F1F4FEB81FC81878190E08816E9
:101F700099060CF4BECF0894611C711C0894E11CF6
:101F8000F11CAB81BC8116968C9190E068167906A5
:101F90003CF4832D922D9C01890188249924E3CF60
:101FA0000F900F900F900F90CF91DF911F910F9195
:101FB000FF90EF90DF90CF90BF90AF909F908F9069
:101FC0007F906F905F904F903F902F900895DC012D
:101FD000FB0115967C936E931497849116968C93BF
:101FE00016973196849117968C9317973196849112
:101FF00018968C9318973196E4911996EC9319974B
:102000001A961C920895CF93DF93EC016038710506
:1020100080F557FD2EC08F8590E0481759074CF585
:10202000DA01F3E0B595A795FA95E1F7B695BA2FE1
:10203000AA27B795A795A60FB71F4770507081E0E4
:1020400090E002C0880F991F4A95E2F7682F40E0A0
:1020500050E00CC0CA018A0F9B1FEB85FC85E80F7E
:10206000F91F8081862B80834F5F5F4F4217530794
:102070008CF3DF91CF910895AF92BF92CF92DF9210
:10208000EF92FF920F931F93CF93DF936C017A012E
:1020900059018B0160387105B0F457FD14C0FC0183
:1020A000878590E04817590774F4C0E0D0E008C075
:1020B000AE014E0D5F1DC601B8010E940C0E2196A7
:1020C000CA15DB05ACF3DF91CF911F910F91FF9003
:1020D000EF90DF90CF90BF90AF9008958F929F9236
:1020E000AF92BF92CF92DF92EF92FF920F931F9326
:1020F000CF93DF934C01EB017A0159016801261758
:10210000370714F45B01E901CE14DF041CF4C601A7
:1021100067017C0185010C1B1D0BC401BE01A701D9
:1021200098010E940310C401BE01A60198010E94FB
:10213000031086010E191F09C401BE01A7019801F1
:102140000E943C100F5F1F4FC401B501A701980109
:102150000E943C10DF91CF911F910F91FF90EF9063
:10216000DF90CF90BF90AF909F908F9008952F9267
:102170003F924F925F926F927F928F929F92AF9217
:10218000BF92CF92DF92EF92FF920F931F93DF9354
:10219000CF9300D000D000D0CDB7DEB72C016B8339
:1021A0007C833A832983380117015A01CC24DD242A
:1021B0004DC0C60187709070F1E08F2E912C02C047
:1021C000880C991C8A95E2F72B813C81C9018C010E
:1021D000C601E3E095958795EA95E1F7869D900124
:1021E000879D300D969D300D112489819A81280F8D
:1021F000391F3E832D83EE24FF241FC0ED81FE8115
:10220000849190E0882199211816190634F4C201AE
:10221000B801A5010E940C0E05C0C201B801A501BC
:102220000E94340E0894E11CF11C0F5F1F4F2D819A
:102230003E812F5F3F4F3E832D83E614F704F4F277
:102240000894C11CD11C0894A11CB11CC214D30455
:102250000CF4AFCF26960FB6F894DEBF0FBECDBFFD
:10226000CF91DF911F910F91FF90EF90DF90CF9072
:10227000BF90AF909F908F907F906F905F904F90A6
:102280003F902F900895FF920F931F938C01F62E8D
:10229000FC01818161E00E940316F8018181608167
:1022A00041E02F2D0E94D2161F910F91FF900895AB
:1022B0000F931F938C01FC01818161E00E94031642
:1022C000F801818160E00E946F16F801808161E071
:1022D0000E946F16F801818161E00E946F16F8017B
:1022E000818160E00E9403161F910F910895FF9273
:1022F0000F931F938C01F62EFC01818161E00E94F7
:102300000316F801818161E00E946F16F801808157
:1023100061E00E946F16F801818160E00E946F16F3
:10232000F801808160E00E946F16F8018181608170
:1023300041E02F2D0E94D2161F910F91FF9008951A
:1023400082E161E00E946F1683E161E00E946F16F6
:10235000E9EBF0E080818E7F808380818D7F8083B8
:102360008CE08093B80085E08093BC000895CF9303
:10237000DF93EC01898160E00E940316888161E0AF
:102380000E946F1689810E94A2160197D9F3888155
:1023900060E00E946F16DF91CF9108951F93CF9355
:1023A000DF93EC01162F8B81882339F184EE809323
:1023B000BC008091BC0087FFFCCF88E78093BB0006
:1023C00084EC8093BC008091BC0087FFFCCF10920E
:1023D000BB0084EC8093BC008091BC0087FFFCCFE5
:1023E0001093BB0084EC8093BC008091BC0087FFFD
:1023F000FCCF84E98093BC0018C0CE0168E70E943E
:102400007711CE010E94B711CE0160E00E94431106
:10241000CE010E94B711CE01612F0E944311CE015F
:102420000E94B711CE010E945811DF91CF911F91E8
:102430000895CF93DF93EC01662331F060EA0E94A8
:10244000CE11CE0160EC05C061EA0E94CE11CE0132
:1024500068EC0E94CE11DF91CF910895FF920F9307
:102460001F938C01F62E61E80E94CE11C8016F2DDA
:102470000E94CE111F910F91FF900895FF920F932C
:102480001F93CF93DF93EC01F89461E20E94CE1189
:10249000CE0160E00E94CE11CE016FE70E94CE1106
:1024A000CE0162E20E94CE11CE0160E00E94CE1108
:1024B000CE0167E00E94CE118B818823E1F084EE8B
:1024C0008093BC008091BC0087FFFCCF88E780939D
:1024D000BB0084EC8093BC008091BC0087FFFCCFE4
:1024E00080E48093BB0084EC8093BC008091BC00AE
:1024F00087FFFCCF0EC0CE0168E70E947711CE01A6
:102500000E94B711CE0160E40E944311CE010E94E7
:10251000B71100E010E0A4ECFA2E1BC0EB85FC859F
:10252000222361F0E00FF11F80818093BB00F092C5
:10253000BC008091BC0087FFFCCF09C0E00FF11FF9
:10254000CE0160810E944311CE010E94B7110F5F3E
:102550001F4F8D859E852B8108171907F8F22223BE
:1025600021F084E98093BC0003C0CE010E94581181
:102570007894DF91CF911F910F91FF9008958F92E2
:102580009F92AF92BF92CF92DF92EF92FF920F9302
:102590001F93CF93DF936C015B01EA014901DB01DB
:1025A0000D900020E9F77D010894E108F108E61A92
:1025B000F70AB7E24F305B0779F4FC01868190E0BF
:1025C0009C012E9DC0012F9D900D3E9D900D1124CC
:1025D000C0E8D0E0C81BD90B37E2CE30D307A1F456
:1025E000D60116968C9190E08E9D90018F9D300DB6
:1025F0009E9D300D112480E890E0821B930B62E0D9
:1026000070E00E94AB19EB0100E010E016C0F5018C
:1026100061915F01D60116968C9190E0089FA00110
:10262000099F500D189F500D11244C0F5D1FC601BE
:1026300094010E94920E0F5F1F4F0E151F053CF371
:10264000DF91CF911F910F91FF90EF90DF90CF908E
:10265000BF90AF909F908F9008952F923F924F928E
:102660005F926F927F928F929F92AF92BF92CF9222
:10267000DF92EF92FF920F931F93DF93CF93CDB72B
:10268000DEB7E6970FB6F894DEBF0FBECDBF2C01C4
:102690004A015B0119011EAB0DAB37014115510514
:1026A0006105710511F5E114F104D9F0A0E0B0E085
:1026B0000894E108F1089E01265E3F4F05C0F9012C
:1026C000EA0FFB1FC0821196AE15BF05C4F32A0F97
:1026D0003B1F80E3F9018083AC0FBD1F5B961C920A
:1026E0007EC080E38A8F1B8E7AC077FD02C0DD2416
:1026F0000AC0B094A09490948094811C911CA11C59
:10270000B11CDD24D39400E010E07E010894E11CAC
:10271000F11CC501B4012AE030E040E050E00E9425
:10272000BE199B01AC01F701E00FF11F862F805D00
:1027300080830F5F1F4F821A930AA40AB50AC5014E
:10274000B4012AE030E040E050E00E94BE19C90127
:10275000DA014C015D01181419041A041B04CCF2AF
:10276000E00EF11EF7011082DD2011F08DE28A8F5C
:102770008D2D90E0B801680F791F661577051CF064
:1027800040E050E012C0FE017A96E80FF91F40E0E9
:1027900050E07301E01AF10AE81AF90A03C0C19285
:1027A0004F5F5F4F4E155F05D4F3DE01A00FB11FE1
:1027B000FE017A96840F951FE80FF91F20E030E0A4
:1027C0008C9181932F5F3F4F119720173107C4F3EE
:1027D000FE013196E40FF51FE60FF71F118EC201BF
:1027E000BE01665E7F4FA1012DA93EA90E94BF12C6
:1027F000E6960FB6F894DEBF0FBECDBFCF91DF9146
:102800001F910F91FF90EF90DF90CF90BF90AF900E
:102810009F908F907F906F905F904F903F902F9000
:102820000895FC01458556858385948560E070E0B8
:102830000E948C070895EF92FF920F931F937B01E4
:102840008C010E944C15E60EF71E081F191F0E94EE
:102850004C156E157F0580079107C8F31F910F91E6
:10286000FF90EF900895CF93DF93EC01603219F061
:102870006034B1F408C06F878FE1888B82E0898B68
:1028800080E092E007C06F878FE3888B82E1898BBD
:1028900080E094E09E878D870E9429068B879C8725
:1028A0008B859C85892B11F480E09CC08A818F3FA9
:1028B000D9F061E00E9403168A8161E00E946F16E0
:1028C00061E070E080E090E00E941B148A8160E08B
:1028D0000E946F166AE070E080E090E00E941B1496
:1028E0008A8161E00E946F168981823149F4888172
:1028F000833131F481E08B83CE010E94A01105C0A9
:102900001B82888161E00E940316CE016EEA0E945C
:10291000CE11CE0165ED0E94CE11CE0160E80E947D
:10292000CE11CE0168EA0E94CE11CE0168890E94C4
:10293000CE11CE0163ED0E94CE11CE0160E00E9467
:10294000CE11CE0160E40E94CE11CE016DE80E944E
:10295000CE11CE0164E10E94CE11CE0160E20E9450
:10296000CE11CE0160E00E94CE11CE0161EA0E943C
:10297000CE11CE0168EC0E94CE11CE016AED0E940C
:10298000CE11CE0169890E94CE11CE0161E80E946C
:10299000CE11CE016FEC0E94CE11CE0169ED0E94E6
:1029A000CE11CE0161EF0E94CE11CE016BED0E94DF
:1029B000CE11CE0160E40E94CE11CE0164EA0E94E5
:1029C000CE11CE0166EA0E94CE11CE016FEA0E94BE
:1029D000CE11CE010E941114CE010E943E121D8222
:1029E0001C8281E0DF91CF910895CF93DF930E9405
:1029F000A6150E94510BC0E0D0E00E94030E209764
:102A0000E1F30E940000F9CF1F920F920FB60F92D0
:102A100011242F933F938F939F93AF93BF938091F4
:102A20008A0190918B01A0918C01B0918D01309120
:102A30008E010196A11DB11D232F2D5F2D3720F092
:102A40002D570196A11DB11D20938E0180938A01FF
:102A500090938B01A0938C01B0938D01809186019E
:102A600090918701A0918801B09189010196A11DE3
:102A7000B11D8093860190938701A0938801B09344
:102A80008901BF91AF919F918F913F912F910F90AD
:102A90000FBE0F901F9018958FB7F89420918A0160
:102AA00030918B0140918C0150918D018FBFB90104
:102AB000CA0108959FB7F89420918601309187014B
:102AC000409188015091890186B5A89B06C08F3F2F
:102AD00021F02F5F3F4F4F4F5F4F9FBF542F432F2A
:102AE000322F2227280F311D411D511D82E0220F58
:102AF000331F441F551F8A95D1F7B901CA010895A4
:102B0000EF92FF920F931F93CF93DF937B018C0182
:102B10000E945A15EB010EC00E945A156C1B7D0BCA
:102B2000685E7340C8F30894E108F10801091109CF
:102B3000C851DC4FE114F1040105110569F7DF917B
:102B4000CF911F910F91FF90EF900895789484B5E5
:102B5000826084BD84B5816084BD85B5826085BD99
:102B600085B5816085BDEEE6F0E08081816080837F
:102B7000E1E8F0E010828081826080838081816062
:102B80008083E0E8F0E0808181608083E1EBF0E029
:102B9000808184608083E0EBF0E0808181608083CD
:102BA000EAE7F0E0808184608083808182608083B6
:102BB0008081816080838081806880831092C100E1
:102BC0000895982F8E3008F09E50977080911401D0
:102BD0008295880F880F807C892B80937C00809160
:102BE0007A00806480937A0080917A0086FDFCCF21
:102BF0002091780040917900942F80E030E0282BDC
:102C0000392BC9010895CF93DF93482F50E0CA01B3
:102C10008D52944FFC0134914154544FFA018491E8
:102C2000882369F190E0880F991FFC01EF55F44F5C
:102C3000A591B491FC01E555F44FC591D49166235B
:102C400051F42FB7F8948C91932F909589238C93FE
:102C5000888189230BC0623061F42FB7F8948C917E
:102C6000932F909589238C938881832B88832FBF02
:102C700006C09FB7F8948C91832B8C939FBFDF91F4
:102C8000CF910895833071F0843028F48130A1F021
:102C9000823021F514C08630B1F08730D1F0843015
:102CA000E9F404C0809180008F7703C08091800098
:102CB0008F7D80938000089584B58F7702C084B59E
:102CC0008F7D84BD08958091B0008F778093B00090
:102CD00008958091B0008F7D8093B0000895FF9299
:102CE0000F931F93F62E482F50E0CA018951944F3D
:102CF000FC012491CA018D52944FFC01149141545E
:102D0000544FFA0104910023C9F0222319F0822FB5
:102D10000E944216E02FF0E0EE0FFF1FE555F44F42
:102D2000A591B4919FB7F894FF2021F48C91109550
:102D3000812302C08C91812B8C939FBF1F910F9197
:102D4000FF9008950F931F93482F50E0CA018951B7
:102D5000944FFC012491CA018D52944FFC010491BF
:102D60004154544FFA011491112319F420E030E03A
:102D700015C0222319F0822F0E944216812F90E065
:102D8000880F991F8B54944FFC01A591B4918C919D
:102D900020E030E0802311F021E030E0C9011F91F4
:102DA0000F910895BF92CF92DF92EF92FF920F930F
:102DB0001F93CF93DF93E82EF62EB42EC7E0D0E01A
:102DC000022F10E087E0C82ED12CBB2059F4B601A9
:102DD0006C1B7D0BC80102C0959587956A95E2F73B
:102DE000BC0107C0B8010C2E02C0759567950A9406
:102DF000E2F761708E2D0E946F168F2D61E00E94A8
:102E00006F168F2D60E00E946F1621979FEFCF3FC6
:102E1000D907D9F6DF91CF911F910F91FF90EF90D5
:102E2000DF90CF90BF9008952F923F924F925F9284
:102E30006F927F928F929F92AF92BF92CF92DF92CA
:102E4000EF92FF920F931F93DF93CF93CDB7DEB72F
:102E50003B014C0119012A016D897E898F89988D6A
:102E60006A197B098C099D09621A730A840A950AFA
:102E7000A40193010E948C19E218F30804091509B2
:102E8000A80197010E94BE192A0D3B1D4C1D5D1D16
:102E9000B901CA01CF91DF911F910F91FF90EF907F
:102EA000DF90CF90BF90AF909F908F907F906F906A
:102EB0005F904F903F902F900895EF92FF920F9365
:102EC0001F937B018C01611571058105910529F422
:102ED00020E030E040E050E00BC00E947E07A801F7
:102EE00097010E94BE19AC01CB01DA019C01AD0132
:102EF000B901CA011F910F91FF90EF900895EF92D1
:102F0000FF920F931F937B018C0162177307840755
:102F1000950764F4261B370B480B590BCA01B901FE
:102F20000E945D17E60EF71E081F191FB701C801A2
:102F30001F910F91FF90EF9008955058BB27AA273B
:102F40000ED04DC13ED130F043D120F031F49F3F3F
:102F500011F41EF433C10EF4E095E7FB29C1E92F0B
:102F60004FD180F3BA17620773078407950718F0EB
:102F700071F49EF567C10EF4E0950B2EBA2FA02DCB
:102F80000B01B90190010C01CA01A0011124FF2716
:102F9000591B99F0593F50F4503E68F11A16F04011
:102FA000A22F232F342F4427585FF3CF4695379510
:102FB0002795A795F0405395C9F77EF41F16BA0BD5
:102FC000620B730B840BBAF09150A1F0FF0FBB1F83
:102FD000661F771F881FC2F70EC0BA0F621F731FCC
:102FE000841F48F4879577956795B795F7959E3F29
:102FF00008F0B3CF9395880F08F09927EE0F9795B7
:10300000879508950CD0EBC0E3D040F0DAD030F0D3
:1030100021F45F3F19F0CCC0511115C1CFC0F0D0E1
:1030200098F39923C9F35523B1F3951B550BBB278F
:10303000AA2762177307840738F09F5F5F4F220F3C
:10304000331F441FAA1FA9F333D00E2E3AF0E0E835
:1030500030D091505040E695001CCAF729D0FE2F81
:1030600027D0660F771F881FBB1F26173707480713
:10307000AB07B0E809F0BB0B802DBF01FF279358C9
:103080005F4F2AF09E3F510568F092C0DCC05F3F61
:10309000ECF3983EDCF3869577956795B795F795B1
:1030A0009F5FC9F7880F911D9695879597F90895A9
:1030B000E1E0660F771F881FBB1F62177307840745
:1030C000BA0720F0621B730B840BBA0BEE1F88F754
:1030D000E095089504D06894B111B5C0089598D0D2
:1030E00088F09F5790F0B92F9927B751A0F0D1F0F1
:1030F000660F771F881F991F1AF0BA95C9F712C07B
:10310000B13081F09FD0B1E008959CC0672F782F37
:103110008827B85F39F0B93FCCF3869577956795E6
:10312000B395D9F73EF490958095709561957F4F52
:103130008F4F9F4F0895E89409C097FB3EF49095F8
:103140008095709561957F4F8F4F9F4F9923A9F080
:10315000F92F96E9BB279395F6958795779567950F
:10316000B795F111F8CFFAF4BB0F11F460FF1BC053
:103170006F5F7F4F8F4F9F4F16C0882311F096E9E6
:1031800011C0772321F09EE8872F762F05C0662394
:1031900071F096E8862F70E060E02AF09A95660F4D
:1031A000771F881FDAF7880F9695879597F9089506
:1031B00097F99F6780E870E060E008959FEF80ECEA
:1031C000089500240A94161617061806090608958D
:1031D00000240A9412161306140605060895092EF3
:1031E0000394000C11F4882352F0BB0F40F4BF2B62
:1031F00011F460FF04C06F5F7F4F8F4F9F4F0895A2
:1032000057FD9058440F551F59F05F3F71F0479597
:10321000880F97FB991F61F09F3F79F0879508957C
:10322000121613061406551FF2CF4695F1DF08C09B
:10323000161617061806991FF1CF869571056105B8
:1032400008940895E894BB2766277727CB0197F960
:1032500008950BD0C4CFB5DF28F0BADF18F095235E
:1032600009F0A6CFABCF1124EECFCADFA0F3959F14
:10327000D1F3950F50E0551F629FF001729FBB275D
:10328000F00DB11D639FAA27F00DB11DAA1F649F09
:103290006627B00DA11D661F829F2227B00DA11DBC
:1032A000621F739FB00DA11D621F839FA00D611D42
:1032B000221F749F3327A00D611D231F849F600D63
:1032C000211D822F762F6A2F11249F5750408AF09C
:1032D000E1F088234AF0EE0FFF1FBB1F661F771F28
:1032E000881F91505040A9F79E3F510570F060CF64
:1032F000AACF5F3FECF3983EDCF386957795679510
:10330000B795F795E7959F5FC1F7FE2B880F911D45
:103310009695879597F90895629FD001739FF00164
:10332000829FE00DF11D649FE00DF11D929FF00D55
:10333000839FF00D749FF00D659FF00D9927729F8C
:10334000B00DE11DF91F639FB00DE11DF91FBD0117
:10335000CF011124089597FB092E07260AD077FD87
:1033600004D027D006D000201AF4709561957F4FC5
:103370000895F6F7909581959F4F089597FB092E34
:1033800005260ED057FD04D028D00AD0001C38F4F2
:1033900050954095309521953F4F4F4F5F4F089581
:1033A000F6F790958095709561957F4F8F4F9F4F61
:1033B0000895AA1BBB1B51E107C0AA1FBB1FA6177C
:1033C000B70710F0A61BB70B881F991F5A95A9F7CE
:1033D00080959095BC01CD010895A1E21A2EAA1BFB
:1033E000BB1BFD010DC0AA1FBB1FEE1FFF1FA217B5
:1033F000B307E407F50720F0A21BB30BE40BF50BB2
:10340000661F771F881F991F1A9469F7609570953A
:10341000809590959B01AC01BD01CF010895EE0F01
:10342000FF1F0590F491E02D09942F923F924F9247
:103430005F926F927F928F929F92AF92BF92CF9244
:10344000DF92EF92FF920F931F93CF93DF93CDB74D
:10345000DEB7CA1BDB0B0FB6F894DEBF0FBECDBFC5
:1034600009942A88398848885F846E847D848C8496
:103470009B84AA84B984C884DF80EE80FD800C819F
:103480001B81AA81B981CE0FD11D0FB6F894DEBF82
:0C3490000FBECDBFED010895F894FFCFF2
:10349C004C563A00453A00423A0020009301000095
:0634AC0001000000010018
:00000001FF
