:100000000C94FF050C9427060C9427060C942706E5
:100010000C9427060C9427060C9427060C942706AC
:100020000C9427060C9427060C9427060C9427069C
:100030000C9427060C9427060C9427060C9427068C
:100040000C94FD0E0C9427060C9427060C9427069E
:100050000C9427060C9427060C9427060C9427066C
:100060000C9427060C9427060020DCFE773F1F3EE9
:1000700031284400402010001010142E5538542808
:10008000111F1E9E76FEDCFE777F5A7260E0507074
:1000900000008181C3C36600060C080000080C063E
:1000A00055B85080000000005523558A54A0000028
:1000B00055A255AA55235580553F550B552A55AA8B
:1000C00055FA5508552255AA552355A855225500CD
:1000D0005502550A550200001502050000000000F7
:1000E0000000000000000000000000000000000010
:1000F0000000000000000000000000000000000000
:1001000000000000000000000000000000000000EF
:10011000000000000000000000000000000050008F
:1001200010205020706050B050305020702050404F
:1001300051A04400510045801503550E1522550A63
:10014000143C540850105000000000000000000053
:10015000000000000000000000000000000000009F
:10016000000000000000000000000000000000008F
:10017000000000000000000000000000000000007F
:10018000000000000000000000000000000000006F
:10019000000000000000000000000000000000005F
:1001A000010045001100450015020502150045003B
:1001B0001102550315FA55021100450255205480CD
:1001C00015025508553E5580500000000000000003
:1001D000000000000000000000000000000000001F
:1001E000000000000000000000000000000000000F
:1001F00000000000000000000000000000004000BF
:10020000100040001000000010000000100010005E
:10021000000040000000000000000000000000009E
:1002200000004400100044000100040011004500DB
:100230005100458011235500110045001100552043
:10024000558255805500558055A050804000400093
:10025000000000000000000000000000000000009E
:10026000000000000000000000000000000000008E
:100270000100050010000000100000000000400018
:1002800000004000000040000000000000000000EE
:1002900010000400510254201000000051204418A6
:1002A00015000500512054001100040011005000F9
:1002B0001101050111034502150205021500000098
:1002C0001503050E153E5DBE75A3550055A0508063
:1002D0001500000000000000000000000000000009
:1002E0000000000000000400100004001000500096
:1002F00040000000000000000000000000000000BE
:10030000000000000000000000004080400041802C
:1003100041004080410040004100010015004408B8
:100320001500540051004400110040001100040069
:10033000110014001120500011001400110254008B
:100340001100050015005500153B55AE55FAF5EFA7
:1003500075001400500000000000000000000000C4
:10036000000000000000000000000000000000008D
:100370000100010001001000010200000100050061
:1003800001000500010001000100400001004000E3
:1003900001004000010054001100000011000000A5
:1003A000050001001100000001000500010000002F
:1003B00001000400010000001100040011004000D1
:1003C00011000100150055805502550A55AF55BF63
:1003D00077FE540011000000000000000000000043
:1003E000000000000000000000000000000000000D
:1003F00000000000000000000100040014000000E4
:100400001000100010005000100011001100040036
:1004100011000400010004000100000000000000C1
:1004200000000000000000000000000000000000CC
:100430000000000000000000040014361500540005
:1004400011000000110004001102450015005500C4
:100450001503050015000100000000000000000069
:10046000000000000000000000000000000000008C
:10047000000000000000000000000000000000007C
:10048000000000000000000000000000000000006C
:10049000000000000000000000000000000000005C
:1004A000000000000000000000000000000000004C
:1004B0000000000000000000000000000100040037
:1004C000150810000100400011004000110050000C
:1004D000010000000000000000000000000000001B
:1004E0000608205F0000000000000000002F000050
:1004F00000000700070000147F147F1400242A7FE7
:100500002A12002313086462003649552250000065
:100510000503000000001C224100000041221C00D5
:100520000014083E08140008083E0808000000A057
:100530006000000808080808000060600000002053
:1005400010080402003E5149453E0000427F400031
:10055000004261514946002141454B3100181412B7
:100560007F10002745454539003C4A494930000184
:100570007109050300364949493600064949291ED3
:100580000000363600000000563600000008142235
:100590004100001414141414000041221408000235
:1005A0000151090600324959513E007C1211127C5A
:1005B000007F49494936003E41414122007F414187
:1005C000221C007F49494941007F09090901003E79
:1005D0004149497A007F0808087F0000417F4100B7
:1005E000002040413F01007F08142241007F40402D
:1005F0004040007F020C027F007F0408107F003E15
:100600004141413E007F09090906003E4151215EFA
:10061000007F091929460046494949310001017FF7
:100620000101003F4040403F001F2040201F003F8D
:100630004038403F0063140814630007087008073F
:1006400000615149454300007F414100AA55AA5528
:10065000AA55000041417F0000040201020400404D
:1006600040404040000003050000002054545478EE
:10067000007F48444438003844444420003844440F
:10068000487F00385454541800087E0901020018AD
:10069000A4A4A47C007F080404780000447D4000EA
:1006A000004080847D00007F102844000000417FCE
:1006B0004000007C04180478007C080404780038AA
:1006C0004444443800FC242424180018242418FC32
:1006D000007C0804040800485454542000043F449B
:1006E0004020003C4040207C001C2040201C003C5E
:1006F0004030403C004428102844001CA0A0A07CAE
:10070000004464544C440000107C8200000000FF50
:1007100000000000827C10000000060909060C1091
:100720002D0D00000080808080808000000000008F
:1007300001030303030303010000000000000000A5
:100740000000000000000000000000C0C000000029
:100750000000000002868686868686020000000071
:1007600081C3C3C3C3C3C381000000FC7A0606066D
:100770000606067AFC00007EBCC0C0C0C0C0C0BC7B
:100780007E0000000000000000000078FC00000077
:10079000000000000000003C7E000000028686860B
:1007A0008686867AFC00007EBDC3C3C3C3C3C381F3
:1007B00000000000028686868686867AFC0000009D
:1007C00081C3C3C3C3C3C3BD7E0000FC78808080E7
:1007D00080808078FC000000010303030303033DD5
:1007E0007E0000FC7A8686868686860200000000EF
:1007F00081C3C3C3C3C3C3BD7E0000FC7A868686A3
:10080000868686020000007EBDC3C3C3C3C3C3BDCA
:100810007E000000020606060606067AFC000000BE
:10082000000000000000003C7E0000FC7A86868606
:100830008686867AFC00007EBDC3C3C3C3C3C3BD26
:100840007E0000FC7A8686868686867AFC0000001A
:1008500081C3C3C3C3C3C3BD7E000E182D0D0000EA
:100860000000000000000000000000000000103840
:1008700038383838383838100000000000000000E0
:100880000000000000000000000000000000000068
:100890000000000000000000000000000000000058
:1008A00000000000000000000040E0E04000000008
:1008B0000000000002060E0E0E0E0E0E06020000D4
:1008C0000000103838383838383838100000000048
:1008D00080C0E0E0E0E0E0E0C080000000FCFAF66C
:1008E0000E0E0E0E0E0EF6FAFC0000EFC78300008F
:1008F0000000000083C7EF00007FBFDFE0E0E0E022
:10090000E0E0DFBF7F00000000000000000000000A
:10091000F0F8FC000000000000000000000083C7A9
:10092000EF00000000000000000000001F3F7F00FB
:10093000000002060E0E0E0E0E0EF6FAFC0000E08F
:10094000D0B83838383838383B170F00007FBFDF51
:10095000E0E0E0E0E0E0C0800000000002060E0EF3
:100960000E0E0E0EF6FAFC0000001038383838383B
:100970003838BBD7EF00000080C0E0E0E0E0E0E006
:10098000DFBF7F0000FCF8F0000000000000F0F87E
:10099000FC00000F173B383838383838BBD7EF0029
:1009A000000000000000000000001F3F7F0000FC6E
:1009B000FAF60E0E0E0E0E0E06020000000F173B8A
:1009C000383838383838B8D0E000000080C0E0E06F
:1009D000E0E0E0E0DFBF7F0000FCFAF60E0E0E0E56
:1009E0000E0E0602000000EFD7BB38383838383812
:1009F000B8D0E000007FBFDFE0E0E0E0E0E0DFBF94
:100A00007F00000002060E0E0E0E0E0EF6FAFC001F
:100A10000000000000000000000083C7EF0000009D
:100A200000000000000000001F3F7F0000FCFAF6FD
:100A30000E0E0E0E0E0EF6FAFC0000EFD7BB383885
:100A400038383838BBD7EF00007FBFDFE0E0E0E0A8
:100A5000E0E0DFBF7F0000FCFAF60E0E0E0E0E0E79
:100A6000F6FAFC00000F173B383838383838BBD757
:100A7000EF00000080C0E0E0E0E0E0E0DFBF7F00EA
:100A80000406205F00000003A000C00C00F94F80A6
:100A90006BEB00988C8052A58003000001C8808910
:100AA000C00050850021C2000840002082000020C4
:100AB00000188C00FA2F804BE0805A66808AA500CF
:100AC000E08F80EAAB0072A9009A8C00FAAF804AEE
:100AD000A70001400009400021488051450089429B
:100AE0000042660072A6807A8780FAA5007225000F
:100AF000FA2700FAA880FA8800722B00F88F808B02
:100B0000E8808BE800F88D80F82080F90F80F9CF1D
:100B100080722700FA8400722740FA85804AA90073
:100B200083E800F02F00E06E00F0EF00D88D80C069
:100B3000EC009AAC8003E880C081808BE000420426
:100B400000082080020400312380F9230031248032
:100B5000312F8031628023EA00255380F90380021F
:100B6000E00006E000F8428003E000798780390366
:100B7000803123007D23003127C078840029400084
:100B800043E40070270060660070670048C480740A
:100B9000578059E68023E8800360008BE200610CF7
:100BA0000000000000240027002A000000000025AB
:100BB0000028002B0000000000230026002900046C
:100BC00004040404040404020202020202030303F4
:100BD00003030301020408102040800102040810EE
:100BE000200102040810200000000700020100009C
:100BF0000304060000000000000000008F0811241C
:100C00001FBECFEFD8E0DEBFCDBF11E0A0E0B1E066
:100C1000EEEAF7E202C005900D92AC30B107D9F7C9
:100C200011E0ACE0B1E001C01D92A336B107E1F7DD
:100C30001BE0CEEFDBE004C02297FE010E949A1376
:100C4000CC3FD107C9F70E94EE0E0C94D5130C943B
:100C50000000CF93DF93BC018230910510F462E075
:100C600070E0A0916101B0916201ED01E0E0F0E07F
:100C700040E050E021C0888199818617970769F488
:100C80008A819B81309719F09383828304C090936B
:100C9000620180936101FE0134C06817790738F45E
:100CA0004115510519F08417950708F4AC01FE01B0
:100CB0008A819B819C01E9012097E9F64115510544
:100CC000A9F1CA01861B970B049708F4BA01E0E06A
:100CD000F0E02AC08D919C91119784179507F9F443
:100CE0006417750781F412968D919C911397309734
:100CF00019F09383828304C0909362018093610111
:100D0000FD0132964CC0CA01861B970BFD01E80F0E
:100D1000F91F6193719302978D939C9340C0FD01DD
:100D2000828193819C01D9011097A1F680915F0186
:100D300090916001892B41F480910201909103010F
:100D40009093600180935F014091040150910501EF
:100D50004115510541F44DB75EB780910001909166
:100D60000101481B590B20915F0130916001CA01BC
:100D7000821B930B8617970780F0AB014E5F5F4F86
:100D80008417950750F0420F531F50936001409312
:100D90005F01F9016193719302C0E0E0F0E0CF01DF
:100DA000DF91CF910895CF93DF93009709F450C05E
:100DB000EC0122971B821A82A0916101B09162011D
:100DC000109709F140E050E0AC17BD0708F1BB8374
:100DD000AA83FE0121913191E20FF31FAE17BF07E5
:100DE00079F48D919C911197280F391F2E5F3F4FF9
:100DF0003983288312968D919C9113979B838A83C4
:100E00004115510571F4D0936201C093610120C076
:100E100012968D919C911397AD01009711F0DC0112
:100E2000D3CFFA01D383C28321913191E20FF31F13
:100E3000CE17DF0769F488819981280F391F2E5F4B
:100E40003F4FFA01318320838A819B819383828380
:100E5000DF91CF910895A0E0B0E0E1E3F7E00C94DA
:100E6000A613EC01A880B980CA80DB80A114B1046C
:100E7000C104D10441F484E2A82E89EDB82E8BE59B
:100E8000C82E87E0D82EC601B5012DE133EF41E031
:100E900050E00E945B1327EA31E440E050E00E94FA
:100EA0003C137B018C01C601B5012DE133EF41E01C
:100EB00050E00E945B13CA01B9012CEE34EF4FEFF2
:100EC0005FEF0E943C136E0D7F1D801F911F97FFE7
:100ED00004C06150704080409048688379838A8361
:100EE0009B839B01AC015F77B901CA01CDB7DEB727
:100EF000EAE00C94C2130E942B07089586E091E06B
:100F00000E942B0708956093060170930701809358
:100F10000801909309010895DC0101C06D934150CF
:100F20005040E0F708954F925F926F927F928F92B8
:100F30009F92AF92BF92CF92DF92EF92FF920F9368
:100F40001F93DF93CF9300D00F92CDB7DEB73C0154
:100F5000A62EBB2482E0A816B1040CF44EC0850175
:100F600091E0E92EF12C83E0882E912C860C971CC1
:100F70006E010894C11CD11CC5018E199F09181659
:100F8000190694F5F301940141E050E09081D901F4
:100F90008C91981708F5B6012F0183E0D2010D90CE
:100FA0002D01DB010D92BD018150C1F7BF01290167
:100FB00083E0D2010D902D01DB010D92BD01815026
:100FC000C1F7B901260183E0D2010D902D01DB01AB
:100FD0000D92BD018150C1F74F5F5F4F33962D5F7A
:100FE0003F4F4017510791F60894E11CF11C015046
:100FF00010400130110509F0BFCF0F900F900F90F6
:10100000CF91DF911F910F91FF90EF90DF90CF90E4
:10101000BF90AF909F908F907F906F905F904F9018
:1010200008954F925F926F927F928F929F92AF92AC
:10103000BF92CF92DF92EF92FF920F931F93DF93B5
:10104000CF9300D00F92CDB7DEB73C01A62EBB24C4
:1010500082E0A816B1040CF44EC0850131E0E32E05
:10106000F12C23E0822E912C860C971C6E010894A3
:10107000C11CD11CC5018E199F091816190694F5BB
:10108000F301940141E050E09081D9018C918917DE
:1010900008F5B6012F0183E0D2010D902D01DB018F
:1010A0000D92BD018150C1F7BF01290183E0D2013A
:1010B0000D902D01DB010D92BD018150C1F7B901E9
:1010C000260183E0D2010D902D01DB010D92BD01BF
:1010D0008150C1F74F5F5F4F33962D5F3F4F4017F1
:1010E000510791F60894E11CF11C015010400130A9
:1010F000110509F0BFCF0F900F900F90CF91DF91A6
:101100001F910F91FF90EF90DF90CF90BF90AF9025
:101110009F908F907F906F905F904F9008958CE09C
:1011200091E062E143E10E948F0B08956F927F92FC
:101130008F929F92AF92BF92CF92DF92EF92FF92E7
:101140000F931F93CF93DF933B014A010E94DA0F65
:10115000EC01C40185549E4F8C179D070CF452C0BE
:101160008BEB91E088199909C817D9070CF047C093
:10117000B401882777FD8095982F0E944D129B011E
:10118000AC0160E070E88DED93E40E944D117B01AD
:101190008C01B301882777FD8095982F0E944D120E
:1011A000A80197010E94B2115B016C01BE01882762
:1011B00077FD8095982F0E944D129B01AC01C801CC
:1011C000B7010E944D119B01AC01C601B5010E94FF
:1011D000D9120E941A1222273327261B370BC90166
:1011E000DF91CF911F910F91FF90EF90DF90CF9003
:1011F000BF90AF909F908F907F906F90089520E068
:1012000030E0EDCFCB5BD140C819D909BE018827AA
:1012100077FD8095982F0E944D125B016C01B30100
:10122000882777FD8095982F0E944D127B018C01B5
:10123000B401882777FD8095982F0E944D129B015D
:10124000AC0160E070E88DED93E40E944D119B01CC
:10125000AC01C801B7010E94B2119B01AC01C601EB
:10126000B5010E94D9120E941A129B01B8CFEF92C9
:10127000FF920F931F9310911E018FE065E070E0C5
:1012800040E050E00E949608181B10931E01109138
:101290001F0180E165E070E040E050E00E949608A8
:1012A000180F10931F0180911E018830C8F588E047
:1012B00080931E01193CD8F5183318F087E380930A
:1012C0001F01809120018230C1F1833009F459C09F
:1012D000813009F444C040911F018CE091E060E04E
:1012E00070E050E020E930E008E010E0E8E0EE2EA9
:1012F000F12C0E94020C60911E0170E06C5F7F4F28
:101300008CE091E040E050E028E930E0B4E0EB2EE2
:10131000F12C0E94020C1F910F91FF90EF90089505
:10132000803740F28FE680931E01193C28F210921C
:101330001F0180912001823041F660911E01409191
:101340001F018CE091E070E050E028E630E000E121
:1013500010E0B8E0EB2EF12C0E94020CBCCF6091A3
:101360001E0140911F018CE091E070E050E020E808
:1013700030E000E110E0F8E0EF2EF12C0E94020CCA
:10138000AACF60911E0140911F018CE091E070E0B6
:1013900050E028E730E008E010E0A8E0EA2EF12C69
:1013A0000E94020C98CFEF92FF920F931F938CE054
:1013B00091E060E40E942C0E882309F4FFCF8CE0BA
:1013C00091E062E30E94790D8CE091E060E00E9480
:1013D000640D8CE091E060E070E040E050E020EED1
:1013E00030E000E810E0E0E4EE2EF12C0E94020C68
:1013F0008CE091E00E94890D81E160E00E94FC0F89
:1014000081E10E94DA0FAA2797FDA095BA2FBC01AF
:10141000CD010E94830760ED77E080E090E00E94BC
:10142000790F0E94450F60934E0170934F01809396
:101430005001909351018CE091E060E87AE00E94C5
:10144000E60B88E080931E018CE180931F0181E010
:10145000809320011F910F91FF90EF900895EF92DC
:10146000FF920F931F93CF93DF93009153010A30A4
:1014700028F480915501882309F465C010E0011516
:101480001105A9F1C8010197EC01CC0FDD1FC80FB0
:10149000D91FC05DDE4F0AC08091530181508093F7
:1014A0005301239781E0CD32D80709F18881682F55
:1014B000615068838A5C863378F38A818230A1F137
:1014C000833019F1813069F749818CE091E070E057
:1014D00050E020E830E000E110E0F8E0EF2EF12CE1
:1014E0000E94020C239781E0CD32D807F9F6809153
:1014F0005501882319F0815080935501DF91CF91D8
:101500001F910F91FF90EF90089549818CE091E039
:1015100070E050E028E730E008E010E0A8E0EA2EB4
:10152000F12C0E94020CBDCF49818CE091E070E06B
:1015300050E028E630E000E110E0B8E0EB2EF12CBE
:101540000E94020CAECF10E060E070E080E090E01E
:1015500028E330E040E050E00E942F11F801EE0F48
:10156000FF1FE00FF11FE05DFE4F61838FE7808377
:1015700082E08283609153016F5F6093530184E145
:101580008093550180E391E00E94930700915301FD
:1015900075CFEF92FF920F931F93CF93DF938EE05F
:1015A0000E949B10892B09F089C06091520165301F
:1015B00008F463C070E06115710599F1CB010197E2
:1015C000EC01CC0FDD1FC80FD91FCF5DDE4F0AC065
:1015D00080915201815080935201239781E0CE3156
:1015E000D807F9F068816B5F688367FDF1CF8A8166
:1015F0008230A1F1833019F1813079F749818CE093
:1016000091E070E050E020E830E000E110E0E8E038
:10161000EE2EF12C0E94020C239781E0CE31D807E8
:1016200009F780915401882319F081508093540167
:10163000DF91CF911F910F91FF90EF900895498115
:101640008CE091E070E050E028E730E008E010E046
:10165000F8E0EF2EF12C0E94020CBFCF49818CE004
:1016600091E070E050E028E630E000E110E0A8E012
:10167000EA2EF12C0E94020CB0CF809154018823F5
:1016800009F098CF862F90E0FC01EE0FFF1FE80FC6
:10169000F91FEF5DFE4F80911E01805F8083809176
:1016A0001F01818383E082836F5F6093520181E237
:1016B00091E00E94110888E08093540160915201EA
:1016C00079CFCF92DF92EF92FF920F931F93FCE0BE
:1016D000CF2EF1E0DF2EC6010E940A0EC60160E0A7
:1016E00070E040E050E020EA30E008E010E0E0E4A4
:1016F000EE2EF12C0E94020C0E94C90A0E943709AA
:101700000E942F0AC6010E94890D1F910F91FF9020
:10171000EF90DF90CF9008950E94610B0895FC0137
:10172000618340838FEF82830895FC0160387105E7
:1017300018F5878590E048175907F0F4CA0133E09F
:10174000969587953A95E1F79695982F88279795DE
:101750008795860F971F0384F485E02DE80FF91F06
:101760004770507081E090E002C0880F991F4A9541
:10177000E2F72081282B20830895FC016038710551
:1017800020F5878590E048175907F8F4CA01B3E0BF
:1017900096958795BA95E1F79695982F882797950E
:1017A0008795860F971F0384F485E02DE80FF91FB6
:1017B0004770507081E090E002C0880F991F4A95F1
:1017C000E2F780952081282320830895DC01FB0126
:1017D00015967C936E931497849116968C93169716
:1017E0003196849117968C93179731968491189619
:1017F0008C9318973196E4911996EC9319971A9651
:101800001C9208952F923F924F925F926F927F9217
:101810008F929F92AF92BF92CF92DF92EF92FF9200
:101820000F931F93DF93CF9300D000D000D0CDB79C
:10183000DEB72C016B837C833A832983380117013F
:101840005A01CC24DD244DC0C6018770907051E050
:10185000852E912C02C0880C991C8A95E2F72B8169
:101860003C81C9018C01C60143E0959587954A9555
:10187000E1F7869D9001879D300D969D300D1124D6
:1018800089819A81280F391F3E832D83EE24FF24FE
:101890001FC0ED81FE81849190E088219921181666
:1018A000190634F4C201B801A5010E94950B05C0C8
:1018B000C201B801A5010E94BD0B0894E11CF11CF6
:1018C0000F5F1F4F2D813E812F5F3F4F3E832D8342
:1018D000E614F704F4F20894C11CD11C0894A11C6E
:1018E000B11CC214D3040CF4AFCF26960FB6F894F3
:1018F000DEBF0FBECDBFCF91DF911F910F91FF9043
:10190000EF90DF90CF90BF90AF909F908F907F909F
:101910006F905F904F903F902F900895FF920F939C
:101920001F938C01F62EFC01818161E00E94FC0F67
:10193000F8018181608141E02F2D0E94CB101F9121
:101940000F91FF9008950F931F938C01FC018181EB
:1019500061E00E94FC0FF801818160E00E94681044
:10196000F801808161E00E946810F801818161E0E6
:101970000E946810F801818160E00E94FC0F1F91B5
:101980000F910895FF920F931F938C01F62EFC0187
:10199000818161E00E94FC0FF801818161E00E9479
:1019A0006810F801808161E00E946810F80181816F
:1019B00060E00E946810F801808160E00E94681079
:1019C000F8018181608141E02F2D0E94CB101F9191
:1019D0000F91FF90089582E161E00E94681083E119
:1019E00061E00E946810E9EBF0E080818E7F8083E7
:1019F00080818D7F80838CE08093B80085E0809328
:101A0000BC000895CF93DF93EC01898160E00E94D0
:101A1000FC0F888161E00E94681089810E949B1000
:101A20000197D9F3888160E00E946810DF91CF911F
:101A300008951F93CF93DF93EC01162F8B8188239A
:101A400039F184EE8093BC008091BC0087FFFCCF0D
:101A500088E78093BB0084EC8093BC008091BC003D
:101A600087FFFCCF1092BB0084EC8093BC00809178
:101A7000BC0087FFFCCF1093BB0084EC8093BC00BC
:101A80008091BC0087FFFCCF84E98093BC0018C024
:101A9000CE0168E70E94C20CCE010E94020DCE0169
:101AA00060E00E948E0CCE010E94020DCE01612FDB
:101AB0000E948E0CCE010E94020DCE010E94A30C4A
:101AC000DF91CF911F910895CF93DF93EC016623AF
:101AD00031F060EA0E94190DCE0160EC05C061EAA8
:101AE0000E94190DCE0168EC0E94190DDF91CF9173
:101AF0000895FF920F931F938C01F62E61E80E94C8
:101B0000190DC8016F2D0E94190D1F910F91FF90A3
:101B10000895FF920F931F93CF93DF93EC01F894F6
:101B200061E20E94190DCE0160E00E94190DCE0104
:101B30006FE70E94190DCE0162E20E94190DCE01DD
:101B400060E00E94190DCE0167E00E94190D8B81A3
:101B50008823E1F084EE8093BC008091BC0087FF75
:101B6000FCCF88E78093BB0084EC8093BC0080911D
:101B7000BC0087FFFCCF80E48093BB0084EC8093A3
:101B8000BC008091BC0087FFFCCF0EC0CE0168E78F
:101B90000E94C20CCE010E94020DCE0160E40E94A0
:101BA0008E0CCE010E94020D00E010E064ECF62ED7
:101BB0001BC0EB85FC85222361F0E00FF11F8081C3
:101BC0008093BB00F092BC008091BC0087FFFCCFEB
:101BD00009C0E00FF11FCE0160810E948E0CCE0182
:101BE0000E94020D0F5F1F4F8D859E852B81081768
:101BF0001907F8F2222321F084E98093BC0003C086
:101C0000CE010E94A30C7894DF91CF911F910F9188
:101C1000FF900895FC01458556858385948560E095
:101C200070E00E948C070895EF92FF920F931F932C
:101C30007B018C010E94450FE60EF71E081F191F3D
:101C40000E94450F6E157F0580079107C8F31F910D
:101C50000F91FF90EF900895CF93DF93EC016032E6
:101C600019F06034B1F408C06F878FE1888B82E08F
:101C7000898B80E092E007C06F878FE3888B82E1D9
:101C8000898B80E094E09E878D870E9429068B8750
:101C90009C878B859C85892B11F480E09CC08A8170
:101CA0008F3FD9F061E00E94FC0F8A8161E00E94C1
:101CB000681061E070E080E090E00E94140E8A817C
:101CC00060E00E9468106AE070E080E090E00E94AE
:101CD000140E8A8161E00E9468108981823149F482
:101CE0008881833131F481E08B83CE010E94EB0C3B
:101CF00005C01B82888161E00E94FC0FCE016EEA64
:101D00000E94190DCE0165ED0E94190DCE0160E80B
:101D10000E94190DCE0168EA0E94190DCE01688952
:101D20000E94190DCE0163ED0E94190DCE0160E0F5
:101D30000E94190DCE0160E40E94190DCE016DE8DC
:101D40000E94190DCE0164E10E94190DCE0160E2DE
:101D50000E94190DCE0160E00E94190DCE0161EACA
:101D60000E94190DCE0168EC0E94190DCE016AED9A
:101D70000E94190DCE0169890E94190DCE0161E8FA
:101D80000E94190DCE016FEC0E94190DCE0169ED74
:101D90000E94190DCE0161EF0E94190DCE016BED6D
:101DA0000E94190DCE0160E40E94190DCE0164EA73
:101DB0000E94190DCE0166EA0E94190DCE016FEA4C
:101DC0000E94190DCE010E940A0ECE010E94890DBB
:101DD0001D821C8281E0DF91CF910895CF93DF9324
:101DE0000E949F0F0E94D309C0E0D0E00E948C0B9C
:101DF0002097E1F30E940000F9CF1F920F920FB6D7
:101E00000F9211242F933F938F939F93AF93BF9380
:101E100080915A0190915B01A0915C01B0915D01AC
:101E200030915E010196A11DB11D232F2D5F2D372D
:101E300020F02D570196A11DB11D20935E018093C6
:101E40005A0190935B01A0935C01B0935D01809176
:101E5000560190915701A0915801B09159010196F6
:101E6000A11DB11D8093560190935701A093580175
:101E7000B0935901BF91AF919F918F913F912F9155
:101E80000F900FBE0F901F9018958FB7F894209168
:101E90005A0130915B0140915C0150915D018FBF0F
:101EA000B901CA0108959FB7F89420915601309165
:101EB0005701409158015091590186B5A89B06C021
:101EC0008F3F21F02F5F3F4F4F4F5F4F9FBF542FEA
:101ED000432F322F2227280F311D411D511D82E033
:101EE000220F331F441F551F8A95D1F7B901CA012C
:101EF0000895EF92FF920F931F93CF93DF937B018F
:101F00008C010E94530FEB010EC00E94530F6C1BFB
:101F10007D0B685E7340C8F30894E108F10801097D
:101F20001109C851DC4FE114F1040105110569F7ED
:101F3000DF91CF911F910F91FF90EF9008957894CA
:101F400084B5826084BD84B5816084BD85B58260BE
:101F500085BD85B5816085BDEEE6F0E0808181605C
:101F60008083E1E8F0E0108280818260808380815C
:101F700081608083E0E8F0E0808181608083E1EB34
:101F8000F0E0808184608083E0EBF0E0808181601C
:101F90008083EAE7F0E080818460808380818260D2
:101FA00080838081816080838081806880831092BB
:101FB000C1000895982F8E3008F09E509770809140
:101FC0000A018295880F880F807C892B80937C0082
:101FD00080917A00806480937A0080917A0086FDF7
:101FE000FCCF2091780040917900942F80E030E080
:101FF000282B392BC9010895CF93DF93482F50E048
:10200000CA018D52944FFC0134914154544FFA014E
:102010008491882369F190E0880F991FFC01EF55A6
:10202000F44FA591B491FC01E555F44FC591D491BD
:10203000662351F42FB7F8948C91932F90958923B0
:102040008C93888189230BC0623061F42FB7F89498
:102050008C91932F909589238C938881832B8883EF
:102060002FBF06C09FB7F8948C91832B8C939FBF92
:10207000DF91CF910895833071F0843028F481305E
:10208000A1F0823021F514C08630B1F08730D1F054
:102090008430E9F404C0809180008F7703C0809180
:1020A00080008F7D80938000089584B58F7702C073
:1020B00084B58F7D84BD08958091B0008F77809323
:1020C000B00008958091B0008F7D8093B000089596
:1020D000FF920F931F93F62E482F50E0CA018951AB
:1020E000944FFC012491CA018D52944FFC0114912C
:1020F0004154544FFA0104910023C9F0222319F0EE
:10210000822F0E943B10E02FF0E0EE0FFF1FE555FD
:10211000F44FA591B4919FB7F894FF2021F48C91CE
:102120001095812302C08C91812B8C939FBF1F91AE
:102130000F91FF9008950F931F93482F50E0CA010D
:102140008951944FFC012491CA018D52944FFC0196
:1021500004914154544FFA011491112319F420E0D1
:1021600030E015C0222319F0822F0E943B10812FEE
:1021700090E0880F991F8B54944FFC01A591B49166
:102180008C9120E030E0802311F021E030E0C901A3
:102190001F910F910895BF92CF92DF92EF92FF921D
:1021A0000F931F93CF93DF93E82EF62EB42EC7E044
:1021B000D0E0022F10E087E0C82ED12CBB2059F4CC
:1021C000B6016C1B7D0BC80102C0959587956A9579
:1021D000E2F7BC0107C0B8010C2E02C075956795E7
:1021E0000A94E2F761708E2D0E9468108F2D61E0D5
:1021F0000E9468108F2D60E00E94681021979FEF69
:10220000CF3FD907D9F6DF91CF911F910F91FF9062
:10221000EF90DF90CF90BF900895EF92FF920F93D1
:102220001F937B018C01611571058105910529F4CE
:1022300020E030E040E050E00BC00E947E07A801A3
:1022400097010E945B13AC01CB01DA019C01AD0147
:10225000B901CA011F910F91FF90EF900895EF927D
:10226000FF920F931F937B018C0162177307840702
:10227000950764F4261B370B480B590BCA01B901AB
:102280000E940D11E60EF71E081F191FB701C801A5
:102290001F910F91FF90EF9008955058BB27AA27E8
:1022A0000ED04DC13ED130F043D120F031F49F3FEC
:1022B00011F41EF433C10EF4E095E7FB29C1E92FB8
:1022C0004FD180F3BA17620773078407950718F098
:1022D00071F49EF567C10EF4E0950B2EBA2FA02D78
:1022E0000B01B90190010C01CA01A0011124FF27C3
:1022F000591B99F0593F50F4503E68F11A16F040BE
:10230000A22F232F342F4427585FF3CF46953795BC
:102310002795A795F0405395C9F77EF41F16BA0B81
:10232000620B730B840BBAF09150A1F0FF0FBB1F2F
:10233000661F771F881FC2F70EC0BA0F621F731F78
:10234000841F48F4879577956795B795F7959E3FD5
:1023500008F0B3CF9395880F08F09927EE0F979563
:10236000879508950CD0EBC0E3D040F0DAD030F080
:1023700021F45F3F19F0CCC0511115C1CFC0F0D08E
:1023800098F39923C9F35523B1F3951B550BBB273C
:10239000AA2762177307840738F09F5F5F4F220FE9
:1023A000331F441FAA1FA9F333D00E2E3AF0E0E8E2
:1023B00030D091505040E695001CCAF729D0FE2F2E
:1023C00027D0660F771F881FBB1F261737074807C0
:1023D000AB07B0E809F0BB0B802DBF01FF27935876
:1023E0005F4F2AF09E3F510568F092C0DCC05F3F0E
:1023F000ECF3983EDCF3869577956795B795F7955E
:102400009F5FC9F7880F911D9695879597F9089555
:10241000E1E0660F771F881FBB1F621773078407F1
:10242000BA0720F0621B730B840BBA0BEE1F88F700
:10243000E095089504D06894B111B5C0089598D07E
:1024400088F09F5790F0B92F9927B751A0F0D1F09D
:10245000660F771F881F991F1AF0BA95C9F712C027
:10246000B13081F09FD0B1E008959CC0672F782FE4
:102470008827B85F39F0B93FCCF386957795679593
:10248000B395D9F73EF490958095709561957F4FFF
:102490008F4F9F4F0895E89409C097FB3EF49095A5
:1024A0008095709561957F4F8F4F9F4F9923A9F02D
:1024B000F92F96E9BB279395F695879577956795BC
:1024C000B795F111F8CFFAF4BB0F11F460FF1BC000
:1024D0006F5F7F4F8F4F9F4F16C0882311F096E993
:1024E00011C0772321F09EE8872F762F05C0662341
:1024F00071F096E8862F70E060E02AF09A95660FFA
:10250000771F881FDAF7880F9695879597F90895B2
:1025100097F99F6780E870E060E008959FEF80EC96
:10252000089500240A941616170618060906089539
:1025300000240A9412161306140605060895092E9F
:102540000394000C11F4882352F0BB0F40F4BF2B0E
:1025500011F460FF04C06F5F7F4F8F4F9F4F08954E
:1025600057FD9058440F551F59F05F3F71F0479544
:10257000880F97FB991F61F09F3F79F08795089529
:10258000121613061406551FF2CF4695F1DF08C048
:10259000161617061806991FF1CF86957105610565
:1025A00008940895E894BB2766277727CB0197F90D
:1025B00008950BD0C4CFB5DF28F0BADF18F095230B
:1025C00009F0A6CFABCF1124EECFCADFA0F3959FC1
:1025D000D1F3950F50E0551F629FF001729FBB270A
:1025E000F00DB11D639FAA27F00DB11DAA1F649FB6
:1025F0006627B00DA11D661F829F2227B00DA11D69
:10260000621F739FB00DA11D621F839FA00D611DEE
:10261000221F749F3327A00D611D231F849F600D0F
:10262000211D822F762F6A2F11249F5750408AF048
:10263000E1F088234AF0EE0FFF1FBB1F661F771FD4
:10264000881F91505040A9F79E3F510570F060CF10
:10265000AACF5F3FECF3983EDCF3869577956795BC
:10266000B795F795E7959F5FC1F7FE2B880F911DF2
:102670009695879597F90895629FD001739FF00111
:10268000829FE00DF11D649FE00DF11D929FF00D02
:10269000839FF00D749FF00D659FF00D9927729F39
:1026A000B00DE11DF91F639FB00DE11DF91FBD01C4
:1026B000CF011124089597FB092E05260ED057FD52
:1026C00004D014D00AD0001C38F4509540953095B1
:1026D00021953F4F4F4F5F4F0895F6F790958095A6
:1026E000709561957F4F8F4F9F4F0895A1E21A2EED
:1026F000AA1BBB1BFD010DC0AA1FBB1FEE1FFF1FA6
:10270000A217B307E407F50720F0A21BB30BE40BF5
:10271000F50B661F771F881F991F1A9469F760953C
:102720007095809590959B01AC01BD01CF010895F6
:10273000EE0FFF1F0590F491E02D09942F923F9228
:102740004F925F926F927F928F929F92AF92BF92C1
:10275000CF92DF92EF92FF920F931F93CF93DF936D
:10276000CDB7DEB7CA1BDB0B0FB6F894DEBF0FBECA
:10277000CDBF09942A88398848885F846E847D8417
:102780008C849B84AA84B984C884DF80EE80FD8019
:102790000C811B81AA81B981CE0FD11D0FB6F8948F
:0E27A000DEBF0FBECDBFED010895F894FFCF50
:0C27AE0020006301000001000000010099
:00000001FF
