:100000000C942A080C9452080C9452080C94520830
:100010000C9452080C9452080C9452080C945208F8
:100020000C9452080C9452080C94FB180C948219EE
:100030000C9452080C9452080C9452080C945208D8
:100040000C9452080C9452080C9452080C945208C8
:100050000C9452080C9452080C9452080C94C01A38
:100060000C9452080C9452080C9452080C945208A8
:100070000C9452080C9452080C9452080C94520898
:100080000C9452080C9452080C9452080C94520888
:100090000C9452080C9452080C9452080C94520878
:1000A0000C9452080C9452080C9452080020DCFE68
:1000B000773F1F3E31284400402010000020DCFE26
:1000C000773F1F3E30204080008080001010142EAB
:1000D00055385428111F1E9E76FEDCFE777F5A721B
:1000E00060E05070000E1E3C2E170E000000000055
:1000F00000000000AAF4A8F0A0000000AA77AADF80
:10010000AA77A800AAF5AA7FAA77AA54AA77AA7DF7
:10011000AA01AA00AA37AA102A01000002010000C1
:10012000000000000000000000000000AA40A850ED
:10013000A0000000AA01AA5FAA17A800AA71AADF5E
:10014000AA77AA54AA37AA1FAA77AA01AA01AA4085
:100150000A0300000201000000000000000000008F
:1001600000000000AA00A800A0000000AA01AA4008
:10017000AA10A800AA01AA00AA10AA54AA01AA00BB
:10018000AA10AA01AA05AA002A0000000201000084
:10019000000000000000000000000000AA74A8C0D9
:1001A000A0000000AA77AA5DAA10A800AA47AA503A
:1001B000AA10AA00AA11AAD5AA71AA00AA15AA5F14
:1001C0002A030000020100000000000000000000FF
:1001D00000000000AA44A8C0A0000000AA77AAD787
:1001E000AA77A800AA77AAC7AA51AA00AA01AA07B3
:1001F000AA71AA00AA01AA542A0300000201000061
:10020000000000000000000000000000AA34A8D098
:10021000A0000000AA01AA05AA77A800AA01AA00C6
:10022000AA11AA14AA01AA00AA10AA00AA01AA0047
:100230000A000000020100000000000000000000B1
:1002400000000000AA54A81080000000AA01AA0023
:10025000AA10A800AA01AA40AA10AA00AA01AA00EE
:10026000AA10AA00AA05AA002A00000002010000A4
:10027000000000000000000000000000AA14A850C8
:10028000A0000000AA11AA05AA10A800AA01AA00AD
:10029000AA10AA00AA01AA40AA10AA00AA05AA00A8
:1002A0002A00000002010000000000000000000021
:1002B00000000000AA14A800A0000000AA17AA5479
:1002C000AA11A800AA03AA00AA10AA00AA01AA00BB
:1002D000AA10AA00AA73AA040A00000002010000E2
:1002E000000000000000000000000000AA74A8D078
:1002F00080000000AA77AADFAA77A800AA57AADF81
:10030000AA77AA00AA01AAD5AA51AA00AA01AA45B9
:100310000A010000020100000000000000000000CF
:1003200000000000AAF4A8F0A0000000AA77AAFF2D
:10033000AA77A800AA57AA7FAA77AA54AA11AA0046
:10034000AA11AA01AA11AA002A01000002010000B4
:10035000000000000000000000000000000000009D
:10036000000000000000000000000000000000008D
:10037000000000000000000000000000000000007D
:10038000000000000000000000000000000000006D
:100390000000500010205020706050B050305020AD
:1003A0007020504051A04400510045801503550E67
:1003B0001522550A143C540850105000000000004B
:1003C000000000000000000000000000000000002D
:1003D000000000000000000000000000000000001D
:1003E000000000000000000000000000000000000D
:1003F00000000000000000000000000000000000FD
:1004000000000000000000000000000000000000EC
:100410000000000001004500110045001502050222
:10042000150045001102550315FA55021100450249
:100430005520548015025508553E55805000000047
:1004400000000000000000000000000000000000AC
:10045000000000000000000000000000000000009C
:10046000000000000000000000000000000000008C
:1004700000004000100040001000000010000000CC
:10048000100010000000400000000000000000000C
:1004900000000000000044001000440001000400BF
:1004A0001100450051004580112355001100450001
:1004B00011005520558255805500558055A050801B
:1004C00040004000000000000000000000000000AC
:1004D000000000000000000000000000000000001C
:1004E00000000000010005001000000010000000E6
:1004F000000040000000400000004000000000003C
:100500000000000010000400510254201000000000
:10051000512044181500050051205400110004001A
:1005200011005000110105011103450215020502D9
:10053000150000001503050E153E5DBE75A35500A0
:1005400055A05080150000000000000000000000D1
:100550000000000000000000000004001000040083
:1005600010005000400000000000000000000000EB
:1005700000000000000000000000000000004080BB
:1005800040004180410040804100400041000100A6
:1005900015004408150054005100440011004000AB
:1005A000110004001100140011205000110014006B
:1005B000110254001100050015005500153B55AE01
:1005C00055FAF5EF7500140050000000000000001F
:1005D000000000000000000000000000000000001B
:1005E00000000000010001000100100001020000F5
:1005F00001000500010005000100010001004000AC
:100600000100400001004000010054001100000002
:1006100011000000050001001100000001000500AC
:1006200001000000010004000100000011000400AE
:100630001100400011000100150055805502550AB7
:1006400055AF55BF77FE54001100000000000000B8
:10065000000000000000000000000000000000009A
:100660000000000000000000000000000100040085
:1006700014000000100010001000500010001100C5
:10068000110004001100040001000400010000003A
:10069000000000000000000000000000000000005A
:1006A00000000000000000000000000004001436FC
:1006B0001500540011000000110004001102450053
:1006C000150055001503050015000100000000008D
:1006D000000000000000000000000000000000001A
:1006E000000000000000000000000000000000000A
:1006F00000000000000000000000000000000000FA
:1007000000000000000000000000000000000000E9
:1007100000000000000000000000000000000000D9
:1007200000000000000000000000000000000000C9
:1007300001000400150810000100400011004000F5
:100740001100500001000000000000000000000047
:10075000000000000608205F00000000000000000C
:10076000002F000000000700070000147F147F1412
:1007700000242A7F2A120023130864620036495598
:10078000225000000503000000001C224100000070
:1007900041221C000014083E08140008083E080806
:1007A000000000A060000008080808080000606061
:1007B0000000002010080402003E5149453E0000A0
:1007C000427F4000004261514946002141454B3182
:1007D000001814127F10002745454539003C4A494E
:1007E00049300001710905030036494949360006C0
:1007F0004949291E00003636000000005636000028
:1008000000081422410000141414141400004122A2
:10081000140800020151090600324959513E007C7A
:100820001211127C007F49494936003E4141412264
:10083000007F4141221C007F49494941007F09094D
:100840000901003E4149497A007F0808087F0000FD
:10085000417F4100002040413F01007F08142241B8
:10086000007F40404040007F020C027F007F040870
:10087000107F003E4141413E007F09090906003ECC
:100880004151215E007F09192946004649494931F5
:100890000001017F0101003F4040403F001F204018
:1008A000201F003F4038403F0063140814630007D6
:1008B0000870080700615149454300007F4141002D
:1008C000AA55AA55AA55000041417F000004020123
:1008D00002040040404040400000030500000020AA
:1008E00054545478007F48444438003844444420E9
:1008F00000384444487F00385454541800087E0996
:1009000001020018A4A4A47C007F0804047800005D
:10091000447D4000004080847D00007F102844001A
:100920000000417F4000007C04180478007C08042B
:10093000047800384444443800FC24242418001867
:10094000242418FC007C0804040800485454542053
:1009500000043F444020003C4040207C001C2040DC
:10096000201C003C4030403C004428102844001C1F
:10097000A0A0A07C004464544C440000107C820081
:10098000000000FF00000000827C1000000006094B
:1009900009060C102D0D00000080808080808000F2
:1009A0000000000001030303030303010000000033
:1009B000000000000000000000000000000000C077
:1009C000C00000000000000002868686868686023F
:1009D0000000000081C3C3C3C3C3C381000000FC87
:1009E0007A0606060606067AFC00007EBCC0C0C079
:1009F000C0C0C0BC7E000000000000000000007805
:100A0000FC000000000000000000003C7E00000030
:100A1000028686868686867AFC00007EBDC3C3C3B6
:100A2000C3C3C38100000000028686868686867A5C
:100A3000FC00000081C3C3C3C3C3C3BD7E0000FC70
:100A40007880808080808078FC00000001030303B0
:100A50000303033D7E0000FC7A8686868686860236
:100A60000000000081C3C3C3C3C3C3BD7E0000FC3C
:100A70007A868686868686020000007EBDC3C3C352
:100A8000C3C3C3BD7E000000020606060606067A42
:100A9000FC000000000000000000003C7E0000FCA4
:100AA0007A8686868686867AFC00007EBDC3C3C3AE
:100AB000C3C3C3BD7E0000FC7A8686868686867A9E
:100AC000FC00000081C3C3C3C3C3C3BD7E000E18B6
:100AD0002D0D0000000000000000000000000000DC
:100AE0000000103838383838383838100000000026
:100AF00000000000000000000000000000000000F6
:100B000000000000000000000000000000000000E5
:100B10000000000000000000000000000040E0E0D5
:100B2000400000000000000002060E0E0E0E0E0E29
:100B300006020000000010383838383838383810CD
:100B40000000000080C0E0E0E0E0E0E0C0800000E5
:100B500000FCFAF60E0E0E0E0E0EF6FAFC0000EF7A
:100B6000C78300000000000083C7EF00007FBFDFE5
:100B7000E0E0E0E0E0E0DFBF7F0000000000000018
:100B800000000000F0F8FC00000000000000000081
:100B9000000083C7EF00000000000000000000001C
:100BA0001F3F7F00000002060E0E0E0E0E0EF6FA1C
:100BB000FC0000E0D0B83838383838383B170F0020
:100BC000007FBFDFE0E0E0E0E0E0C0800000000088
:100BD00002060E0E0E0E0E0EF6FAFC000000103885
:100BE000383838383838BBD7EF00000080C0E0E034
:100BF000E0E0E0E0DFBF7F0000FCF8F00000000074
:100C00000000F0F8FC00000F173B3838383838384F
:100C1000BBD7EF00000000000000000000001F3FF5
:100C20007F0000FCFAF60E0E0E0E0E0E06020000FD
:100C3000000F173B383838383838B8D0E00000009B
:100C400080C0E0E0E0E0E0E0DFBF7F0000FCFAF61B
:100C50000E0E0E0E0E0E0602000000EFD7BB383847
:100C600038383838B8D0E000007FBFDFE0E0E0E09F
:100C7000E0E0DFBF7F00000002060E0E0E0E0E0E3B
:100C8000F6FAFC000000000000000000000083C72E
:100C9000EF00000000000000000000001F3F7F0088
:100CA00000FCFAF60E0E0E0E0E0EF6FAFC0000EF29
:100CB000D7BB383838383838BBD7EF00007FBFDFB4
:100CC000E0E0E0E0E0E0DFBF7F0000FCFAF60E0EBF
:100CD0000E0E0E0EF6FAFC00000F173B38383838AF
:100CE0003838BBD7EF00000080C0E0E0E0E0E0E093
:100CF000DFBF7F000406205F00000003A000C00CDF
:100D000000F94F806BEB00988C8052A580030000A7
:100D100001C88089C00050850021C2000840002021
:100D20008200002000188C00FA2F804BE0805A6669
:100D3000808AA500E08F80EAAB0072A9009A8C003F
:100D4000FAAF804AA70001400009400021488051C5
:100D5000450089420042660072A6807A8780FAA523
:100D600000722500FA2700FAA880FA8800722B008A
:100D7000F88F808BE8808BE800F88D80F82080F970
:100D80000F80F9CF80722700FA8400722740FA851D
:100D9000804AA90083E800F02F00E06E00F0EF0029
:100DA000D88D80C0EC009AAC8003E880C081808B35
:100DB000E000420400082080020400312380F9236F
:100DC00000312480312F8031628023EA0025538056
:100DD000F9038002E00006E000F8428003E00079B9
:100DE00087803903803123007D23003127C0788438
:100DF0000029400043E4007027006066007067002F
:100E000048C48074578059E68023E8800360008BD3
:100E1000E200610C00040309042203410072006433
:100E200000750069006E006F0020004D00690063CE
:100E30000072006F002000200020001803410072A3
:100E4000006400750069006E006F0020004C004CCB
:100E500000430012010002000000404123378000DF
:100E6000010102000112010002020000404123378B
:100E70008000010102000100C18081C1000000006A
:100E8000240027002A002D0030000000000025006B
:100E900028002B002E003100000000002300260057
:100EA00029002C002F00040404040403040502029A
:100EB00002020403020202020606060606060404F3
:100EC0000202020404080201104080401020408009
:100ED0004080080204018040201002011080102090
:100EE00040400000000200080E0000030401000B57
:100EF00000000000000000000000000000000000F2
:100F0000070605040100080A0B0C0D09080B000276
:100F10000202010009040000010202000005240091
:100F20001001052401010104240206052406000124
:100F30000705810310004009040100020A000000B7
:100F4000070502024000000705830240000005017A
:100F50000902A1010901A10085010509190129035F
:100F60001500250195037501810295017505810321
:100F700005010930093109381581257F7508950368
:100F80008106C0C005010906A1018502050719E017
:100F900029E715002501750195088102950175085D
:100FA0008103950675081500256505071900296553
:100FB0008100C009040200010300000009210101B1
:100FC00000012265000705840340000100000000C5
:100FD000000000002A2B2800000000000000000094
:100FE0000000000000000000000000002C9EB4A0E3
:100FF000A1A2A434A6A7A5AE362D3738271E1F20E0
:10100000212223242526B333B62EB7B89F848586A4
:101010008788898A8B8C8D8E8F90919293949596E8
:101020009798999A9B9C9D2F3130A3AD3504050666
:101030000708090A0B0C0D0E0F10111213141516C8
:101040001718191A1B1C1DAFB1B0B500DE0A4518E0
:10105000F51DFA1E11241FBECFEFDAE0DEBFCDBFB3
:1010600011E0A0E0B1E0ECEBF5E402C005900D92D8
:10107000AC34B107D9F712E0ACE4B1E001C01D9285
:10108000A733B107E1F710E1C4E5D0E104C022972E
:10109000FE010E94A122CC34D107C9F70E94631738
:1010A0000C94DC220C940000CF93DF93BC018230BF
:1010B000910510F462E070E0A0913502B091360223
:1010C000ED01E0E0F0E040E050E021C0888199814E
:1010D0008617970769F48A819B81309719F093836B
:1010E000828304C09093360280933502FE0134C09F
:1010F0006817790738F44115510519F084179507D9
:1011000008F4AC01FE018A819B819C01E9012097D2
:10111000E9F641155105A9F1CA01861B970B049701
:1011200008F4BA01E0E0F0E02AC08D919C9111979B
:1011300084179507F9F46417750781F412968D9159
:101140009C911397309719F09383828304C09093F6
:10115000360280933502FD0132964CC0CA01861BCF
:10116000970BFD01E80FF91F6193719302978D931F
:101170009C9340C0FD01828193819C01D90110970D
:10118000A1F68091330290913402892B41F4809131
:101190001801909119019093340280933302409189
:1011A0001A0150911B014115510541F44DB75EB72D
:1011B0008091160190911701481B590B2091330221
:1011C00030913402CA01821B930B8617970780F077
:1011D000AB014E5F5F4F8417950750F0420F531FCE
:1011E0005093340240933302F9016193719302C02A
:1011F000E0E0F0E0CF01DF91CF910895CF93DF934E
:10120000009709F450C0EC0122971B821A82A0912A
:101210003502B0913602109709F140E050E0AC176A
:10122000BD0708F1BB83AA83FE0121913191E20F32
:10123000F31FAE17BF0779F48D919C911197280F7A
:10124000391F2E5F3F4F3983288312968D919C91D1
:1012500013979B838A834115510571F4D09336020D
:10126000C093350220C012968D919C911397AD01C9
:10127000009711F0DC01D3CFFA01D383C28321910F
:101280003191E20FF31FCE17DF0769F4888199814E
:10129000280F391F2E5F3F4FFA01318320838A8147
:1012A0009B8193838283DF91CF910895A0E0B0E08A
:1012B000ECE5F9E00C94AD22EC01A880B980CA807D
:1012C000DB80A114B104C104D10441F484E2A82E4E
:1012D00089EDB82E8BE5C82E87E0D82EC601B50162
:1012E0002DE133EF41E050E00E94702227EA31E423
:1012F00040E050E00E941C227B018C01C601B50138
:101300002DE133EF41E050E00E947022CA01B901A3
:101310002CEE34EF4FEF5FEF0E941C226E0D7F1D0D
:10132000801F911F97FF04C061507040804090481B
:10133000688379838A839B839B01AC015F77B901C2
:10134000CA01CDB7DEB7EAE00C94C9220E94560963
:1013500008958CE191E00E945609089560931C0164
:1013600070931D0180931E0190931F010895DC016D
:1013700001C06D9341505040E0F70895FC01608733
:101380004083218721836230B1F0633061F06130A6
:1013900009F0089584ED90E09583848380E1838350
:1013A00088E0828308958CEC90E09583848388E0C4
:1013B0008383828308958CEA90E0958384838CEB09
:1013C00090E09783868380E1838388E08283089519
:1013D000DF92EF92FF920F931F93DF93CF93CDB7DE
:1013E000DEB72A970FB6F894DEBF0FBECDBFD82E5A
:1013F0007A01FA012081482F50E0822F90E0019776
:10140000481759070CF041C08E010F5F1F4F9A011A
:10141000220F331FCA01880F991F880F991F880F49
:10142000991F280F391F260F371FD801F9018AE0AD
:1014300001900D928150E1F7CA010196AC01440F71
:10144000551F440F551F440F551F880F991F480FF4
:10145000591F460F571FD901FA018AE001900D92DA
:101460008150E1F7DA01F8018AE001900D92815094
:10147000E1F7D394F70120814D2D50E0822F90E0C9
:101480000197481759070CF4C2CF2150F701208368
:101490002A960FB6F894DEBF0FBECDBFCF91DF9175
:1014A0001F910F91FF90EF90DF9008954F925F9200
:1014B0006F927F928F929F92AF92BF92CF92DF9264
:1014C000EF92FF920F931F93DF93CF93CDB7DEB7C9
:1014D00064970FB6F894DEBF0FBECDBF0B871C8795
:1014E000E22F2D873E874F87588B698B7A8B8B8BAA
:1014F0009C8B432FDD24C114D10409F45CC0A02EC1
:10150000BB24970160E070E04E010894811C911C9F
:10151000E42EFF24612E77244E2E5524D401F901A8
:101520008AE001900D928150E1F7AB81FA818981C7
:10153000082F10E08C81482F50E0C501841B950BCB
:101540008017910784F54E0D5F1D4A0D5B1D041732
:1015500015074CF50F2F10E04A2F50E0C301841BF4
:10156000950B80179107FCF4460D571D440D551D32
:1015700004171507C4F4CB0164960FB6F894DEBFC8
:101580000FBECDBFCF91DF911F910F91FF90EF90D4
:10159000DF90CF90BF90AF909F908F907F906F9093
:1015A0005F904F9008956F5F7F4F265F3F4F6C15A0
:1015B0007D050CF4B3CF6FEF7FEFDDCF8CE491E0CE
:1015C00062E143E10E94741008952F923F925F926E
:1015D0006F927F928F929F92AF92BF92CF92DF9243
:1015E000EF92FF920F931F93DF93CF9300D000D021
:1015F00000D0CDB7DEB73C017A8369835C834B832F
:1016000079011801101611060CF069C05524AA249E
:10161000BB241E141F040CF042C09501359527957C
:101620003595279535952795C5018770907011E000
:10163000C12ED12C02C0CC0CDD1C8A95E2F72E9D68
:1016400080012F9D100D3E9D100D11248B819C81DA
:10165000080F191F1E821D8289809A808A0C9B1C8C
:10166000F801849190E08C219D21181619066CF4E4
:101670006D817E81660D771D8CE491E0A4010E944E
:10168000CB10882311F0552453948D819E810196AF
:101690009E838D830F5F1F4F8E159F050CF308945B
:1016A000A11CB11CA214B3040CF4B3CF852D269653
:1016B0000FB6F894DEBF0FBECDBFCF91DF911F9163
:1016C0000F91FF90EF90DF90CF90BF90AF909F90E1
:1016D0008F907F906F905F903F902F90089555244A
:1016E000E5CFAF92BF92CF92DF92EF92FF920F932E
:1016F0001F93CF93DF936091BC01662309F091C0E3
:10170000809120018823F1F0C0E0D0E0CC24DD24DA
:101710008CE491E0B60140E050E024EE30E008E0D7
:1017200010E0F6E0EF2EF12C0E9425132196809117
:10173000200190E0C817D9072CF4C00ED11EC53087
:10174000D10531F78CE491E060E071E04CE150E0CC
:1017500020E030E00E942D158CE491E041E050E063
:1017600060E070E028E230E000E010E0EE24FF24CA
:10177000E0E2CE2E0E949B158CE491E064E071E0E3
:1017800040E350E020E030E00E942D154091B90187
:1017900050E060E070E08CE491E028E330E00E94EB
:1017A0009B158CE491E067E071E040E450E020E0BC
:1017B00030E00E942D154091B80150E060E070E0EB
:1017C0008CE491E028E430E00E949B1540915E019A
:1017D00050E060E070E08CE491E027E630E00E94A9
:1017E0009B158CE491E06AE071E043E750E020E073
:1017F00030E00E942D1540915F0150E060E070E004
:101800008CE491E027E730E00E949B15DF91CF91B7
:101810001F910F91FF90EF90DF90CF90BF90AF900E
:10182000089500D000D070E080E090E02FE730E035
:1018300040E050E0EDB7FEB7218332834383548309
:1018400020E030E040E050E0A4E6EA2EF12C012D4B
:10185000112DAA24BB2465010E94221D162F0F9072
:101860000F900F900F90662361F08CE491E0612F50
:1018700070E040E050E026E030E00E94AA121150F3
:10188000A1F78091BC0181508093BC01BFCF6F92C2
:101890007F928F929F92AF92BF92CF92DF92EF9200
:1018A000FF920F931F93CF93DF933B014A010E9456
:1018B000B81BEC01C40185549E4F8C179D070CF496
:1018C00052C08BEB91E088199909C817D9070CF021
:1018D00047C0B401882777FD8095982F0E942D215D
:1018E0009B01AC0160E070E88DED93E40E942D2037
:1018F0007B018C01B301882777FD8095982F0E948A
:101900002D21A80197010E9492205B016C01BE016C
:10191000882777FD8095982F0E942D219B01AC018F
:10192000C801B7010E942D209B01AC01C601B50181
:101930000E94B9210E94FA2022273327261B370B49
:10194000C901DF91CF911F910F91FF90EF90DF9030
:10195000CF90BF90AF909F908F907F906F900895A1
:1019600020E030E0EDCFCB5BD140C819D909BE01F2
:10197000882777FD8095982F0E942D215B016C01AF
:10198000B301882777FD8095982F0E942D217B0138
:101990008C01B401882777FD8095982F0E942D2116
:1019A0009B01AC0160E070E88DED93E40E942D2076
:1019B0009B01AC01C801B7010E9492209B01AC01C0
:1019C000C601B5010E94B9210E94FA209B01B8CF3F
:1019D0000F931F9310915E0180E165E070E048E293
:1019E00050E00E94470C180F10935E0110915F01A8
:1019F0008FE065E070E048E250E00E94470C181B61
:101A000010935F0180915E01883018F588E0809323
:101A10005E01812F8650833C28F186E080935F0130
:101A20008091BC0180FD12C060915F014091620114
:101A300050916301209161010091600180915E01EC
:101A400090E070E030E010E00E94E50A1F910F91F5
:101A500008958037F0F28FE680935E01812F8650E3
:101A6000833CD8F61833E0F287E380935F01D8CF48
:101A7000EF92FF920F931F938CE491E060E40E9439
:101A8000A116882309F4FFCF8CE491E068EC0E9452
:101A90009C148CE491E060E00E9487148CE491E057
:101AA00060E070E040E050E024E533E000E810E062
:101AB000A0E4EA2EF12C0E9425138CE491E00E9410
:101AC000AC140E94081B0E94AE0980E160E00E94F5
:101AD000F01B8FE060E00E94F01B81E160E00E945B
:101AE000F01B60ED77E080E090E00E943C1B8CE40E
:101AF00091E064EF7CE00E9455128EE591E061E098
:101B000048E02CE10E94BE090E94081B6093BE01C0
:101B10007093BF018093C0019093C1011F910F91F9
:101B2000FF90EF900895FF920F931F93CF93DF9351
:101B300081E10E94B01C892B09F440C02091B801BA
:101B4000822F90E0009729F10197EC01CC0FDD1F67
:101B5000CC0FDD1FCC0FDD1F880F991FC80FD91FB9
:101B6000C859DE4FF22EFA9488818B5F888387FDF7
:101B70001DC069814C815D812B810A8190E070E0FC
:101B800030E010E00E94E50A2A97FA948FEFF816E9
:101B900059F78091BA01882319F081508093BA01D6
:101BA000DF91CF911F910F91FF9008958F2D68E6DF
:101BB00071E048EB51E00E94E809E6CF2091B801BE
:101BC000233008F0BDCF8091BA01882309F0B8CF47
:101BD0008AE0289FC001112440915E01405F88592E
:101BE0009E4F63E020915F010E94BE092091B801E1
:101BF0002F5F2093B80186E08093BA01A1CF2F9286
:101C00003F924F925F926F927F928F929F92AF928C
:101C1000BF92CF92DF92EF92FF920F931F93DF93C9
:101C2000CF93CDB7DEB72A970FB6F894DEBF0FBEBD
:101C3000CDBF0091B901053028F48091BB01882304
:101C400009F468C110E00115110509F45FC03801FD
:101C50000894610871084301880C991CC301880F1E
:101C6000991F880F991F880F991F880E991E86E863
:101C700091E0880E991E1E010894211C311CA4E6D7
:101C80004A2E28C0E92FF0E0CF01877090700497AA
:101C90000CF48EC0D40111966C91119716964D914B
:101CA0005C91179713962C91139712960C91CF0174
:101CB00070E030E010E00E94E50A882309F081C05E
:101CC000E6EFFFEF8E0E9F1E61147104F9F0089489
:101CD00061087108D4016C916150962F6C9318962D
:101CE0008C911897823091F1892F895C863350F658
:101CF000862D66E871E049EB51E00E94E809E6EFC5
:101D0000FFEF8E0E9F1E6114710409F78091BB01D5
:101D1000882319F081508093BB012A960FB6F8945E
:101D2000DEBF0FBECDBFCF91DF911F910F91FF900E
:101D3000EF90DF90CF90BF90AF909F908F907F906B
:101D40006F905F904F903F902F90089519965C9000
:101D5000262F30E02F713070213131050CF4ABC0EB
:101D600000D000D0B901882777FD8095982F28E012
:101D700030E040E050E0EDB7FEB72183328343838B
:101D800054832FE130E040E050E0F0E1EF2EF12C01
:101D9000012D112DAA24BB2465010E94221D0F9044
:101DA0000F900F900F90560EF401518290819CCFAE
:101DB000D40111966C91119714964D915C911597E1
:101DC00071CFF301EE0FFF1FC301880F991F880F1A
:101DD000991F880F991FE80FF91FEA57FE4F0081DE
:101DE000118122813381448155816681778180858B
:101DF0009185E8E6EE2EE1E0FE2EC090B8010E944B
:101E0000560ABFEF8F3F9B0709F077C0D101F4015D
:101E10008AE001900D928150E1F71B81AA818981AE
:101E2000E82FF0E080915E01682F70E08C81482FF0
:101E300050E0CB01841B950B8E179F070CF040CF11
:101E400080916101282F30E0460F571F420F531F2A
:101E5000E417F5070CF034CFB0E080915F01482F14
:101E600050E0E12FF0E0CA018E1B9F0B8A179B0701
:101E70000CF026CF80916001082F10E0E40FF51FD1
:101E8000E00FF11FAE17BF070CF01ACF8091BC0115
:101E9000882309F015CF260F371F040F151F8CE478
:101EA00091E00E94DC124092BC018091200181509F
:101EB0008093200105CF00D000D0B901882777FD9D
:101EC0008095982FADB7BEB711961D921D921D92A9
:101ED0001C92149720E130E040E050E0EE24FF2413
:101EE0008701E8E0AE2EB12CC12CD12C0E94221D1E
:101EF0000F900F900F900F9056CFB70148EB51E025
:101F00000E94E809862D66E871E049EB51E00E94E5
:101F1000E809F5CE10E066E070E080E090E020E3B4
:101F200030E040E050E00E948D1DF801EE0FFF1FF1
:101F3000C801880F991F880F991F880F991FE80FF4
:101F4000F91FEA57FE4F82E080878FE78083618721
:101F500061838CEA90E0958384838CEB90E0978397
:101F6000868380E18383F801EE0FFF1FEE0FFF1FD2
:101F7000E00FF11FEE0FFF1FE857FE4F88E0808350
:101F80000091B9010F5F0093B90184E18093BB0117
:101F900059CEAF92BF92CF92DF92EF92FF920F9302
:101FA0001F938CE491E00E947F160E94930D0E9483
:101FB000E80C0E94FF0D8091BD01803809F477C0C4
:101FC0008F5F8093BD0100D000D06091BD0170E0B3
:101FD00080E090E02BE030E040E050E0EDB7FEB76D
:101FE000218332834383548320E030E040E050E09B
:101FF000B0E8EB2EF12C012D112DAA24BB24650194
:102000000E94221D0F900F900F900F90CB01880F10
:10201000991F880F991F880F991FAC01440F551FF6
:10202000440F551F440F551F481B590B44515F4F18
:1020300080E090E066E070E028E030E00AE310E045
:102040000E94E50A0E94710B0E94081BAB01BC01B3
:102050008091BE019091BF01A091C001B091C101DA
:10206000481B590B6A0B7B0B8CE491E020E530E0B8
:1020700000E010E0EE24FF24E0E2CE2E0E949B154B
:102080000E94081B6093BE017093BF018093C00142
:102090009093C1018CE491E00E94AC141F910F91C8
:1020A000FF90EF90DF90CF90BF90AF900895109287
:1020B000BD0189CF80912001893C18F40E94C90F8D
:1020C00008958CE491E00E947F168CE491E06CE02E
:1020D00071E04BE250E02CE130E00E942D158CE4E1
:1020E00091E00E94AC140895FC01618340838FEF5E
:1020F00082830895FC016038710518F5878590E0AA
:1021000048175907F0F4CA0133E0969587953A9538
:10211000E1F79695982F882797958795860F971FB3
:102120000384F485E02DE80FF91F4770507081E0BB
:1021300090E002C0880F991F4A95E2F72081282B72
:1021400020830895FC016038710520F5878590E0B3
:1021500048175907F8F4CA01B3E096958795BA95E0
:10216000E1F79695982F882797958795860F971F63
:102170000384F485E02DE80FF91F4770507081E06B
:1021800090E002C0880F991F4A95E2F78095208160
:10219000282320830895FC016038710570F5878538
:1021A00090E04817590748F5CA01B3E0969587951E
:1021B000BA95E1F79695982F882797958795860F7A
:1021C000971F0384F485E02DE80FF91F20814770E5
:1021D0005070822F90E0042E02C0959587950A9446
:1021E000E2F7382F317081E090E002C0880F991F2C
:1021F0004A95E2F7282B208301C030E0832F089511
:102200002F923F924F925F926F927F928F929F9206
:10221000AF92BF92CF92DF92EF92FF920F931F93F4
:10222000DF93CF9300D000D0CDB7DEB79C838B83F4
:1022300049835A83322E232EDC0117962C9117974F
:10224000422F50E0CA01877090701696EC91169755
:1022500070E018963C91892B09F088C02695269548
:1022600026952E9FC0011124631B7109869F3001A2
:10227000879F700C969F700C1124E4E0F0E06E0EC6
:102280007F1E232D322DC9014C01AA24BB245BC023
:1022900000E010E0AB81BC8116968C91169790E01F
:1022A000FC01AE9EC001AF9E900DBE9E900D11240C
:1022B000860D971D8C0D9D1D1496ED91FC91159723
:1022C000E80FF91FE4918E2F90E0002E02C0959543
:1022D00087950A94E2F71A969C911A9780FF07C097
:1022E000A801480D591D992339F4CD010DC0A8014D
:1022F000480D591D992331F48B819C81B7010E94AF
:10230000A21005C08B819C81B7010E947A100F5FDB
:102310001F4F0830110509F0BDCF0894C11CD11C16
:102320000894E11CF11CAB81BC8116968C9190E065
:10233000C816D9060CF4ACCF0894A11CB11CE8E077
:10234000F0E08E0E9F1EAB81BC8117968C91869516
:102350008695869590E0A816B9060CF08FC0898105
:102360009A819C017901CC24DD24DDCF631B7109A6
:102370008E2F90E0FC01E49FC001E59F900DF49F3B
:10238000900D112423E0959587952A95E1F7689F94
:102390005001699FB00C789FB00C112424E030E00C
:1023A000A20EB31EAB81BC811496ED91FC911597E2
:1023B000EA0DFB1DE4914E2E552429813A81C90175
:1023C0007C0197E0C92ED12C6624772448C0C20135
:1023D0000C2C02C0959587950A94E2F7EB81FC815D
:1023E000928580FF04C0992321F4CF010BC099236B
:1023F00039F48B819C81B701A8010E94A21006C00C
:102400008B819C81B701A8010E947A100894C108B1
:10241000D108D7FE11C00894A11CB11CAB81BC81AE
:102420001496ED91FC911597EA0DFB1DE4914E2E4B
:10243000552487E0C82ED12C0894811C911C0F5F75
:102440001F4FEB81FC81878190E0881699060CF480
:10245000BECF0894611C711C0894E11CF11CAB8177
:10246000BC8116968C9190E0681679063CF4832D19
:10247000922D9C01890188249924E3CF0F900F901D
:102480000F900F90CF91DF911F910F91FF90EF90E0
:10249000DF90CF90BF90AF909F908F907F906F9084
:1024A0005F904F903F902F900895DC01FB011596AF
:1024B0007C936E931497849116968C93169731960D
:1024C000849117968C9317973196849118968C93D4
:1024D00018973196E4911996EC9319971A961C92D5
:1024E0000895CF93DF93EC016038710580F557FDB7
:1024F0002EC08F8590E0481759074CF5DA01F3E0BC
:10250000B595A795FA95E1F7B695BA2FAA27B7958D
:10251000A795A60FB71F4770507081E090E002C0EA
:10252000880F991F4A95E2F7682F40E050E00CC0F1
:10253000CA018A0F9B1FEB85FC85E80FF91F80817C
:10254000862B80834F5F5F4F421753078CF3DF91D9
:10255000CF910895AF92BF92CF92DF92EF92FF9208
:102560000F931F93CF93DF936C017A0159018B0175
:1025700060387105B0F457FD14C0FC01878590E008
:102580004817590774F4C0E0D0E008C0AE014E0D02
:102590005F1DC601B8010E947A102196CA15DB059D
:1025A000ACF3DF91CF911F910F91FF90EF90DF90EF
:1025B000CF90BF90AF9008958F929F92AF92BF92AD
:1025C000CF92DF92EF92FF920F931F93CF93DF93FF
:1025D0004C01EB017A01590168012617370714F401
:1025E0005B01E901CE14DF041CF4C60167017C0124
:1025F00085010C1B1D0BC401BE01A70198010E949F
:102600007112C401BE01A60198010E9471128601D7
:102610000E191F09C401BE01A70198010E94AA1248
:102620000F5F1F4FC401B501A70198010E94AA12B4
:10263000DF91CF911F910F91FF90EF90DF90CF909E
:10264000BF90AF909F908F9008952F923F924F929E
:102650005F926F927F928F929F92AF92BF92CF9232
:10266000DF92EF92FF920F931F93DF93CF9300D0EF
:1026700000D000D0CDB7DEB72C016B837C833A83CA
:102680002983380117015A01CC24DD244DC0C6012D
:1026900087709070F1E08F2E912C02C0880C991CED
:1026A0008A95E2F72B813C81C9018C01C601E3E0E8
:1026B00095958795EA95E1F7869D9001879D300D68
:1026C000969D300D112489819A81280F391F3E83F0
:1026D0002D83EE24FF241FC0ED81FE81849190E0C4
:1026E000882199211816190634F4C201B801A501F0
:1026F0000E947A1005C0C201B801A5010E94A21073
:102700000894E11CF11C0F5F1F4F2D813E812F5F4C
:102710003F4F3E832D83E614F704F4F20894C11C66
:10272000D11C0894A11CB11CC214D3040CF4AFCF6B
:1027300026960FB6F894DEBF0FBECDBFCF91DF91C6
:102740001F910F91FF90EF90DF90CF90BF90AF90CF
:102750009F908F907F906F905F904F903F902F90C1
:102760000895FF920F931F938C01F62EFC01818137
:1027700061E00E94F01BF8018181608141E02F2D12
:102780000E94E01C1F910F91FF9008950F931F93DB
:102790008C01FC01818161E00E94F01BF8018181C4
:1027A00060E00E947D1CF801808161E00E947D1C38
:1027B000F801818161E00E947D1CF801818160E067
:1027C0000E94F01B1F910F910895FF920F931F938A
:1027D0008C01F62EFC01818161E00E94F01BF80162
:1027E000818161E00E947D1CF801808161E00E948E
:1027F0007D1CF801818160E00E947D1CF8018081D0
:1028000060E00E947D1CF8018181608141E02F2DF4
:102810000E94E01C1F910F91FF90089582E061E0FB
:102820000E947D1C83E061E00E947D1CE9EBF0E0EA
:1028300080818E7F808380818D7F80838CE08093F8
:10284000B80085E08093BC000895CF93DF93EC013E
:10285000898160E00E94F01B888161E00E947D1CFC
:1028600089810E94B01C0197D9F3888160E00E94A1
:102870007D1CDF91CF9108951F93CF93DF93EC01DF
:10288000162F8B81882339F184EE8093BC008091D0
:10289000BC0087FFFCCF88E78093BB0084EC80936B
:1028A000BC008091BC0087FFFCCF1092BB0084EC81
:1028B0008093BC008091BC0087FFFCCF1093BB00CD
:1028C00084EC8093BC008091BC0087FFFCCF84E93E
:1028D0008093BC0018C0CE0168E70E94E513CE01CA
:1028E0000E942514CE0160E00E94B113CE010E9427
:1028F0002514CE01612F0E94B113CE010E94251430
:10290000CE010E94C613DF91CF911F910895CF93FE
:10291000DF93EC01662331F060EA0E943C14CE01A3
:1029200060EC05C061EA0E943C14CE0168EC0E9494
:102930003C14DF91CF910895FF920F931F938C0168
:10294000F62E61E80E943C14C8016F2D0E943C14D1
:102950001F910F91FF900895FF920F931F93CF93B4
:10296000DF93EC01F89461E20E943C14CE0160E038
:102970000E943C14CE016FE70E943C14CE0162E23B
:102980000E943C14CE0160E00E943C14CE0167E03E
:102990000E943C148B818823E1F084EE8093BC007C
:1029A0008091BC0087FFFCCF88E78093BB0084EC5C
:1029B0008093BC008091BC0087FFFCCF80E48093B3
:1029C000BB0084EC8093BC008091BC0087FFFCCFEF
:1029D0000EC0CE0168E70E94E513CE010E942514C7
:1029E000CE0160E40E94B113CE010E94251400E0E4
:1029F00010E0A4ECFA2E1BC0EB85FC85222361F0CD
:102A0000E00FF11F80818093BB00F092BC008091A9
:102A1000BC0087FFFCCF09C0E00FF11FCE01608131
:102A20000E94B113CE010E9425140F5F1F4F8D85A8
:102A30009E852B8108171907F8F2222321F084E9DB
:102A40008093BC0003C0CE010E94C6137894DF912E
:102A5000CF911F910F91FF9008958F929F92AF9207
:102A6000BF92CF92DF92EF92FF920F931F93CF937B
:102A7000DF936C015B01EA014901DB010D9000204D
:102A8000E9F77D010894E108F108E61AF70AB7E2D0
:102A90004F305B0779F4FC01868190E09C012E9D0C
:102AA000C0012F9D900D3E9D900D1124C0E8D0E0F7
:102AB000C81BD90B37E2CE30D307A1F4D601169646
:102AC0008C9190E08E9D90018F9D300D9E9D300DDC
:102AD000112480E890E0821B930B62E070E00E947A
:102AE0003B22EB0100E010E016C0F50161915F01AF
:102AF000D60116968C9190E0089FA001099F500D79
:102B0000189F500D11244C0F5D1FC60194010E94A7
:102B100000110F5F1F4F0E151F053CF3DF91CF9182
:102B20001F910F91FF90EF90DF90CF90BF90AF90EB
:102B30009F908F9008952F923F924F925F926F9245
:102B40007F928F929F92AF92BF92CF92DF92EF923D
:102B5000FF920F931F93DF93CF93CDB7DEB7E69726
:102B60000FB6F894DEBF0FBECDBF2C014A015B014A
:102B700019011EAB0DAB37014115510561057105FA
:102B800011F5E114F104D9F0A0E0B0E00894E108F7
:102B9000F1089E01265E3F4F05C0F901EA0FFB1FB9
:102BA000C0821196AE15BF05C4F32A0F3B1F80E308
:102BB000F9018083AC0FBD1F5B961C927EC080E341
:102BC0008A8F1B8E7AC077FD02C0DD240AC0B094C4
:102BD000A09490948094811C911CA11CB11CDD24B4
:102BE000D39400E010E07E010894E11CF11CC501C3
:102BF000B4012AE030E040E050E00E9470229B01E6
:102C0000AC01F701E00FF11F862F805D80830F5F1D
:102C10001F4F821A930AA40AB50AC501B4012AE01B
:102C200030E040E050E00E947022C901DA014C011E
:102C30005D01181419041A041B04CCF2E00EF11EF5
:102C4000F7011082DD2011F08DE28A8F8D2D90E04A
:102C5000B801680F791F661577051CF040E050E059
:102C600012C0FE017A96E80FF91F40E050E07301B0
:102C7000E01AF10AE81AF90A03C0C1924F5F5F4FE8
:102C80004E155F05D4F3DE01A00FB11FFE017A9649
:102C9000840F951FE80FF91F20E030E08C9181939D
:102CA0002F5F3F4F119720173107C4F3FE01319674
:102CB000E40FF51FE60FF71F118EC201BE01665E1D
:102CC0007F4FA1012DA93EA90E942D15E6960FB6B2
:102CD000F894DEBF0FBECDBFCF91DF911F910F9152
:102CE000FF90EF90DF90CF90BF90AF909F908F902C
:102CF0007F906F905F904F903F902F900895FC01D0
:102D0000458556858385948560E070E00E94B7090B
:102D10000895EF92FF920F931F937B018C010E9405
:102D2000081BE60EF71E081F191F0E94081B6E15D0
:102D30007F0580079107C8F31F910F91FF90EF90D7
:102D40000895CF93DF93EC01603219F06034B1F451
:102D500008C06F878FE1888B82E0898B80E092E0EA
:102D600007C06F878FE3888B82E1898B80E094E0D6
:102D70009E878D870E9454088B879C878B859C85B6
:102D8000892B11F480E09CC08A818F3FD9F061E0EB
:102D90000E94F01B8A8161E00E947D1C61E070E06E
:102DA00080E090E00E9489168A8160E00E947D1C8C
:102DB0006AE070E080E090E00E9489168A8161E01C
:102DC0000E947D1C8981823049F48881833031F4EE
:102DD00081E08B83CE010E940E1405C01B82888186
:102DE00061E00E94F01BCE016EEA0E943C14CE010D
:102DF00065ED0E943C14CE0160E80E943C14CE01B7
:102E000068EA0E943C14CE0168890E943C14CE01FD
:102E100063ED0E943C14CE0160E00E943C14CE01A0
:102E200060E40E943C14CE016DE80E943C14CE0187
:102E300064E10E943C14CE0160E20E943C14CE0189
:102E400060E00E943C14CE0161EA0E943C14CE0175
:102E500068EC0E943C14CE016AED0E943C14CE0145
:102E600069890E943C14CE0161E80E943C14CE01A5
:102E70006FEC0E943C14CE0169ED0E943C14CE011F
:102E800061EF0E943C14CE016BED0E943C14CE0118
:102E900060E40E943C14CE0164EA0E943C14CE011E
:102EA00066EA0E943C14CE016FEA0E943C14CE01F7
:102EB0000E947F16CE010E94AC141D821C8281E00C
:102EC000DF91CF910895CF93DF930E94621B8AEC2C
:102ED00091E00E9446180E94380DC0E0D0E00E94A8
:102EE0005A102097E1F30E940000F9CFFC0104C0C2
:102EF0008091F100819361506623D1F7289A84E68E
:102F00008093C3010895282F8091C4018823C1F0C4
:102F100057FF1AC015C0289A9093C3018091F10001
:102F20008193E217F307B9F74115510539F0809104
:102F3000F200882319F48BE68093E800AFBF02C04B
:102F40004FEF5FEFCA010895AFB7F8942770209351
:102F5000E9008091F200282F30E0241735070CF4A7
:102F6000A901FB019B01240F311D94E6DACFDF9309
:102F7000CF930F92CDB7DEB7BE016F5F7F4F41E0B9
:102F800050E00E948317019719F02FEF3FEF03C025
:102F90008981282F30E0C9010F90CF91DF910895EA
:102FA0002FB7F89487708093E9008091E80085FD41
:102FB00002C090E004C08091F20090E4981B2FBF03
:102FC000892F0895FF920F931F93F82E142F052F2A
:102FD0004091C7015091C801212F302FC901DC0158
:102FE000FB016EEF29C0F7FE02C0949101C09081F1
:102FF0002091C5013091C60124173507ACF48091AA
:10300000E8008570E1F38091E80082FF03C02FEFB4
:103010003FEF17C09093F100C90101968F73907034
:10302000892B11F46093E8002F5F3F4F3093C60166
:103030002093C501119731961097A9F6812F902FF3
:103040009C01C9011F910F91FF9008950F931F9349
:103050009C01162F072F8091E80082FFFCCFC90149
:10306000612F0E9476178BEF8093E800812F902FBD
:103070001F910F9108958093E9008091F2008823B9
:1030800019F08AE38093E800089508951092C4012E
:1030900081E08093D70080EA8093D80082E189BDE7
:1030A00009B400FEFDCF61E070E080E090E00E9496
:1030B0003C1B80E98093D8008CE08093E200109262
:1030C000E000559A209A5D98289808956F927F9213
:1030D0008F929F92AF92BF92CF92DF92EF92FF9228
:1030E0000F931F93CF93DF93E82E942E852E80911C
:1030F000C401882309F18B01242F352FC901EC016C
:103100006AEFF62E57E0752E7E208E2D90E040E27D
:10311000A42EB12CA822B9223AE3632E20E4C22EB9
:10312000D12CC822D9224CC08E2D0E94D017282F16
:10313000882361F4FA9419F42FEF3FEF4CC061E05B
:1031400070E080E090E00E943C1B3AC090E0C8171D
:10315000D9070CF42C2FC21BD1094FB7F8947092E9
:10316000E900A114B10421F406C01092F10021502D
:103170002223D9F719C0E7FC03C0F801922F10C031
:10318000C801322F06C0FC010196E491E093F100E2
:1031900031503323C1F706C081918093F1009150E3
:1031A0009923D1F7020F111D8091E80085FF05C01A
:1031B000209729F4C114D10411F06092E8004FBFA8
:1031C000209709F0B1CF5D9A84E68093C201292D42
:1031D000382DC9019C01C901DF91CF911F910F9139
:1031E000FF90EF90DF90CF90BF90AF909F908F9027
:1031F0007F906F9008951F920F920FB60F92112437
:103200002F933F934F935F936F937F938F939F93EE
:10321000AF93BF93EF93FF938091E1001092E10091
:10322000982F83FF0FC01092E90081E08093EB009C
:103230001092EC0082E38093ED001092C40188E0CC
:103240008093F00092FF34C083E08093E900809186
:10325000F200882319F08AE38093E8008FB7F8948E
:1032600092E09093E9009091F2008FBF992321F0B2
:1032700088E192E00E94381E8091C201882351F0BB
:103280008091C20181508093C2018091C201882344
:1032900009F45D988091C301882351F08091C301A6
:1032A00081508093C3018091C301882309F4289839
:1032B000FF91EF91BF91AF919F918F917F916F910E
:1032C0005F914F913F912F910F900FBE0F901F90E4
:1032D00018950F931F93DF93CF930F92CDB7DEB75F
:1032E00019828E010F5F1F4FC8010E945E1EC80128
:1032F0000E94F71F898190E00F90CF91DF911F917D
:103300000F9108951F920F920FB60F921124EF9212
:10331000FF921F932F933F934F935F936F937F93EE
:103320008F939F93AF93BF93EF93FF93DF93CF93CD
:10333000CDB7DEB76197DEBFCDBF1092E9008091B7
:10334000E80083FF04C1CE01019668E00E94761771
:1033500082EF8093E800998197FF05C08091E80093
:1033600080FFFCCF03C08EEF8093E800292F30E070
:10337000C90180769070892B09F0C2C08A818823A8
:1033800029F41092F1001092F100D6C0813009F4B6
:10339000D3C0833009F4D0C0853049F48091E8006F
:1033A00080FFFCCF8B8180688093E300C5C08630AE
:1033B00009F07CC01C81EF80F8841230C1F51092B6
:1033C000E9001092C6011092C5011092C801109236
:1033D000C7010E94691999E0FE013996DF01292F82
:1033E0001D922A95E9F799871A8791E09E8790E8C0
:1033F000988B9AEF998B2091C5013091C601275F78
:103400003F4F3C872B878D871092E9001092C601B1
:103410001092C501F092C801E092C70180E0BF019F
:1034200049E050E00E94E2170E94691985C010929D
:10343000E9001092C6011092C501F092C801E09215
:10344000C701123241F482E290E00E94EF1F892B03
:1034500009F476C071C0113079F488E0E816F104FF
:1034600019F481E08093C9018091C901882309F092
:103470006BC0E3E5FEE013C0133009F061C08B813F
:10348000882319F4E5E1FEE00AC0823019F4E9E18D
:10349000FEE005C0813009F053C0EBE3FEE044914B
:1034A00080E8BF0150E00E94E21746C0873009F46F
:1034B00047C0883021F481E08093F1003DC089301D
:1034C000D9F523703070232BD9F5E8E7FEE091E0C1
:1034D00031E026E39093E9003093EB0084918093F0
:1034E000EC002093ED009F5F3196953099F78EE7C1
:1034F0008093EA001092EA008B818093C4011CC083
:103500008F8198851092E9001092C6011092C50132
:103510009093C8018093C7018D81882329F4CE013F
:1035200001960E946A1E06C0823051F4CE010196B7
:103530000E94C01E882321F08EEF8093E80007C010
:1035400081E28093EB0003C0E5E6FEE0A8CF619640
:10355000DEBFCDBFCF91DF91FF91EF91BF91AF91D2
:103560009F918F917F916F915F914F913F912F919B
:103570001F91FF90EF900F900FBE0F901F90189526
:103580001F920F920FB60F9211242F933F938F9398
:103590009F93AF93BF938091CF019091D001A09161
:1035A000D101B091D2013091D3010196A11DB11D7D
:1035B000232F2D5F2D3720F02D570196A11DB11D12
:1035C0002093D3018093CF019093D001A093D10198
:1035D000B093D2018091CB019091CC01A091CD010B
:1035E000B091CE010196A11DB11D8093CB019093A6
:1035F000CC01A093CD01B093CE01BF91AF919F912B
:103600008F913F912F910F900FBE0F901F901895A3
:103610008FB7F8942091CF013091D0014091D10122
:103620005091D2018FBFB901CA0108959FB7F89494
:103630002091CB013091CC014091CD015091CE0130
:1036400086B5A89B06C08F3F21F02F5F3F4F4F4F9D
:103650005F4F9FBF542F432F322F2227280F311D3A
:10366000411D511D82E0220F331F441F551F8A95B3
:10367000D1F7B901CA010895EF92FF920F931F93FA
:10368000CF93DF937B018C010E94161BEB010EC0D0
:103690000E94161B6C1B7D0B685E7340C8F3089478
:1036A000E108F10801091109C851DC4FE114F104E6
:1036B0000105110569F7DF91CF911F910F91FF90DF
:1036C000EF900895789484B5826084BD84B581605C
:1036D00084BD85B5826085BD85B5816085BDEEE61A
:1036E000F0E0808181608083E1E8F0E010828081F9
:1036F00082608083808181608083E0E8F0E0808167
:1037000081608083E1E9F0E0808182608083808154
:1037100081608083E0E9F0E0808181608083E1EC7A
:10372000F0E08081846080838081826080838081FA
:1037300081608083E3ECF0E0808181608083E0EC55
:10374000F0E0808182608083E2ECF0E08081816043
:103750008083EAE7F0E080818460808380818260FA
:1037600080838081816080838081806880830895E8
:10377000823108F08251E82FF0E0E050F14FE491FF
:1037800020917B008E2F86958695869590E081709E
:10379000907035E0880F991F3A95E1F72F7D282B1F
:1037A00020937B00E770809121018295880F880F1C
:1037B000807C8E2B80937C0080917A008064809343
:1037C0007A0080917A0086FDFCCF209178004091AC
:1037D0007900942F80E030E0282B392BC90108951F
:1037E000CF93DF93482F50E0CA018C53914FFC01D7
:1037F00034914A55514FFA018491882369F190E040
:10380000880F991FFC01E458F14FA591B491FC0178
:10381000E657F14FC591D491662351F42FB7F89430
:103820008C91932F909589238C93888189230BC049
:10383000623061F42FB7F8948C91932F909589237F
:103840008C938881832B88832FBF06C09FB7F89401
:103850008C91832B8C939FBFDF91CF9108958830FB
:1038600071F1893068F4823031F1833020F4813095
:1038700009F042C01DC0833089F08430E9F512C0E0
:103880008B3059F18C3028F48930E9F08A30A1F579
:103890001EC08C3031F18E3079F529C080918000C6
:1038A0008F7703C0809180008F7D80938000089582
:1038B00084B58F7702C084B58F7D84BD08958091D3
:1038C00090008F7707C0809190008F7D03C080911A
:1038D0009000877F8093900008958091C0008F773B
:1038E00003C08091C0008F7D8093C00008958091B7
:1038F000C200877F8093C2000895FF920F931F93A9
:10390000F62E482F50E0CA018E51914FFC012491B0
:10391000CA018C53914FFC0114914A55514FFA0141
:1039200004910023C9F0222319F0822F0E942F1C3A
:10393000E02FF0E0EE0FFF1FE657F14FA591B49195
:103940009FB7F894FF2021F48C911095812302C039
:103950008C91812B8C939FBF1F910F91FF900895A5
:103960000F931F93482F50E0CA018E51914FFC01D5
:103970002491CA018C53914FFC0104914A55514F37
:10398000FA011491112319F420E030E015C022232C
:1039900019F0822F0E942F1C812F90E0880F991F11
:1039A0008856914FFC01A591B4918C9120E030E0B4
:1039B000802311F021E030E0C9011F910F9108959B
:1039C000BF92CF92DF92EF92FF920F931F93CF930C
:1039D000DF93E82EF62EB42EC7E0D0E0022F10E0E1
:1039E00087E0C82ED12CBB2059F4B6016C1B7D0B8F
:1039F000C80102C0959587956A95E2F7BC0107C09A
:103A0000B8010C2E02C0759567950A94E2F76170B3
:103A10008E2D0E947D1C8F2D61E00E947D1C8F2DBC
:103A200060E00E947D1C21979FEFCF3FD907D9F618
:103A3000DF91CF911F910F91FF90EF90DF90CF908A
:103A4000BF9008952F923F924F925F926F927F9214
:103A50008F929F92AF92BF92CF92DF92EF92FF929E
:103A60000F931F93DF93CF93CDB7DEB73B014C018C
:103A700019012A016D897E898F89988D6A197B09C0
:103A80008C099D09621A730A840A950AA40193019C
:103A90000E941C22E218F30804091509A8019701E5
:103AA0000E9470222A0D3B1D4C1D5D1DB901CA01EB
:103AB000CF91DF911F910F91FF90EF90DF90CF900A
:103AC000BF90AF909F908F907F906F905F904F903E
:103AD0003F902F900895EF92FF920F931F937B01D9
:103AE0008C01611571058105910529F420E030E014
:103AF00040E050E00BC00E94A909A80197010E9474
:103B00007022AC01CB01DA019C01AD01B901CA01FF
:103B10001F910F91FF90EF900895EF92FF920F93F6
:103B20001F937B018C01621773078407950764F468
:103B3000261B370B480B590BCA01B9010E946B1D9C
:103B4000E60EF71E081F191FB701C8011F910F913C
:103B5000FF90EF900895209114023091150280910A
:103B6000160290911702281B390B2F733070C90170
:103B700008952091140230911502809116029091BF
:103B800017022817390719F42FEF3FEF09C0E0910A
:103B90001602F0911702EC52FE4F8081282F30E080
:103BA000C9010895209114023091150280911602E6
:103BB000909117022817390719F42FEF3FEF13C020
:103BC000E0911602F0911702EC52FE4F2081809195
:103BD00016029091170201968F73907090931702BE
:103BE0008093160230E0C901089510921B021092D2
:103BF0001A0288EE93E0A0E0B0E080931C0290935C
:103C00001D02A0931E02B0931F0280E391E09093E7
:103C100019028093180208950F931F93DF93CF9397
:103C20000F92CDB7DEB78C0169838091290188237B
:103C300069F083E0BE016F5F7F4F41E050E00E947A
:103C400066181816190614F49C0107C081E090E06C
:103C5000F8019383828320E030E0C9010F90CF9177
:103C6000DF911F910F91089583E00E943B18089502
:103C7000CF93DF9312C082E00E94B7172FEF8F3FE0
:103C80009207C9F0E0911402F0911502EC52FE4F38
:103C90008083D0931502C0931402C0911402D09176
:103CA00015022196CF73D070809116029091170261
:103CB000C817D90701F7DF91CF910895FC018081E2
:103CC0008E5F808380E86CE07FE042E450E00E94F9
:103CD000E2170895FC0181819081913A59F4813273
:103CE00009F04CC080E062E271E047E050E00E94E1
:103CF000E21742C0913209F041C0803239F482E2C9
:103D000091E067E070E00E94261836C0823209F028
:103D100035C08281809329018091220190912301F5
:103D2000A0912401B0912501805B9440A040B04057
:103D300019F58091290180FD12C087E797E79093DC
:103D40000108809300082BE088E190E00FB6F8941A
:103D5000A895809360000FBE209360000DC088E19D
:103D60000FB6F89480936000109260000FBEA89583
:103D7000109201081092000881E0089580E00895F3
:103D8000FC0191818081813A31F4913089F080E0A9
:103D9000933089F40DC0813269F49B3021F4828123
:103DA00080932A0105C09A3029F4828180932B01E7
:103DB00081E0089580E00895EF92FF920F931F93A2
:103DC0008C01E62EDC01ED91FC910480F581E02D63
:103DD0000995F82ED801ED91FC910680F781E02D30
:103DE000C8016E2D09958F2D90E01F910F91FF90C6
:103DF000EF9008951092260210922A021092290242
:103E000082E491E090932802809327020895EF9234
:103E1000FF920F931F93DF93CF930F92CDB7DEB72F
:103E200089838B017A0184E0BE016F5F7F4F41E09F
:103E300050E00E94661884E4B801A7010E94661849
:103E40000F90CF91DF911F910F91FF90EF90089508
:103E500082E048E050E00E94071F0895FC011682AE
:103E60001782108611861286138614823496BF013B
:103E70000E94281F0895DC01683810F0685829C096
:103E8000E62FF0E067FF13C0E058F04081E090E0DB
:103E900002C0880F991FEA95E2F7809514962C913D
:103EA0001497282314962C93149760E012C0E453BF
:103EB000F04F6491662319F420E030E01DC067FFE5
:103EC00008C014968C9114978D7F14968C93149738
:103ED0006F77FD0190E0662321F08681861709F453
:103EE00016829F5F31969630B1F7CD011496BD01D1
:103EF0000E94281F21E030E0C9010895CF93DF938D
:103F0000DC01683810F0685825C0E62FF0E067FF44
:103F100012C0E058F04081E090E002C0880F991F85
:103F2000EA95E2F714962C911497282B14962C936B
:103F3000149760E00FC0E453F04F64916623D9F109
:103F400067FF08C014968C911497826014968C9326
:103F500014976F7716968C9116978617A9F1179676
:103F60008C911797861781F118968C911897861760
:103F700059F119968C911997861731F11A968C91EF
:103F80001A97861709F11B968C911B978617E1F0FB
:103F9000ED01E0E0F0E09E2F8E81882321F4EA0F0E
:103FA000FB1F668306C09F5F31962196E630F105C0
:103FB00091F7963049F481E090E013969C938E93AC
:103FC000129720E030E007C0CD011496BD010E9499
:103FD000281F21E030E0C901DF91CF91089580E8EA
:103FE0006EE47FE045E650E00E94E2170895FC0190
:103FF00080818F5F808380E863EB7FE049E150E060
:104000000E94E2170895CF92DF92EF92FF920F93F2
:104010001F93CF93DF937C016B018A01C0E0D0E056
:104020000FC0D6016D916D01D701ED91FC9101900A
:10403000F081E02DC7010995C80FD91F015010402C
:104040000115110571F7CE01DF91CF911F910F91ED
:10405000FF90EF90DF90CF9008955058BB27AA278C
:104060000ED04DC13ED130F043D120F031F49F3F0E
:1040700011F41EF433C10EF4E095E7FB29C1E92FDA
:104080004FD180F3BA17620773078407950718F0BA
:1040900071F49EF567C10EF4E0950B2EBA2FA02D9A
:1040A0000B01B90190010C01CA01A0011124FF27E5
:1040B000591B99F0593F50F4503E68F11A16F040E0
:1040C000A22F232F342F4427585FF3CF46953795DF
:1040D0002795A795F0405395C9F77EF41F16BA0BA4
:1040E000620B730B840BBAF09150A1F0FF0FBB1F52
:1040F000661F771F881FC2F70EC0BA0F621F731F9B
:10410000841F48F4879577956795B795F7959E3FF7
:1041100008F0B3CF9395880F08F09927EE0F979585
:10412000879508950CD0EBC0E3D040F0DAD030F0A2
:1041300021F45F3F19F0CCC0511115C1CFC0F0D0B0
:1041400098F39923C9F35523B1F3951B550BBB275E
:10415000AA2762177307840738F09F5F5F4F220F0B
:10416000331F441FAA1FA9F333D00E2E3AF0E0E804
:1041700030D091505040E695001CCAF729D0FE2F50
:1041800027D0660F771F881FBB1F261737074807E2
:10419000AB07B0E809F0BB0B802DBF01FF27935898
:1041A0005F4F2AF09E3F510568F092C0DCC05F3F30
:1041B000ECF3983EDCF3869577956795B795F79580
:1041C0009F5FC9F7880F911D9695879597F9089578
:1041D000E1E0660F771F881FBB1F62177307840714
:1041E000BA0720F0621B730B840BBA0BEE1F88F723
:1041F000E095089504D06894B111B5C0089598D0A1
:1042000088F09F5790F0B92F9927B751A0F0D1F0BF
:10421000660F771F881F991F1AF0BA95C9F712C049
:10422000B13081F09FD0B1E008959CC0672F782F06
:104230008827B85F39F0B93FCCF3869577956795B5
:10424000B395D9F73EF490958095709561957F4F21
:104250008F4F9F4F0895E89409C097FB3EF49095C7
:104260008095709561957F4F8F4F9F4F9923A9F04F
:10427000F92F96E9BB279395F695879577956795DE
:10428000B795F111F8CFFAF4BB0F11F460FF1BC022
:104290006F5F7F4F8F4F9F4F16C0882311F096E9B5
:1042A00011C0772321F09EE8872F762F05C0662363
:1042B00071F096E8862F70E060E02AF09A95660F1C
:1042C000771F881FDAF7880F9695879597F90895D5
:1042D00097F99F6780E870E060E008959FEF80ECB9
:1042E000089500240A94161617061806090608955C
:1042F00000240A9412161306140605060895092EC2
:104300000394000C11F4882352F0BB0F40F4BF2B30
:1043100011F460FF04C06F5F7F4F8F4F9F4F089570
:1043200057FD9058440F551F59F05F3F71F0479566
:10433000880F97FB991F61F09F3F79F0879508954B
:10434000121613061406551FF2CF4695F1DF08C06A
:10435000161617061806991FF1CF86957105610587
:1043600008940895E894BB2766277727CB0197F92F
:1043700008950BD0C4CFB5DF28F0BADF18F095232D
:1043800009F0A6CFABCF1124EECFCADFA0F3959FE3
:10439000D1F3950F50E0551F629FF001729FBB272C
:1043A000F00DB11D639FAA27F00DB11DAA1F649FD8
:1043B0006627B00DA11D661F829F2227B00DA11D8B
:1043C000621F739FB00DA11D621F839FA00D611D11
:1043D000221F749F3327A00D611D231F849F600D32
:1043E000211D822F762F6A2F11249F5750408AF06B
:1043F000E1F088234AF0EE0FFF1FBB1F661F771FF7
:10440000881F91505040A9F79E3F510570F060CF32
:10441000AACF5F3FECF3983EDCF3869577956795DE
:10442000B795F795E7959F5FC1F7FE2B880F911D14
:104430009695879597F90895629FD001739FF00133
:10444000829FE00DF11D649FE00DF11D929FF00D24
:10445000839FF00D749FF00D659FF00D9927729F5B
:10446000B00DE11DF91F639FB00DE11DF91FBD01E6
:10447000CF011124089597FB092E07260AD077FD56
:1044800004D049D006D000201AF4709561957F4F72
:104490000895F6F7909581959F4F0895A1E21A2E01
:1044A000AA1BBB1BFD010DC0AA1FBB1FEE1FFF1FD8
:1044B000A217B307E407F50720F0A21BB30BE40B28
:1044C000F50B661F771F881F991F1A9469F760956F
:1044D0007095809590959B01AC01BD01CF01089529
:1044E00097FB092E05260ED057FD04D0D7DF0AD042
:1044F000001C38F450954095309521953F4F4F4F13
:104500005F4F0895F6F790958095709561957F4F70
:104510008F4F9F4F0895AA1BBB1B51E107C0AA1FD5
:10452000BB1FA617B70710F0A61BB70B881F991F54
:104530005A95A9F780959095BC01CD010895EE0F8D
:10454000FF1F0590F491E02D09942F923F924F9216
:104550005F926F927F928F929F92AF92BF92CF9213
:10456000DF92EF92FF920F931F93CF93DF93CDB71C
:10457000DEB7CA1BDB0B0FB6F894DEBF0FBECDBF94
:1045800009942A88398848885F846E847D848C8465
:104590009B84AA84B984C884DF80EE80FD800C816E
:1045A0001B81AA81B981CE0FD11D0FB6F894DEBF51
:0C45B0000FBECDBFED010895F894FFCFC1
:1045BC004C563A00453A00423A002C0047414D45D2
:1045CC00204F564552002000370200000100000029
:1045DC00030100E1000000000000010100000000E8
:1045EC000C1E0320AB1DD21DB91D341E381E00003D
:0C45FC000000DC1E03207E1F3B1F2E1F52
:00000001FF
