:100000000C94A8060C94D0060C94D0060C94D00640
:100010000C94D0060C94D0060C94D0060C94D00608
:100020000C94D0060C94D0060C94D0060C94D006F8
:100030000C94D0060C94D0060C94D0060C94D006E8
:100040000C94E31B0C94D0060C949A190C94E819A8
:100050000C94D0060C94D0060C94D0060C94D006C8
:100060000C94D0060C94D0060020DCFE773F1F3E97
:1000700031284400402010000020DCFE773F1F3E66
:1000800030204080008080001010142E55385428F5
:10009000111F1E9E76FEDCFE777F5A7260E0507064
:1000A00077BF55AE54B040005723558F573A55F897
:1000B00075FADDEA55A2D53F77FF7F3F150F0100A6
:1000C00077FFDDFE54B0400077FFDFFF552355A8D2
:1000D00057FFDFFF75FE552A77FF7F3F170F01009F
:1000E00055BBDFFE74F0400077FFDFFF77FFD5A838
:1000F000552357AF57FFFD3F57FA753E170F0100C5
:1001000057BF5DFE74F0C000557A55FF77FFDDF8EC
:1001100077FFDFEF5523553F77FF5F3F150E010057
:10012000573F55BE54F0C00077FED5EA55BF5DF885
:1001300077FFDFFF77FF552A77FF7F3F170F01001B
:1001400077FFD5EE54B0400077FFDFFF75FAD5F8A2
:1001500077FFDFFF77FFFD3F77FF7F3F170F01003E
:1001600077FFD5FE74F0400077FFDFFF77FFDDF803
:1001700077FFDFFF77FFFD3F77FF7F3F170F01001E
:1001800077FFD5FE74F0C00077FFDFFF77FFDDF863
:1001900057FFDFFF77FFFD3F75FB7F3F170F010024
:1001A000572F57FE74F0C00055EA5DFF77FFDDF86A
:1001B00077FF5DFF57FFFD3F77FB753A150F010095
:1001C000572B55AE54F0C00055EA558A75FFDDF83F
:1001D00075FFDFEF57FB5D3F77FF7F3F150E010097
:1001E00057AF55AE54B0400055A2D5EA55E2D5F808
:1001F00075FFDFFF75FFF53F75FF7F3F170F0100AC
:1002000057AF55AE54B04000572F558B55FAD5F81F
:10021000552255FA75FFFD3F75FA7D3F170F010016
:10022000171D1730171D1710000E1E3C2E170E003D
:1002300000000000000000000000000000000000BE
:1002400000000000000000000000000000000000AE
:10025000000000000000000000000000000000009E
:10026000000000000000000000000000000050003E
:1002700010205020706050B05030502070205040FE
:1002800051A04400510045801503550E1522550A12
:10029000143C540850105000000000000000000002
:1002A000000000000000000000000000000000004E
:1002B000000000000000000000000000000000003E
:1002C000000000000000000000000000000000002E
:1002D000000000000000000000000000000000001E
:1002E000000000000000000000000000000000000E
:1002F00001004500110045001502050215004500EA
:100300001102550315FA550211004502552054807B
:1003100015025508553E55805000000000000000B1
:1003200000000000000000000000000000000000CD
:1003300000000000000000000000000000000000BD
:10034000000000000000000000000000000040006D
:10035000100040001000000010000000100010000D
:10036000000040000000000000000000000000004D
:10037000000044001000440001000400110045008A
:1003800051004580112355001100450011005520F2
:10039000558255805500558055A050804000400042
:1003A000000000000000000000000000000000004D
:1003B000000000000000000000000000000000003D
:1003C00001000500100000001000000000004000C7
:1003D000000040000000400000000000000000009D
:1003E0001000040051025420100000005120441855
:1003F00015000500512054001100040011005000A8
:100400001101050111034502150205021500000046
:100410001503050E153E5DBE75A3550055A0508011
:1004200015000000000000000000000000000000B7
:100430000000000000000400100004001000500044
:10044000400000000000000000000000000000006C
:1004500000000000000000000000408040004180DB
:100460004100408041004000410001001500440867
:100470001500540051004400110040001100040018
:10048000110014001120500011001400110254003A
:100490001100050015005500153B55AE55FAF5EF56
:1004A0007500140050000000000000000000000073
:1004B000000000000000000000000000000000003C
:1004C0000100010001001000010200000100050010
:1004D0000100050001000100010040000100400092
:1004E0000100400001005400110000001100000054
:1004F00005000100110000000100050001000000DE
:10050000010004000100000011000400110040007F
:1005100011000100150055805502550A55AF55BF11
:1005200077FE5400110000000000000000000000F1
:1005300000000000000000000000000000000000BB
:100540000000000000000000010004001400000092
:1005500010001000100050001000110011000400E5
:100560001100040001000400010000000000000070
:10057000000000000000000000000000000000007B
:1005800000000000000000000400143615005400B4
:100590001100000011000400110245001500550073
:1005A0001503050015000100000000000000000018
:1005B000000000000000000000000000000000003B
:1005C000000000000000000000000000000000002B
:1005D000000000000000000000000000000000001B
:1005E000000000000000000000000000000000000B
:1005F00000000000000000000000000000000000FB
:1006000000000000000000000000000001000400E5
:1006100015081000010040001100400011005000BA
:1006200001000000000000000000000000000000C9
:100630000608205F0000000000000000002F0000FE
:1006400000000700070000147F147F1400242A7F95
:100650002A12002313086462003649552250000014
:100660000503000000001C224100000041221C0084
:100670000014083E08140008083E0808000000A006
:100680006000000808080808000060600000002002
:1006900010080402003E5149453E0000427F4000E0
:1006A000004261514946002141454B310018141266
:1006B0007F10002745454539003C4A494930000133
:1006C0007109050300364949493600064949291E82
:1006D00000003636000000005636000000081422E4
:1006E00041000014141414140000412214080002E4
:1006F0000151090600324959513E007C1211127C09
:10070000007F49494936003E41414122007F414135
:10071000221C007F49494941007F09090901003E27
:100720004149497A007F0808087F0000417F410065
:10073000002040413F01007F08142241007F4040DB
:100740004040007F020C027F007F0408107F003EC3
:100750004141413E007F09090906003E4151215EA9
:10076000007F091929460046494949310001017FA6
:100770000101003F4040403F001F2040201F003F3C
:100780004038403F006314081463000708700807EE
:1007900000615149454300007F414100AA55AA55D7
:1007A000AA55000041417F000004020102040040FC
:1007B000404040400000030500000020545454789D
:1007C000007F4844443800384444442000384444BE
:1007D000487F00385454541800087E09010200185C
:1007E000A4A4A47C007F080404780000447D400099
:1007F000004080847D00007F102844000000417F7D
:100800004000007C04180478007C08040478003858
:100810004444443800FC242424180018242418FCE0
:10082000007C0804040800485454542000043F4449
:100830004020003C4040207C001C2040201C003C0C
:100840004030403C004428102844001CA0A0A07C5C
:10085000004464544C440000107C8200000000FFFF
:1008600000000000827C10000000060909060C1040
:100870002D0D00000080808080808000000000003E
:100880000103030303030301000000000000000054
:100890000000000000000000000000C0C0000000D8
:1008A0000000000002868686868686020000000020
:1008B00081C3C3C3C3C3C381000000FC7A0606061C
:1008C0000606067AFC00007EBCC0C0C0C0C0C0BC2A
:1008D0007E0000000000000000000078FC00000026
:1008E000000000000000003C7E00000002868686BA
:1008F0008686867AFC00007EBDC3C3C3C3C3C381A2
:1009000000000000028686868686867AFC0000004B
:1009100081C3C3C3C3C3C3BD7E0000FC7880808095
:1009200080808078FC000000010303030303033D83
:100930007E0000FC7A86868686868602000000009D
:1009400081C3C3C3C3C3C3BD7E0000FC7A86868651
:10095000868686020000007EBDC3C3C3C3C3C3BD79
:100960007E000000020606060606067AFC0000006D
:10097000000000000000003C7E0000FC7A868686B5
:100980008686867AFC00007EBDC3C3C3C3C3C3BDD5
:100990007E0000FC7A8686868686867AFC000000C9
:1009A00081C3C3C3C3C3C3BD7E000E182D0D000099
:1009B00000000000000000000000000000001038EF
:1009C000383838383838381000000000000000008F
:1009D0000000000000000000000000000000000017
:1009E0000000000000000000000000000000000007
:1009F00000000000000000000040E0E040000000B7
:100A00000000000002060E0E0E0E0E0E0602000082
:100A100000001038383838383838381000000000F6
:100A200080C0E0E0E0E0E0E0C080000000FCFAF61A
:100A30000E0E0E0E0E0EF6FAFC0000EFC78300003D
:100A40000000000083C7EF00007FBFDFE0E0E0E0D0
:100A5000E0E0DFBF7F0000000000000000000000B9
:100A6000F0F8FC000000000000000000000083C758
:100A7000EF00000000000000000000001F3F7F00AA
:100A8000000002060E0E0E0E0E0EF6FAFC0000E03E
:100A9000D0B83838383838383B170F00007FBFDF00
:100AA000E0E0E0E0E0E0C0800000000002060E0EA2
:100AB0000E0E0E0EF6FAFC000000103838383838EA
:100AC0003838BBD7EF00000080C0E0E0E0E0E0E0B5
:100AD000DFBF7F0000FCF8F0000000000000F0F82D
:100AE000FC00000F173B383838383838BBD7EF00D8
:100AF000000000000000000000001F3F7F0000FC1D
:100B0000FAF60E0E0E0E0E0E06020000000F173B38
:100B1000383838383838B8D0E000000080C0E0E01D
:100B2000E0E0E0E0DFBF7F0000FCFAF60E0E0E0E04
:100B30000E0E0602000000EFD7BB383838383838C0
:100B4000B8D0E000007FBFDFE0E0E0E0E0E0DFBF42
:100B50007F00000002060E0E0E0E0E0EF6FAFC00CE
:100B60000000000000000000000083C7EF0000004C
:100B700000000000000000001F3F7F0000FCFAF6AC
:100B80000E0E0E0E0E0EF6FAFC0000EFD7BB383834
:100B900038383838BBD7EF00007FBFDFE0E0E0E057
:100BA000E0E0DFBF7F0000FCFAF60E0E0E0E0E0E28
:100BB000F6FAFC00000F173B383838383838BBD706
:100BC000EF00000080C0E0E0E0E0E0E0DFBF7F0099
:100BD0000406205F00000003A000C00C00F94F8055
:100BE0006BEB00988C8052A58003000001C88089BF
:100BF000C00050850021C200084000208200002073
:100C000000188C00FA2F804BE0805A66808AA5007D
:100C1000E08F80EAAB0072A9009A8C00FAAF804A9C
:100C2000A700014000094000214880514500894249
:100C30000042660072A6807A8780FAA500722500BD
:100C4000FA2700FAA880FA8800722B00F88F808BB0
:100C5000E8808BE800F88D80F82080F90F80F9CFCC
:100C600080722700FA8400722740FA85804AA90022
:100C700083E800F02F00E06E00F0EF00D88D80C018
:100C8000EC009AAC8003E880C081808BE0004204D5
:100C900000082080020400312380F92300312480E1
:100CA000312F8031628023EA00255380F9038002CE
:100CB000E00006E000F8428003E000798780390315
:100CC000803123007D23003127C078840029400033
:100CD00043E40070270060660070670048C48074B9
:100CE000578059E68023E8800360008BE200610CA6
:100CF0000000000000240027002A0000000000255A
:100D00000028002B0000000000230026002900041A
:100D100004040404040404020202020202030303A2
:100D2000030303010204081020408001020408109C
:100D3000200102040810200000000700020100004A
:100D40000304060000000000000000008E09541B90
:100D500011241FBECFEFD8E0DEBFCDBF11E0A0E071
:100D6000B1E0E6E8F2E402C005900D92A433B107C9
:100D7000D9F712E0A4E3B1E001C01D92AF3BB10787
:100D8000E1F71DE0C0E5DDE004C02297FE010E940E
:100D90000621CC34D107C9F70E94AA1B0C9441212B
:100DA0000C940000CF93DF93BC018230910510F4C6
:100DB00062E070E0A091BD02B091BE02ED01E0E002
:100DC000F0E040E050E021C08881998186179707C4
:100DD00069F48A819B81309719F09383828304C0E0
:100DE0009093BE028093BD02FE0134C0681779075C
:100DF00038F44115510519F08417950708F4AC0132
:100E0000FE018A819B819C01E9012097E9F6411549
:100E10005105A9F1CA01861B970B049708F4BA0182
:100E2000E0E0F0E02AC08D919C911197841795071E
:100E3000F9F46417750781F412968D919C911397BC
:100E4000309719F09383828304C09093BE028093FD
:100E5000BD02FD0132964CC0CA01861B970BFD01F5
:100E6000E80FF91F6193719302978D939C9340C093
:100E7000FD01828193819C01D9011097A1F6809197
:100E8000BB029091BC02892B41F48091100190919A
:100E900011019093BC028093BB02409112015091CA
:100EA00013014115510541F44DB75EB780910E0114
:100EB00090910F01481B590B2091BB023091BC024D
:100EC000CA01821B930B8617970780F0AB014E5F18
:100ED0005F4F8417950750F0420F531F5093BC0289
:100EE0004093BB02F9016193719302C0E0E0F0E02E
:100EF000CF01DF91CF910895CF93DF93009709F44D
:100F000050C0EC0122971B821A82A091BD02B091C1
:100F1000BE02109709F140E050E0AC17BD0708F1A0
:100F2000BB83AA83FE0121913191E20FF31FAE171B
:100F3000BF0779F48D919C911197280F391F2E5F6F
:100F40003F4F3983288312968D919C9113979B83F1
:100F50008A834115510571F4D093BE02C093BD023E
:100F600020C012968D919C911397AD01009711F0BE
:100F7000DC01D3CFFA01D383C28321913191E20FF7
:100F8000F31FCE17DF0769F488819981280F391F75
:100F90002E5F3F4FFA01318320838A819B819383A7
:100FA0008283DF91CF910895A0E0B0E0EAEDF7E011
:100FB0000C941221EC01A880B980CA80DB80A114B6
:100FC000B104C104D10441F484E2A82E89EDB82E05
:100FD0008BE5C82E87E0D82EC601B5012DE133EF91
:100FE00041E050E00E94D52027EA31E440E050E0A3
:100FF0000E9475207B018C01C601B5012DE133EF04
:1010000041E050E00E94D520CA01B9012CEE34EF36
:101010004FEF5FEF0E9475206E0D7F1D801F911FA7
:1010200097FF04C061507040804090486883798386
:101030008A839B839B01AC015F77B901CA01CDB75D
:10104000DEB7EAE00C942E210E94D407089584E1D3
:1010500091E00E94D40708956093140170931501E4
:1010600080931601909317010895DC0101C06D93E0
:1010700041505040E0F70895CF93DF935091FC0129
:101080005523E1F04091A701CCEAD1E09A01340F59
:1010900089919991A991B991E22FF0E0EE0FFF1F8C
:1010A000EE0FFF1FEA5AFE4F80839183A283B38322
:1010B0002F5F231769F7450F4093A701DF91CF9169
:1010C0000895CF92DF92EF92FF921F93CF93DF9319
:1010D000182F7B016A01DA012C9122C09F01220F97
:1010E000331F220F331F2E0D3F1DE9014881598107
:1010F0006A817B813196EE0FFF1FEE0FFF1FEE0D11
:10110000FF1D80819181A281B38188839983AA8305
:10111000BB8340835183628373831F5FF601208109
:10112000E12FF0E0822F90E00197E817F907B4F281
:101130002150D6012C93DF91CF911F91FF90EF901A
:10114000DF90CF9008959C018038910580F5603440
:10115000710568F5CB019695879596958795969537
:1011600087959695982F882797958795820F931F37
:10117000E0913F01F0914001E80FF91F2081AB01A0
:1011800047705070822F90E0042E02C0959587958D
:101190000A94E2F7382F317081E090E002C0880FA6
:1011A000991F4A95E2F7282B2083832F089530E07A
:1011B000832F08952F923F925F926F927F928F922A
:1011C0009F92AF92BF92CF92DF92EF92FF920F93D6
:1011D0001F93DF93CF9300D000D000D0CDB7DEB700
:1011E0003C017A8369835C834B8379011801101673
:1011F00011060CF067C05524AA24BB241E141F043A
:101200000CF040C095013595279535952795359576
:101210002795C5018770907061E0C62ED12C02C061
:10122000CC0CDD1C8A95E2F72E9D80012F9D100DC0
:101230003E9D100D11248B819C81080F191F1E8269
:101240001D8289809A808A0C9B1CF801849190E011
:101250008C219D21181619065CF48D819E81860DC6
:10126000971DB4010E94A308882311F055245394BC
:101270008D819E8101969E838D830F5F1F4F8E15FA
:101280009F051CF30894A11CB11CA214B3040CF418
:10129000B5CF852D26960FB6F894DEBF0FBECDBF15
:1012A000CF91DF911F910F91FF90EF90DF90CF9042
:1012B000BF90AF909F908F907F906F905F903F9086
:1012C0002F9008955524E5CF0F931F93809101022D
:1012D000883709F18F5F80930102809101026AE0F3
:1012E0000E949420482F50E0440F551F429552957C
:1012F000507F5427407F542740565F4F80E090E056
:1013000063E170E028E030E000E210E00E94DA08DB
:101310001F910F91089510920102DFCF84E391E0B5
:1013200062E143E10E94DF1208959F92AF92BF9263
:10133000CF92DF92EF92FF920F931F93CF93DF93A1
:10134000EC01922E6A8348832B832983623061F0FB
:10135000DF91CF911F910F91FF90EF90DF90CF9091
:10136000BF90AF909F90089550E04F715070413101
:10137000510514F500D000D0BA01882777FD80957B
:10138000982FEDB7FEB7118212821382148220E1EA
:1013900030E040E050E0EE24FF248701F8E0AF2E7B
:1013A000B12CC12CD12C0E94FD1D0F900F900F90DD
:1013B0000F90690D6983CCCF00D000D0BA01882787
:1013C00077FD8095982F28E030E040E050E0EDB7C1
:1013D000FEB721833283438354832FE130E040E022
:1013E00050E0A0E1EA2EF12C012D112DAA24BB24FE
:1013F00065010E94FD1D0F900F900F900F90D9CFA7
:101400008F929F92AF92BF92CF92DF92EF92FF9214
:101410000F931F93CF93DF938091FD01282F30E02E
:101420002115310509F45DC0E901CC0FDD1FCC0F9A
:10143000DD1FC053DE4F982E9A940AC0995C9633F4
:1014400008F442C024979A94FFEF9F1609F449C00C
:10145000688180911D01681B962F68838A81823084
:1014600069F78B80262F30E02F71307021313105E4
:101470000CF444C000D000D0B901882777FD8095D6
:10148000982F28E030E040E050E0EDB7FEB7218330
:101490003283438354832FE130E040E050E0E0E1C9
:1014A000EE2EF12C012D112DAA24BB2465010E94E2
:1014B000FD1D0F900F900F900F90860E89829881DE
:1014C000995C963308F0BECF892D64ED71E04DEF45
:1014D00051E00E94610824979A94FFEF9F1609F04B
:1014E000B7CFDF91CF911F910F91FF90EF90DF90D9
:1014F000CF90BF90AF909F908F90089500D000D074
:10150000B901882777FD8095982FEDB7FEB7118236
:1015100012821382148220E130E040E050E0EE2499
:10152000FF248701B8E0AB2EB12CC12CD12C0E9436
:10153000FD1D0F900F900F900F90BFCFEF92FF9275
:101540000F931F93F82EE62E61E00E94581D8DE048
:1015500061E00E94581D8E2D0E948B1D892BD9F3AE
:101560008AE090E00E94851C10E000E08F2D61E091
:101570000E94581D8DE061E00E94581D8AE090E0B5
:101580000E94851C8F2D60E00E94581D8DE060E058
:101590000E94581D8E2D0E948B1D90E0012E02C0CE
:1015A000880F991F0A94E2F7080F1F5F1830F0F2B6
:1015B000802F1F910F91FF90EF900895DF92EF928F
:1015C000FF920F931F93CF93DF93082FD62EF42E05
:1015D000862F61E00E94581D8DE061E00E94581D39
:1015E0008F2D0E948B1D892BD9F38AE090E00E94F9
:1015F000851CEE24C02FD0E08F2D0E948B1D892BDF
:10160000D9F38E010E2C02C0159507950A94E2F7C6
:1016100001708D2D602F0E94581D8DE0602F0E945B
:10162000581D8F2D0E948B1D892BD9F7E39487E0DD
:101630008E1510F78D2D60E00E94581D8DE060E042
:101640000E94581DDF91CF911F910F91FF90EF9055
:10165000DF900895CF92DF92EF92FF920F931F9346
:10166000CF93DF93EC01162FE42EF22E862F642FFA
:10167000422F0E94DE0A8A816E2D4F2D0E94DE0AC3
:10168000C12EDD24C114D10401F1809118018823F9
:10169000E1F000E010E00FC089816E2D4F2D0E9417
:1016A000DE0A0F5F1F4F0C151D057CF424968091F8
:1016B0001801882351F088816E2D4F2D0E94DE0A7B
:1016C0008A81823049F78B81E8CFDF91CF911F91DA
:1016D0000F91FF90EF90DF90CF900895AF92BF925F
:1016E000CF92DF92EF92FF920F931F93CF93DF93EE
:1016F00060910002662309F073C08091060288237E
:1017000009F05EC080912101882301F1C0E0D0E0A2
:10171000F8E0CF2ED12C05C0C00ED11EC530D105AA
:10172000A9F0219684E391E0B60140E050E028E280
:1017300032E008E010E0E6E0EE2EF12C0E945B15AE
:101740008091210190E0C817D90734F384E391E038
:1017500060E071E044E250E020E030E00E94631776
:101760004091A60150E060E070E084E391E020E366
:1017700030E000E010E0EE24FF24B0E2CB2E0E9427
:10178000D11780910702882359F4DF91CF911F91DF
:101790000F91FF90EF90DF90CF90BF90AF900895A2
:1017A00084E391E067E770E040E050E020E232E05F
:1017B00008E010E0A6E0EA2EF12C0E945B15E5CFD0
:1017C00084E391E060E070E040E050E020E232E04D
:1017D00008E010E0A6E0EA2EF12C0E945B1592CF03
:1017E00000D000D070E080E090E0E0902001FF2485
:1017F00000E010E02FE730E040E050E0EDB7FEB74A
:10180000218332834383548320E030E040E050E082
:10181000AA24BB2465010E94FD1D162F0F900F9076
:101820000F900F90662361F084E391E0612F70E0E8
:1018300040E050E026E030E00E94E0141150A1F7B3
:10184000809100028150809300029FCF6F927F921F
:101850008F929F92AF92BF92CF92DF92EF92FF92C0
:101860000F931F93CF93DF933B014A010E94CA1C41
:10187000EC01C40185549E4F8C179D070CF452C097
:101880008BEB91E088199909C817D9070CF047C06C
:10189000B401882777FD8095982F0E94861F9B01B1
:1018A000AC0160E070E88DED93E40E94861E7B0140
:1018B0008C01B301882777FD8095982F0E94861FA1
:1018C000A80197010E94EB1E5B016C01BE018827F5
:1018D00077FD8095982F0E94861F9B01AC01C8015F
:1018E000B7010E94861E9B01AC01C601B5010E9492
:1018F00012200E94531F22273327261B370BC901B2
:10190000DF91CF911F910F91FF90EF90DF90CF90DB
:10191000BF90AF909F908F907F906F90089520E040
:1019200030E0EDCFCB5BD140C819D909BE01882783
:1019300077FD8095982F0E94861F5B016C01B30193
:10194000882777FD8095982F0E94861F7B018C0148
:10195000B401882777FD8095982F0E94861F9B01F0
:10196000AC0160E070E88DED93E40E94861E9B015F
:10197000AC01C801B7010E94EB1E9B01AC01C6017E
:10198000B5010E9412200E94531F9B01B8CF0F93F4
:101990001F931091A80160911F0180E170E048E25F
:1019A00050E00E94260C180F1093A8011091A90175
:1019B00060911F018FE070E048E250E00E94260C29
:1019C000181B1093A9018091A801893C80F0109206
:1019D000A801812F8650833C98F086E08093A9016E
:1019E0008091000280FF15C01F910F9108958037EC
:1019F00080F38FE68093A801812F8650833C68F79F
:101A0000183370F387E38093A9018091000280FD71
:101A1000EBCF9091AA01892F81508230A8F420E168
:101A200030E09230A9F0933001F16091A9018091EA
:101A3000A80190E070E040E950E008E010E00E946A
:101A4000DA081F910F91089528E030E0923059F79D
:101A50006091A9018091A80190E070E048E650E013
:101A600008E010E00E94DA08BFCF6091A9018091E0
:101A7000A80190E070E048E850E008E010E00E9423
:101A8000DA08B2CFEF92FF920F931F9380E992E0B2
:101A900040E855E260E070E00E94231A84E391E0A0
:101AA00060E40E94D718882309F4FFCF84E391E013
:101AB00068EC0E94D21684E391E060E00E94BD16BB
:101AC00084E391E060E070E040E050E020E332E049
:101AD00000E810E0A0E4EA2EF12C0E945B1584E3FC
:101AE00091E00E94E2160E942B1C0E942C0880E1CB
:101AF00060E00E94EC1C8FE060E00E94EC1C81E141
:101B000060E00E94EC1C8BE060E00E94EC1C82E034
:101B100060E00E94EC1C8CE061E00E94EC1C83E021
:101B200061E00E94EC1C8DE061E00E94EC1C8CE006
:101B300060E00E94581D83E060E00E94581D8DE027
:101B400060E00E94581D60ED77E080E090E00E9428
:101B50005F1C84E391E060ED7BE00E948B1488EAD7
:101B600091E061E048E02CE10E9495090E942B1C65
:101B70006093020270930302809304029093050223
:101B800081E080930602809307021F910F91FF90DE
:101B9000EF900895AF92BF92CF92DF92EF92FF92B3
:101BA0000F931F93CF93DF93F72FE82FE22EFF249D
:101BB000E114F10409F44AC0C62FD0E0DA0160E074
:101BC00070E00E2F01508F2F90E028EFC22E2FEFE4
:101BD000D22EC80ED91E10E1A12EB12CA80EB91E0E
:101BE00024C048E050E08150823068F128E030E0C5
:101BF000E92FF0E0CE01821B930B8E179F077CF438
:101C00004C0F5D1F420F531FE417F50744F4812F5B
:101C100090E0C816D9061CF48A159B05CCF06F5FBE
:101C20007F4F14966E157F058CF49C9111961C9134
:101C3000119712968C911297023098F640E150E07D
:101C40008150823098F620E130E0D2CF6FEF7FEF05
:101C5000CB01DF91CF911F910F91FF90EF90DF901B
:101C6000CF90BF90AF9008952F923F924F925F9286
:101C70006F927F928F929F92AF92BF92CF92DF929C
:101C8000EF92FF920F931F93CF93DF93182F092F9B
:101C90002B01342E622E842F622F0E949E0AF201A5
:101CA0008083832D662D0E949E0A282EF20180815A
:101CB000882309F47AC080911801882309F475C03B
:101CC000812F902F9C01E9018824992410C0089449
:101CD000811C911CF201808190E0881699060CF01D
:101CE00064C0249680911801882309F45EC0832D76
:101CF000662D0E949E0A182F832D662D0E949E0A33
:101D0000782E2A8218838B838983F2E02F16F9F6C6
:101D1000212F30E02F7130702131310534F100D0A6
:101D200000D0B901882777FD8095982F28E030E012
:101D300040E050E0EDB7FEB7218332834383548304
:101D40002FE130E040E050E0F0E1EF2EF12C012DEA
:101D5000112DAA24BB2465010E94FD1D0F900F9038
:101D60000F900F90670D6983B2CF00D000D0B901FA
:101D7000882777FD8095982FEDB7FEB711821282E4
:101D80001382148220E130E040E050E0EE24FF2492
:101D90008701E8E0AE2EB12CC12CD12C0E94FD1D94
:101DA0000F900F900F900F90DDCFDF91CF911F918B
:101DB0000F91FF90EF90DF90CF90BF90AF909F90EA
:101DC0008F907F906F905F904F903F902F900895ED
:101DD000FF920F931F93CF93DF9381E10E948B1D9E
:101DE000892B09F467C09091FC01292F30E021155F
:101DF000310509F43FC0E901CC0FDD1FCC0FDD1F19
:101E0000C855DE4FF92EFA9416C028E030E0423073
:101E100011F1433009F443C06981892F90E070E0EB
:101E200040E950E008E010E00E94DA082497FA94B4
:101E30008FEFF816F9F090911A018881980F988326
:101E400097FD25C04A81842F81508230F0F620E131
:101E500030E04230F1F66981892F90E070E048E689
:101E600050E008E010E00E94DA082497FA948FEF1F
:101E7000F81609F78091FE01882319F081508093AC
:101E8000FE01DF91CF911F910F91FF9008958F2D4B
:101E90006CEA71E04CEF51E00E946108C7CF6981A4
:101EA000892F90E070E048E850E008E010E00E94E0
:101EB000DA08BCCF9091FC0180911901981708F0C5
:101EC00094CF8091FE01882309F08FCF892F90E075
:101ED000880F991F880F991F4091A801405F845572
:101EE0009E4F63E02091A9010E9495099091FC0109
:101EF0009F5F9093FC0180911B018093FE0175CF41
:101F0000EF92FF920F931F93CF93DF938091FD0188
:101F100090E0009709F495C07C010894E108F1086D
:101F2000E701CC0FDD1FCC0FDD1FCC52DE4F1AC0F6
:101F300028E030E0923011F1933009F489C06981D2
:101F4000CA0170E040E950E008E010E00E94DA08C1
:101F5000882329F52497E114F10409F472C0089448
:101F6000E108F1088881482F50E09A81892F81503B
:101F70008230F0F620E130E09230F1F6CA0187704D
:101F8000907004970CF074C06981CA0170E048E653
:101F900050E008E010E00E94DA088823D9F28A8134
:101FA0008150823008F061C020E130E0688170E04B
:101FB000098110E0260F371F84E391E0A801085F34
:101FC0001F4F0E9412158091AA018150823008F0A3
:101FD00049C020E130E06091A80170E00091A901C2
:101FE00010E0260F371F84E391E0A801085F1F4F20
:101FF0000E941215F701EE0FFF1FEE0FFF1FEC52AC
:10200000FE4F60817181828193814CEA51E0209181
:10201000FC010E94CA0D2FEF8F3F920799F16CEAE5
:1020200071E04CEF51E00E9461088E2D64ED71E08B
:102030004DEF51E00E9461082497E114F10409F08A
:102040008ECFDF91CF911F910F91FF90EF90089568
:102050006981CA0170E048E850E008E010E00E94A1
:10206000DA0876CF28E030E0B6CF28E030E09ECF27
:102070006981CA0170E048E750E008E010E00E9482
:10208000DA0866CF9881B9818A81A091AA01A1500E
:10209000A23008F04BC040E150E08150823008F49B
:1020A0004BC028E030E0E92FF0E08091A801682FD4
:1020B00070E0CB01821B930B8E179F070CF04ACF69
:1020C000460F571F420F531FE417F5070CF042CF7E
:1020D0002B2F30E08091A901482F50E0CA010897CA
:1020E000821793070CF036CF8A01085F1F4FC80193
:1020F0000896281739070CF02DCF8091000288230D
:1021000009F028CFA230D8F420E130E0260F371FA5
:1021100084E391E00E9412158091200180930002D7
:102120008091210181508093210114CF48E050E03B
:102130008150823008F0B5CF20E130E0B4CF28E004
:1021400030E0E4CFCF92EF92FF920F931F93CF93A3
:10215000DF938091A7018823F1F1C6E5D1E0EE2459
:10216000FF241AC028E030E09230F9F0933041F1BA
:102170006981888190E070E040E950E008E010E07B
:102180000E94DA080894E11CF11C24968091A701B2
:1021900090E0E816F906FCF49A81892F815082308C
:1021A00008F720E130E0923009F76981888190E0FA
:1021B00070E048E650E008E010E00E94DA08E2CF64
:1021C0006981888190E070E048E850E008E010E024
:1021D0000E94DA08D7CF8091A6018823F1F1C6E4E6
:1021E000D1E0EE24FF241AC028E030E09230F9F06C
:1021F000933041F16981888190E070E040E950E0DE
:1022000008E010E00E94DA080894E11CF11C249612
:102210008091A60190E0E816F906FCF49A81892FD6
:102220008150823008F720E130E0923009F769816F
:10223000888190E070E048E650E008E010E00E94FD
:10224000DA08E2CF6981888190E070E048E850E0E8
:1022500008E010E00E94DA08D7CF0E9464090E94CB
:102260006E0B0E942B1CAB01BC018091020290916D
:102270000302A0910402B0910502481B590B6A0B9E
:102280007B0B84E391E020E530E000E010E0EE24F9
:10229000FF24E0E2CE2E0E94D1170E942B1C6093F7
:1022A0000202709303028093040290930502DF916F
:1022B000CF911F910F91FF90EF90CF9008957F9253
:1022C0008F929F92AF92BF92CF92DF92EF92FF9246
:1022D0000F931F938090FD0180911C01881608F0D8
:1022E0005FC08091FF01882379F081508093FF01C6
:1022F0001F910F91FF90EF90DF90CF90BF90AF9024
:102300009F908F907F900895992466E070E080E020
:1023100090E020E330E040E050E00E94681E762E1E
:10232000880C991C880C991CF401EA52FE4F82E03B
:10233000808384ED91E0880E991E8FE7F4018083FD
:102340007382718200D000D088E090E0A0E0B0E01D
:10235000EDB7FEB781839283A383B4836FE170E00E
:1023600080E090E02FE130E040E050E0F0E1EF2E3F
:10237000F12C012D112DAA24BB2465010E94FD1D05
:102380000F900F900F900F90670DF4016183809173
:10239000FD018F5F8093FD0180911E018093FF01FD
:1023A0008091FF01882309F4A3CF9FCF0F931F9340
:1023B0001092A7011092A60184E391E00E94B51843
:1023C00080912101843608F4EBC0809107028823B4
:1023D00009F0C4C00E94800F8091000280FD04C0FB
:1023E000809121018436F0F10E943C088091060220
:1023F000882309F057C00E945F110E94000A809153
:102400000702882309F08FC080912101893C08F1DF
:1024100084E391E00E94B51884E391E064E071E008
:102420004BE250E02CE130E00E94631784E391E03E
:102430000E94E21680910002882309F4B6C0815000
:102440008093000284E391E00E94E2161F910F91B5
:1024500008950E94A21084E391E00E94E2161F9169
:102460000F9108952091A601E22FF0E0EE0FFF1FDB
:10247000EE0FFF1FEA5BFE4F8091A8019091A9012A
:10248000A091AA01B091AB0180839183A283B38311
:102490002F5F2093A6010E943C08809106028823AA
:1024A00009F4A9CF81E08093180186E491E060915E
:1024B000A6014CE02BE00AE010E00E942A0B86E522
:1024C00091E06091A7014CE02BE00E942A0B84ED83
:1024D00091E06091FD014CE02BE00E942A0B80917D
:1024E000180180930602882309F485CF86E491E0E1
:1024F00066EA71E04CE02BE00E94340E86E591E044
:1025000067EA71E04CE02BE00E94340E84ED91E02C
:102510006DEF71E04CE02BE00E94340E80910702D9
:10252000882309F471CF86E491E06091A60143E02D
:1025300022E00AE010E00E942A0B86E591E060911B
:10254000A70143E022E00E942A0B84ED91E0609114
:10255000FD0143E022E00E942A0B56CF81E08093E8
:10256000180186E491E066EA71E043E022E00AE0C7
:1025700010E00E94340E86E591E067EA71E043E0E6
:1025800022E00E94340E84ED91E06DEF71E043E0B3
:1025900022E00E94340E80911801809307021ACF26
:1025A0000E94C70C0E94E80E10CF81E10E948B1D93
:1025B000892B09F050CF83E0809321014CCFFC019F
:1025C000618340838FEF82830895FC016038710539
:1025D00018F5878590E048175907F0F4CA0133E0F1
:1025E000969587953A95E1F79695982F8827979530
:1025F0008795860F971F0384F485E02DE80FF91F58
:102600004770507081E090E002C0880F991F4A9592
:10261000E2F72081282B20830895FC0160387105A2
:1026200020F5878590E048175907F8F4CA01B3E010
:1026300096958795BA95E1F79695982F882797955F
:102640008795860F971F0384F485E02DE80FF91F07
:102650004770507081E090E002C0880F991F4A9542
:10266000E2F7809520812823208308952F923F92BE
:102670004F925F926F927F928F929F92AF92BF9292
:10268000CF92DF92EF92FF920F931F93DF93CF933E
:1026900000D000D0CDB7DEB79C838B8349835A83AB
:1026A000322E232EDC0117962C911797422F50E0E3
:1026B000CA01877090701696EC91169770E0189684
:1026C0003C91892B09F088C02695269526952E9F4A
:1026D000C0011124631B7109869F3001879F700C14
:1026E000969F700C1124E4E0F0E06E0E7F1E232D07
:1026F000322DC9014C01AA24BB245BC000E010E0CC
:10270000AB81BC8116968C91169790E0FC01AE9E31
:10271000C001AF9E900DBE9E900D1124860D971D99
:102720008C0D9D1D1496ED91FC911597E80FF91FE6
:10273000E4918E2F90E0002E02C0959587950A9423
:10274000E2F71A969C911A9780FF07C0A801480DDE
:10275000591D992339F4CD010DC0A801480D591D0B
:10276000992331F48B819C81B7010E940D1305C020
:102770008B819C81B7010E94E5120F5F1F4F0830CB
:10278000110509F0BDCF0894C11CD11C0894E11CAF
:10279000F11CAB81BC8116968C9190E0C816D906CD
:1027A0000CF4ACCF0894A11CB11CE8E0F0E08E0E54
:1027B0009F1EAB81BC8117968C91869586958695D8
:1027C00090E0A816B9060CF08FC089819A819C010F
:1027D0007901CC24DD24DDCF631B71098E2F90E0BD
:1027E000FC01E49FC001E59F900DF49F900D112422
:1027F00023E0959587952A95E1F7689F5001699F99
:10280000B00C789FB00C112424E030E0A20EB31E6F
:10281000AB81BC811496ED91FC911597EA0DFB1DDF
:10282000E4914E2E552429813A81C9017C0197E01B
:10283000C92ED12C6624772448C0C2010C2C02C0BA
:10284000959587950A94E2F7EB81FC81928580FF4C
:1028500004C0992321F4CF010BC0992339F48B8153
:102860009C81B701A8010E940D1306C08B819C8139
:10287000B701A8010E94E5120894C108D108D7FE4B
:1028800011C00894A11CB11CAB81BC811496ED91C0
:10289000FC911597EA0DFB1DE4914E2E552487E01F
:1028A000C82ED12C0894811C911C0F5F1F4FEB8107
:1028B000FC81878190E0881699060CF4BECF0894BD
:1028C000611C711C0894E11CF11CAB81BC81169643
:1028D0008C9190E0681679063CF4832D922D9C0132
:1028E000890188249924E3CF0F900F900F900F90C7
:1028F000CF91DF911F910F91FF90EF90DF90CF90DC
:10290000BF90AF909F908F907F906F905F904F900F
:102910003F902F900895DC01FB0115967C936E93F8
:102920001497849116968C931697319684911796E6
:102930008C9317973196849118968C9318973196AB
:10294000E4911996EC9319971A961C920895CF93D7
:10295000DF93EC016038710580F557FD2EC08F853F
:1029600090E0481759074CF5DA01F3E0B595A795C3
:10297000FA95E1F7B695BA2FAA27B795A795A60FAE
:10298000B71F4770507081E090E002C0880F991F18
:102990004A95E2F7682F40E050E00CC0CA018A0F68
:1029A0009B1FEB85FC85E80FF91F8081862B8083B8
:1029B0004F5F5F4F421753078CF3DF91CF9108951C
:1029C000AF92BF92CF92DF92EF92FF920F931F933D
:1029D000CF93DF936C017A0159018B016038710547
:1029E000B0F457FD14C0FC01878590E048175907E3
:1029F00074F4C0E0D0E008C0AE014E0D5F1DC6010A
:102A0000B8010E94E5122196CA15DB05ACF3DF91EF
:102A1000CF911F910F91FF90EF90DF90CF90BF90DB
:102A2000AF9008958F929F92AF92BF92CF92DF9214
:102A3000EF92FF920F931F93CF93DF934C01EB0123
:102A40007A01590168012617370714F45B01E9017F
:102A5000CE14DF041CF4C60167017C0185010C1B48
:102A60001D0BC401BE01A70198010E94A714C40157
:102A7000BE01A60198010E94A71486010E191F0924
:102A8000C401BE01A70198010E94E0140F5F1F4F0F
:102A9000C401B501A70198010E94E014DF91CF9114
:102AA0001F910F91FF90EF90DF90CF90BF90AF906C
:102AB0009F908F9008952F923F924F925F926F92C6
:102AC0007F928F929F92AF92BF92CF92DF92EF92BE
:102AD000FF920F931F93DF93CF9300D000D000D0CD
:102AE000CDB7DEB72C016B837C833A832983380111
:102AF00017015A01CC24DD244DC0C60187709070A7
:102B0000F1E08F2E912C02C0880C991C8A95E2F777
:102B10002B813C81C9018C01C601E3E09595879525
:102B2000EA95E1F7869D9001879D300D969D300DC9
:102B3000112489819A81280F391F3E832D83EE2429
:102B4000FF241FC0ED81FE81849190E088219921AE
:102B50001816190634F4C201B801A5010E94E51245
:102B600005C0C201B801A5010E940D130894E11C23
:102B7000F11C0F5F1F4F2D813E812F5F3F4F3E8322
:102B80002D83E614F704F4F20894C11CD11C0894B8
:102B9000A11CB11CC214D3040CF4AFCF26960FB6FF
:102BA000F894DEBF0FBECDBFCF91DF911F910F9183
:102BB000FF90EF90DF90CF90BF90AF909F908F905D
:102BC0007F906F905F904F903F902F900895FF926D
:102BD0000F931F938C01F62EFC01818161E00E940E
:102BE000EC1CF8018181608141E02F2D0E94BB1D0A
:102BF0001F910F91FF9008950F931F938C01FC017B
:102C0000818161E00E94EC1CF801818160E00E94FA
:102C1000581DF801808161E00E94581DF8018181F2
:102C200061E00E94581DF801818160E00E94EC1C67
:102C30001F910F910895FF920F931F938C01F62E11
:102C4000FC01818161E00E94EC1CF801818161E05E
:102C50000E94581DF801808161E00E94581DF80112
:102C6000818160E00E94581DF801808160E00E942F
:102C7000581DF8018181608141E02F2D0E94BB1D0C
:102C80001F910F91FF90089582E161E00E94581D0D
:102C900083E161E00E94581DE9EBF0E080818E7FC6
:102CA000808380818D7F80838CE08093B80085E075
:102CB0008093BC000895CF93DF93EC01898160E09D
:102CC0000E94EC1C888161E00E94581D89810E944D
:102CD0008B1D0197D9F3888160E00E94581DDF9118
:102CE000CF9108951F93CF93DF93EC01162F8B8123
:102CF000882339F184EE8093BC008091BC0087FF6B
:102D0000FCCF88E78093BB0084EC8093BC0080916B
:102D1000BC0087FFFCCF1092BB0084EC8093BC000A
:102D20008091BC0087FFFCCF1093BB0084EC8093A4
:102D3000BC008091BC0087FFFCCF84E98093BC007D
:102D400018C0CE0168E70E941B16CE010E945B16D8
:102D5000CE0160E00E94E715CE010E945B16CE0115
:102D6000612F0E94E715CE010E945B16CE010E94E2
:102D7000FC15DF91CF911F910895CF93DF93EC0164
:102D8000662331F060EA0E947216CE0160EC05C045
:102D900061EA0E947216CE0168EC0E947216DF9101
:102DA000CF910895FF920F931F938C01F62E61E847
:102DB0000E947216C8016F2D0E9472161F910F910A
:102DC000FF900895FF920F931F93CF93DF93EC0131
:102DD000F89461E20E947216CE0160E00E947216C1
:102DE000CE016FE70E947216CE0162E20E94721657
:102DF000CE0160E00E947216CE0167E00E9472165A
:102E00008B818823E1F084EE8093BC008091BC002C
:102E100087FFFCCF88E78093BB0084EC8093BC00E5
:102E20008091BC0087FFFCCF80E48093BB0084ECE2
:102E30008093BC008091BC0087FFFCCF0EC0CE0108
:102E400068E70E941B16CE010E945B16CE0160E46B
:102E50000E94E715CE010E945B1600E010E0A4EC92
:102E6000FA2E1BC0EB85FC85222361F0E00FF11FD9
:102E700080818093BB00F092BC008091BC0087FFF2
:102E8000FCCF09C0E00FF11FCE0160810E94E71561
:102E9000CE010E945B160F5F1F4F8D859E852B8193
:102EA00008171907F8F2222321F084E98093BC0067
:102EB00003C0CE010E94FC157894DF91CF911F9141
:102EC0000F91FF9008958F929F92AF92BF92CF92F1
:102ED000DF92EF92FF920F931F93CF93DF936C01DA
:102EE0005B01EA014901DB010D900020E9F77D015A
:102EF0000894E108F108E61AF70AB7E24F305B07D9
:102F000079F4FC01868190E09C012E9DC0012F9DEB
:102F1000900D3E9D900D1124C0E8D0E0C81BD90B48
:102F200037E2CE30D307A1F4D60116968C9190E00B
:102F30008E9D90018F9D300D9E9D300D112480E857
:102F400090E0821B930B62E070E00E94A020EB01F6
:102F500000E010E016C0F50161915F01D601169600
:102F60008C9190E0089FA001099F500D189F500D73
:102F700011244C0F5D1FC60194010E9436130F5F90
:102F80001F4F0E151F053CF3DF91CF911F910F913D
:102F9000FF90EF90DF90CF90BF90AF909F908F9079
:102FA00008952F923F924F925F926F927F928F92ED
:102FB0009F92AF92BF92CF92DF92EF92FF920F93C8
:102FC0001F93DF93CF93CDB7DEB7E6970FB6F89494
:102FD000DEBF0FBECDBF2C014A015B0119011EAB44
:102FE0000DAB3701411551056105710511F5E1146E
:102FF000F104D9F0A0E0B0E00894E108F1089E01E6
:10300000265E3F4F05C0F901EA0FFB1FC0821196F3
:10301000AE15BF05C4F32A0F3B1F80E3F90180837F
:10302000AC0FBD1F5B961C927EC080E38A8F1B8E07
:103030007AC077FD02C0DD240AC0B094A0949094B9
:103040008094811C911CA11CB11CDD24D39400E050
:1030500010E07E010894E11CF11CC501B4012AE0D6
:1030600030E040E050E00E94D5209B01AC01F70128
:10307000E00FF11F862F805D80830F5F1F4F821A44
:10308000930AA40AB50AC501B4012AE030E040E081
:1030900050E00E94D520C901DA014C015D011814ED
:1030A00019041A041B04CCF2E00EF11EF701108281
:1030B000DD2011F08DE28A8F8D2D90E0B801680F30
:1030C000791F661577051CF040E050E012C0FE0144
:1030D0007A96E80FF91F40E050E07301E01AF10A18
:1030E000E81AF90A03C0C1924F5F5F4F4E155F05A2
:1030F000D4F3DE01A00FB11FFE017A96840F951F55
:10310000E80FF91F20E030E08C9181932F5F3F4F53
:10311000119720173107C4F3FE013196E40FF51F14
:10312000E60FF71F118EC201BE01665E7F4FA1013F
:103130002DA93EA90E946317E6960FB6F894DEBF4C
:103140000FBECDBFCF91DF911F910F91FF90EF90F8
:10315000DF90CF90BF90AF909F908F907F906F90B7
:103160005F904F903F902F900895FC0145855685C4
:103170008385948560E070E00E9435080895EF92A1
:10318000FF920F931F937B018C010E942B1CE60E74
:10319000F71E081F191F0E942B1C6E157F05800744
:1031A0009107C8F31F910F91FF90EF900895CF936F
:1031B000DF93EC01603219F06034B1F408C06F871E
:1031C0008FE1888B82E0898B80E092E007C06F8777
:1031D0008FE3888B82E1898B80E094E09E878D87E6
:1031E0000E94D2068B879C878B859C85892B11F446
:1031F00080E09CC08A818F3FD9F061E00E94EC1C86
:103200008A8161E00E94581D61E070E080E090E0FA
:103210000E94BF188A8160E00E94581D6AE070E039
:1032200080E090E00E94BF188A8161E00E94581DF2
:103230008981823149F48881833131F481E08B8343
:10324000CE010E94441605C01B82888161E00E9465
:10325000EC1CCE016EEA0E947216CE0165ED0E9452
:103260007216CE0160E80E947216CE0168EA0E94D2
:103270007216CE0168890E947216CE0163ED0E941B
:103280007216CE0160E00E947216CE0160E40E94C8
:103290007216CE016DE80E947216CE0164E10E94A2
:1032A0007216CE0160E20E947216CE0160E00E94AA
:1032B0007216CE0161EA0E947216CE0168EC0E947D
:1032C0007216CE016AED0E947216CE0169890E94C3
:1032D0007216CE0161E80E947216CE016FEC0E9458
:1032E0007216CE0169ED0E947216CE0161EF0E9446
:1032F0007216CE016BED0E947216CE0160E40E9440
:103300007216CE0164EA0E947216CE0166EA0E942D
:103310007216CE016FEA0E947216CE010E94B51895
:10332000CE010E94E2161D821C8281E0DF91CF91C6
:10333000089508951F920F920FB60F9211242F93A4
:103340003F934F938F939F93EF93FF938091C00090
:1033500082FD1DC04091C600209148023091490273
:103360002F5F3F4F2F73307080914A0290914B0234
:103370002817390771F0E0914802F0914902E85F9F
:10338000FD4F4083309349022093480202C0809150
:10339000C600FF91EF919F918F914F913F912F9197
:1033A0000F900FBE0F901F901895E0919C02F09126
:1033B0009D02E05CFF4F8191919120813181821BC0
:1033C000930B8F739070892B11F00E9499190895B7
:1033D0001F920F920FB60F9211242F933F938F934A
:1033E0009F93EF93FF9320918C0230918D028091F7
:1033F0008E0290918F022817390731F48091C10015
:103400008F7D8093C10014C0E0918E02F0918F02F5
:10341000E45BFD4F208180918E0290918F02019696
:103420008F73907090938F0280938E022093C600CA
:10343000FF91EF919F918F913F912F910F900FBE30
:103440000F901F901895AF92BF92DF92EF92FF926C
:103450000F931F93CF93DF93EC017A018B01DD244F
:10346000403081EE580780E0680780E0780711F06F
:10347000DD24D39491E0A92EB12CEC89FD89DD20C7
:1034800069F0C50108A002C0880F991F0A94E2F7ED
:10349000808360E079E08DE390E005C0108260E811
:1034A00074E88EE190E0A80197010E94B3202150BA
:1034B000304040405040569547953795279580E1DC
:1034C0002030380720F0DD2011F0DD24D6CFE88948
:1034D000F9893083EA89FB89208319A2EE89FF8963
:1034E000408121E030E0C9010C8C02C0880F991F97
:1034F0000A94E2F7482B4083EE89FF894081C90195
:103500000D8C02C0880F991F0A94E2F7482B408364
:10351000EE89FF894081C9010E8C02C0880F991F76
:103520000A94E2F7482B4083EE89FF8980810F8C53
:1035300002C0220F331F0A94E2F72095282320832C
:10354000DF91CF911F910F91FF90EF90DF90BF908F
:10355000AF900895DC011C96ED91FC911D97E05C05
:10356000FF4F2191319180819181281B390B2F735D
:103570003070C9010895DC011C96ED91FC911D97F6
:10358000E05CFF4F20813181E054F040DF01AE5B11
:10359000BF4F8D919C9111972817390719F42FEF80
:1035A0003FEF07C08D919C91E80FF91F8081282F74
:1035B00030E0C9010895DC011C96ED91FC911D9746
:1035C000E05CFF4F20813181E054F040DF01AE5BD1
:1035D000BF4F8D919C9111972817390719F42FEF40
:1035E0003FEF10C08D919C911197E80FF91F20813A
:1035F0008D919C91119701968F73907011969C9369
:103600008E9330E0C9010895DC0191968C919197D9
:10361000882339F05496ED91FC915597808186FF6F
:10362000F9CF91961C920895CF93DF93EC01EE852C
:10363000FF85E05CFF4F20813181E054F0402F5F37
:103640003F4F2F733070DF01AE5BBF4F8D919C9168
:10365000119728173907D1F3E05CFF4F80819181E2
:10366000E054F040E80FF91F6083EE85FF85E05CD1
:10367000FF4F31832083EE89FF89208181E090E034
:103680000F8C02C0880F991F0A94E2F7282B208321
:1036900081E089A3EC89FD8980818064808381E059
:1036A00090E0DF91CF9108951092930210929202D0
:1036B00088EE93E0A0E0B0E08093940290939502AE
:1036C000A0939602B093970287E291E090939102C3
:1036D0008093900288E092E090939D0280939C02F8
:1036E0008CE492E090939F0280939E0285EC90E0A0
:1036F0009093A1028093A00284EC90E09093A302A7
:103700008093A20280EC90E09093A5028093A402A3
:1037100081EC90E09093A7028093A60282EC90E067
:103720009093A9028093A80286EC90E09093AB025C
:103730008093AA0284E08093AC0283E08093AD0280
:1037400087E08093AE0285E08093AF0281E08093B2
:10375000B0020895CF93DF930E948F1C0E94420D08
:10376000C5EDD9E10E94D6112097E1F30E94D51949
:10377000F9CFCF92DF92EF92FF920F931F93CF93E7
:10378000DF937C016B018A01C0E0D0E00FC0D6015D
:103790006D916D01D701ED91FC910190F081E02DCB
:1037A000C7010995C80FD91F015010400115110517
:1037B00071F7CE01DF91CF911F910F91FF90EF90A4
:1037C000DF90CF9008951F920F920FB60F921124A1
:1037D0002F933F938F939F93AF93BF938091B602A4
:1037E0009091B702A091B802B091B9023091BA029B
:1037F0000196A11DB11D232F2D5F2D3720F02D57D0
:103800000196A11DB11D2093BA028093B602909338
:10381000B702A093B802B093B9028091B20290911E
:10382000B302A091B402B091B5020196A11DB11DE1
:103830008093B2029093B302A093B402B093B50206
:10384000BF91AF919F918F913F912F910F900FBE9C
:103850000F901F9018958FB7F8942091B602309171
:10386000B7024091B8025091B9028FBFB901CA01A5
:1038700008959FB7F8942091B2023091B30240911D
:10388000B4025091B50286B5A89B06C08F3F21F0C7
:103890002F5F3F4F4F4F5F4F9FBF542F432F322F0C
:1038A0002227280F311D411D511D82E0220F331F99
:1038B000441F551F8A95D1F7B901CA010895EF92A7
:1038C000FF920F931F93CF93DF937B018C010E9494
:1038D000391CEB010EC00E94391C6C1B7D0B685E0D
:1038E0007340C8F30894E108F10801091109C851AF
:1038F000DC4FE114F1040105110569F7DF91CF9167
:103900001F910F91FF90EF900895019739F0880F64
:10391000991F880F991F02970197F1F708957894DE
:1039200084B5826084BD84B5816084BD85B58260C4
:1039300085BD85B5816085BDEEE6F0E08081816062
:103940008083E1E8F0E01082808182608083808162
:1039500081608083E0E8F0E0808181608083E1EB3A
:10396000F0E0808184608083E0EBF0E08081816022
:103970008083EAE7F0E080818460808380818260D8
:1039800080838081816080838081806880831092C1
:10399000C1000895982F8E3008F09E509770809146
:1039A00022018295880F880F807C892B80937C0070
:1039B00080917A00806480937A0080917A0086FDFD
:1039C000FCCF2091780040917900942F80E030E086
:1039D000282B392BC9010895CF93DF93482F50E04E
:1039E000CA018D5D924FFC013491415F524FFA0143
:1039F0008491882369F190E0880F991FFC01EF50B2
:103A0000F34FA591B491FC01E550F34FC591D491CA
:103A1000662351F42FB7F8948C91932F90958923B6
:103A20008C93888189230BC0623061F42FB7F8949E
:103A30008C91932F909589238C938881832B8883F5
:103A40002FBF06C09FB7F8948C91832B8C939FBF98
:103A5000DF91CF910895833071F0843028F4813064
:103A6000A1F0823021F514C08630B1F08730D1F05A
:103A70008430E9F404C0809180008F7703C0809186
:103A800080008F7D80938000089584B58F7702C079
:103A900084B58F7D84BD08958091B0008F77809329
:103AA000B00008958091B0008F7D8093B00008959C
:103AB000FF920F931F93F62E482F50E0CA01895CA6
:103AC000924FFC012491CA018D5D924FFC0114912B
:103AD000415F524FFA0104910023C9F0222319F0EB
:103AE000822F0E942B1DE02FF0E0EE0FFF1FE5500C
:103AF000F34FA591B4919FB7F894FF2021F48C91D6
:103B00001095812302C08C91812B8C939FBF1F91B4
:103B10000F91FF9008950F931F93482F50E0CA0113
:103B2000895C924FFC012491CA018D5D924FFC018A
:103B30000491415F524FFA011491112319F420E0CE
:103B400030E015C0222319F0822F0E942B1D812FF7
:103B500090E0880F991F8B5F924FFC01A591B49163
:103B60008C9120E030E0802311F021E030E0C901A9
:103B70001F910F910895BF92CF92DF92EF92FF9223
:103B80000F931F93CF93DF93E82EF62EB42EC7E04A
:103B9000D0E0022F10E087E0C82ED12CBB2059F4D2
:103BA000B6016C1B7D0BC80102C0959587956A957F
:103BB000E2F7BC0107C0B8010C2E02C075956795ED
:103BC0000A94E2F761708E2D0E94581D8F2D61E0DE
:103BD0000E94581D8F2D60E00E94581D21979FEF75
:103BE000CF3FD907D9F6DF91CF911F910F91FF9069
:103BF000EF90DF90CF90BF9008952F923F924F9219
:103C00005F926F927F928F929F92AF92BF92CF926C
:103C1000DF92EF92FF920F931F93DF93CF93CDB775
:103C2000DEB73B014C0119012A016D897E898F891C
:103C3000988D6A197B098C099D09621A730A840A96
:103C4000950AA40193010E947520E218F308040963
:103C50001509A80197010E94D5202A0D3B1D4C1D76
:103C60005D1DB901CA01CF91DF911F910F91FF90A6
:103C7000EF90DF90CF90BF90AF909F908F907F900C
:103C80006F905F904F903F902F900895EF92FF922A
:103C90000F931F937B018C016115710581059105BF
:103CA00029F420E030E040E050E00BC00E942708FB
:103CB000A80197010E94D520AC01CB01DA019C013B
:103CC000AD01B901CA011F910F91FF90EF900895C6
:103CD000EF92FF920F931F937B018C016217730782
:103CE0008407950764F4261B370B480B590BCA0150
:103CF000B9010E94461EE60EF71E081F191FB701E4
:103D0000C8011F910F91FF90EF9008955058BB2765
:103D1000AA270ED04DC13ED130F043D120F031F46E
:103D20009F3F11F41EF433C10EF4E095E7FB29C167
:103D3000E92F4FD180F3BA176207730784079507FD
:103D400018F071F49EF567C10EF4E0950B2EBA2FB2
:103D5000A02D0B01B90190010C01CA01A001112491
:103D6000FF27591B99F0593F50F4503E68F11A163D
:103D7000F040A22F232F342F4427585FF3CF4695CE
:103D800037952795A795F0405395C9F77EF41F16F0
:103D9000BA0B620B730B840BBAF09150A1F0FF0FBA
:103DA000BB1F661F771F881FC2F70EC0BA0F621FA6
:103DB000731F841F48F4879577956795B795F79596
:103DC0009E3F08F0B3CF9395880F08F09927EE0F28
:103DD0009795879508950CD0EBC0E3D040F0DAD0EA
:103DE00030F021F45F3F19F0CCC0511115C1CFC0A4
:103DF000F0D098F39923C9F35523B1F3951B550BD4
:103E0000BB27AA2762177307840738F09F5F5F4FAD
:103E1000220F331F441FAA1FA9F333D00E2E3AF0EE
:103E2000E0E830D091505040E695001CCAF729D008
:103E3000FE2F27D0660F771F881FBB1F2617370757
:103E40004807AB07B0E809F0BB0B802DBF01FF2787
:103E500093585F4F2AF09E3F510568F092C0DCC036
:103E60005F3FECF3983EDCF3869577956795B795C1
:103E7000F7959F5FC9F7880F911D9695879597F9DC
:103E80000895E1E0660F771F881FBB1F6217730755
:103E90008407BA0720F0621B730B840BBA0BEE1F6A
:103EA00088F7E095089504D06894B111B5C00895DD
:103EB00098D088F09F5790F0B92F9927B751A0F06C
:103EC000D1F0660F771F881F991F1AF0BA95C9F7AE
:103ED00012C0B13081F09FD0B1E008959CC0672F2F
:103EE000782F8827B85F39F0B93FCCF3869577955E
:103EF0006795B395D9F73EF4909580957095619547
:103F00007F4F8F4F9F4F0895E89409C097FB3EF471
:103F100090958095709561957F4F8F4F9F4F992316
:103F2000A9F0F92F96E9BB279395F6958795779594
:103F30006795B795F111F8CFFAF4BB0F11F460FF54
:103F40001BC06F5F7F4F8F4F9F4F16C0882311F0AC
:103F500096E911C0772321F09EE8872F762F05C0C0
:103F6000662371F096E8862F70E060E02AF09A955B
:103F7000660F771F881FDAF7880F9695879597F950
:103F8000089597F99F6780E870E060E008959FEFDB
:103F900080EC089500240A941616170618060906E0
:103FA000089500240A9412161306140605060895AF
:103FB000092E0394000C11F4882352F0BB0F40F437
:103FC000BF2B11F460FF04C06F5F7F4F8F4F9F4F77
:103FD000089557FD9058440F551F59F05F3F71F0F9
:103FE0004795880F97FB991F61F09F3F79F0879560
:103FF0000895121613061406551FF2CF4695F1DFE9
:1040000008C0161617061806991FF1CF8695710578
:10401000610508940895E894BB2766277727CB01AC
:1040200097F908950BD0C4CFB5DF28F0BADF18F0A8
:10403000952309F0A6CFABCF1124EECFCADFA0F3B2
:10404000959FD1F3950F50E0551F629FF001729F2D
:10405000BB27F00DB11D639FAA27F00DB11DAA1F4C
:10406000649F6627B00DA11D661F829F2227B00D99
:10407000A11D621F739FB00DA11D621F839FA00D24
:10408000611D221F749F3327A00D611D231F849F74
:10409000600D211D822F762F6A2F11249F575040CB
:1040A0008AF0E1F088234AF0EE0FFF1FBB1F661F66
:1040B000771F881F91505040A9F79E3F510570F01F
:1040C00060CFAACF5F3FECF3983EDCF386957795FF
:1040D0006795B795F795E7959F5FC1F7FE2B880F1A
:1040E000911D9695879597F90895629FD001739FCA
:1040F000F001829FE00DF11D649FE00DF11D929F84
:10410000F00D839FF00D749FF00D659FF00D9927C2
:10411000729FB00DE11DF91F639FB00DE11DF91FE6
:10412000BD01CF0111240895991B79E004C0991FA6
:10413000961708F0961B881F7A95C9F78095089501
:1041400097FB092E07260AD077FD04D049D006D068
:1041500000201AF4709561957F4F0895F6F79095B9
:1041600081959F4F0895A1E21A2EAA1BBB1BFD014A
:104170000DC0AA1FBB1FEE1FFF1FA217B307E40746
:10418000F50720F0A21BB30BE40BF50B661F771F9E
:10419000881F991F1A9469F760957095809590957E
:1041A0009B01AC01BD01CF01089597FB092E0526A7
:1041B0000ED057FD04D0D7DF0AD0001C38F450953C
:1041C0004095309521953F4F4F4F5F4F0895F6F73B
:1041D00090958095709561957F4F8F4F9F4F089573
:1041E000AA1BBB1B51E107C0AA1FBB1FA617B7071D
:1041F00010F0A61BB70B881F991F5A95A9F7809539
:104200009095BC01CD010895EE0FFF1F0590F4912C
:10421000E02D09942F923F924F925F926F927F927E
:104220008F929F92AF92BF92CF92DF92EF92FF92C6
:104230000F931F93CF93DF93CDB7DEB7CA1BDB0B72
:104240000FB6F894DEBF0FBECDBF09942A88398817
:1042500048885F846E847D848C849B84AA84B9841E
:10426000C884DF80EE80FD800C811B81AA81B9812A
:10427000CE0FD11D0FB6F894DEBF0FBECDBFED013E
:064280000895F894FFCF41
:104286006E703A0047414D45204F5645520020007A
:10429600BF02000001000000010305060501140528
:1042A60064030100000000141BB91BAA1ADB1ABB29
:0442B6001A041B00CB
:00000001FF
