:100000000C94FF050C9427060C9427060C942706E5
:100010000C9427060C9427060C9427060C942706AC
:100020000C9427060C9427060C9427060C9427069C
:100030000C9427060C9427060C9427060C9427068C
:100040000C9485140C9427060C9427060C94270610
:100050000C9427060C9427060C9427060C9427066C
:100060000C9427060C9427060020DCFE773F1F3EE9
:1000700031284400402010000020DCFE773F1F3E66
:1000800030204080008080001010142E55385428F5
:10009000111F1E9E76FEDCFE777F5A7260E0507064
:1000A000000E1E3C2E170E0054E840804000000059
:1000B00055EE55AB5488400055EE55BF55EE55F8FA
:1000C00055EE55BF55EE55FF55EE55FF55EE55FF14
:1000D00055AE55FF55AE550155EE550F05000000C4
:1000E0000000000000000000000000000000000010
:1000F0000000000000000000000000000000000000
:1001000000000000000000000000000000000000EF
:10011000000000000000000000000000000050008F
:1001200010205020706050B050305020702050404F
:1001300051A04400510045801503550E1522550A63
:10014000143C540850105000000000000000000053
:10015000000000000000000000000000000000009F
:10016000000000000000000000000000000000008F
:10017000000000000000000000000000000000007F
:10018000000000000000000000000000000000006F
:10019000000000000000000000000000000000005F
:1001A000010045001100450015020502150045003B
:1001B0001102550315FA55021100450255205480CD
:1001C00015025508553E5580500000000000000003
:1001D000000000000000000000000000000000001F
:1001E000000000000000000000000000000000000F
:1001F00000000000000000000000000000004000BF
:10020000100040001000000010000000100010005E
:10021000000040000000000000000000000000009E
:1002200000004400100044000100040011004500DB
:100230005100458011235500110045001100552043
:10024000558255805500558055A050804000400093
:10025000000000000000000000000000000000009E
:10026000000000000000000000000000000000008E
:100270000100050010000000100000000000400018
:1002800000004000000040000000000000000000EE
:1002900010000400510254201000000051204418A6
:1002A00015000500512054001100040011005000F9
:1002B0001101050111034502150205021500000098
:1002C0001503050E153E5DBE75A3550055A0508063
:1002D0001500000000000000000000000000000009
:1002E0000000000000000400100004001000500096
:1002F00040000000000000000000000000000000BE
:10030000000000000000000000004080400041802C
:1003100041004080410040004100010015004408B8
:100320001500540051004400110040001100040069
:10033000110014001120500011001400110254008B
:100340001100050015005500153B55AE55FAF5EFA7
:1003500075001400500000000000000000000000C4
:10036000000000000000000000000000000000008D
:100370000100010001001000010200000100050061
:1003800001000500010001000100400001004000E3
:1003900001004000010054001100000011000000A5
:1003A000050001001100000001000500010000002F
:1003B00001000400010000001100040011004000D1
:1003C00011000100150055805502550A55AF55BF63
:1003D00077FE540011000000000000000000000043
:1003E000000000000000000000000000000000000D
:1003F00000000000000000000100040014000000E4
:100400001000100010005000100011001100040036
:1004100011000400010004000100000000000000C1
:1004200000000000000000000000000000000000CC
:100430000000000000000000040014361500540005
:1004400011000000110004001102450015005500C4
:100450001503050015000100000000000000000069
:10046000000000000000000000000000000000008C
:10047000000000000000000000000000000000007C
:10048000000000000000000000000000000000006C
:10049000000000000000000000000000000000005C
:1004A000000000000000000000000000000000004C
:1004B0000000000000000000000000000100040037
:1004C000150810000100400011004000110050000C
:1004D000010000000000000000000000000000001B
:1004E0000608205F0000000000000000002F000050
:1004F00000000700070000147F147F1400242A7FE7
:100500002A12002313086462003649552250000065
:100510000503000000001C224100000041221C00D5
:100520000014083E08140008083E0808000000A057
:100530006000000808080808000060600000002053
:1005400010080402003E5149453E0000427F400031
:10055000004261514946002141454B3100181412B7
:100560007F10002745454539003C4A494930000184
:100570007109050300364949493600064949291ED3
:100580000000363600000000563600000008142235
:100590004100001414141414000041221408000235
:1005A0000151090600324959513E007C1211127C5A
:1005B000007F49494936003E41414122007F414187
:1005C000221C007F49494941007F09090901003E79
:1005D0004149497A007F0808087F0000417F4100B7
:1005E000002040413F01007F08142241007F40402D
:1005F0004040007F020C027F007F0408107F003E15
:100600004141413E007F09090906003E4151215EFA
:10061000007F091929460046494949310001017FF7
:100620000101003F4040403F001F2040201F003F8D
:100630004038403F0063140814630007087008073F
:1006400000615149454300007F414100AA55AA5528
:10065000AA55000041417F0000040201020400404D
:1006600040404040000003050000002054545478EE
:10067000007F48444438003844444420003844440F
:10068000487F00385454541800087E0901020018AD
:10069000A4A4A47C007F080404780000447D4000EA
:1006A000004080847D00007F102844000000417FCE
:1006B0004000007C04180478007C080404780038AA
:1006C0004444443800FC242424180018242418FC32
:1006D000007C0804040800485454542000043F449B
:1006E0004020003C4040207C001C2040201C003C5E
:1006F0004030403C004428102844001CA0A0A07CAE
:10070000004464544C440000107C8200000000FF50
:1007100000000000827C10000000060909060C1091
:100720002D0D00000080808080808000000000008F
:1007300001030303030303010000000000000000A5
:100740000000000000000000000000C0C000000029
:100750000000000002868686868686020000000071
:1007600081C3C3C3C3C3C381000000FC7A0606066D
:100770000606067AFC00007EBCC0C0C0C0C0C0BC7B
:100780007E0000000000000000000078FC00000077
:10079000000000000000003C7E000000028686860B
:1007A0008686867AFC00007EBDC3C3C3C3C3C381F3
:1007B00000000000028686868686867AFC0000009D
:1007C00081C3C3C3C3C3C3BD7E0000FC78808080E7
:1007D00080808078FC000000010303030303033DD5
:1007E0007E0000FC7A8686868686860200000000EF
:1007F00081C3C3C3C3C3C3BD7E0000FC7A868686A3
:10080000868686020000007EBDC3C3C3C3C3C3BDCA
:100810007E000000020606060606067AFC000000BE
:10082000000000000000003C7E0000FC7A86868606
:100830008686867AFC00007EBDC3C3C3C3C3C3BD26
:100840007E0000FC7A8686868686867AFC0000001A
:1008500081C3C3C3C3C3C3BD7E000E182D0D0000EA
:100860000000000000000000000000000000103840
:1008700038383838383838100000000000000000E0
:100880000000000000000000000000000000000068
:100890000000000000000000000000000000000058
:1008A00000000000000000000040E0E04000000008
:1008B0000000000002060E0E0E0E0E0E06020000D4
:1008C0000000103838383838383838100000000048
:1008D00080C0E0E0E0E0E0E0C080000000FCFAF66C
:1008E0000E0E0E0E0E0EF6FAFC0000EFC78300008F
:1008F0000000000083C7EF00007FBFDFE0E0E0E022
:10090000E0E0DFBF7F00000000000000000000000A
:10091000F0F8FC000000000000000000000083C7A9
:10092000EF00000000000000000000001F3F7F00FB
:10093000000002060E0E0E0E0E0EF6FAFC0000E08F
:10094000D0B83838383838383B170F00007FBFDF51
:10095000E0E0E0E0E0E0C0800000000002060E0EF3
:100960000E0E0E0EF6FAFC0000001038383838383B
:100970003838BBD7EF00000080C0E0E0E0E0E0E006
:10098000DFBF7F0000FCF8F0000000000000F0F87E
:10099000FC00000F173B383838383838BBD7EF0029
:1009A000000000000000000000001F3F7F0000FC6E
:1009B000FAF60E0E0E0E0E0E06020000000F173B8A
:1009C000383838383838B8D0E000000080C0E0E06F
:1009D000E0E0E0E0DFBF7F0000FCFAF60E0E0E0E56
:1009E0000E0E0602000000EFD7BB38383838383812
:1009F000B8D0E000007FBFDFE0E0E0E0E0E0DFBF94
:100A00007F00000002060E0E0E0E0E0EF6FAFC001F
:100A10000000000000000000000083C7EF0000009D
:100A200000000000000000001F3F7F0000FCFAF6FD
:100A30000E0E0E0E0E0EF6FAFC0000EFD7BB383885
:100A400038383838BBD7EF00007FBFDFE0E0E0E0A8
:100A5000E0E0DFBF7F0000FCFAF60E0E0E0E0E0E79
:100A6000F6FAFC00000F173B383838383838BBD757
:100A7000EF00000080C0E0E0E0E0E0E0DFBF7F00EA
:100A80000406205F00000003A000C00C00F94F80A6
:100A90006BEB00988C8052A58003000001C8808910
:100AA000C00050850021C2000840002082000020C4
:100AB00000188C00FA2F804BE0805A66808AA500CF
:100AC000E08F80EAAB0072A9009A8C00FAAF804AEE
:100AD000A70001400009400021488051450089429B
:100AE0000042660072A6807A8780FAA5007225000F
:100AF000FA2700FAA880FA8800722B00F88F808B02
:100B0000E8808BE800F88D80F82080F90F80F9CF1D
:100B100080722700FA8400722740FA85804AA90073
:100B200083E800F02F00E06E00F0EF00D88D80C069
:100B3000EC009AAC8003E880C081808BE000420426
:100B400000082080020400312380F9230031248032
:100B5000312F8031628023EA00255380F90380021F
:100B6000E00006E000F8428003E000798780390366
:100B7000803123007D23003127C078840029400084
:100B800043E40070270060660070670048C480740A
:100B9000578059E68023E8800360008BE200610CF7
:100BA0000000000000240027002A000000000025AB
:100BB0000028002B0000000000230026002900046C
:100BC00004040404040404020202020202030303F4
:100BD00003030301020408102040800102040810EE
:100BE000200102040810200000000700020100009C
:100BF0000304060000000000000000005309112457
:100C00001FBECFEFD8E0DEBFCDBF11E0A0E0B1E066
:100C1000EEE9F3E302C005900D92A631B107D9F7D2
:100C200011E0A6E1B1E001C01D92AA38B107E1F7D9
:100C30001BE0CEEFDBE004C02297FE010E94921978
:100C4000CC3FD107C9F70E9476140C94CD190C94AF
:100C50000000CF93DF93BC018230910510F462E075
:100C600070E0A0918801B0918901ED01E0E0F0E031
:100C700040E050E021C0888199818617970769F488
:100C80008A819B81309719F09383828304C090936B
:100C9000890180938801FE0134C06817790738F410
:100CA0004115510519F08417950708F4AC01FE01B0
:100CB0008A819B819C01E9012097E9F64115510544
:100CC000A9F1CA01861B970B049708F4BA01E0E06A
:100CD000F0E02AC08D919C91119784179507F9F443
:100CE0006417750781F412968D919C911397309734
:100CF00019F09383828304C09093890180938801C3
:100D0000FD0132964CC0CA01861B970BFD01E80F0E
:100D1000F91F6193719302978D939C9340C0FD01DD
:100D2000828193819C01D9011097A1F6809186015F
:100D300090918701892B41F480910C0190910D01D4
:100D4000909387018093860140910E0150910F018D
:100D50004115510541F44DB75EB780910A0190915C
:100D60000B01481B590B2091860130918701CA0164
:100D7000821B930B8617970780F0AB014E5F5F4F86
:100D80008417950750F0420F531F509387014093EB
:100D90008601F9016193719302C0E0E0F0E0CF01B8
:100DA000DF91CF910895CF93DF93009709F450C05E
:100DB000EC0122971B821A82A0918801B0918901CF
:100DC000109709F140E050E0AC17BD0708F1BB8374
:100DD000AA83FE0121913191E20FF31FAE17BF07E5
:100DE00079F48D919C911197280F391F2E5F3F4FF9
:100DF0003983288312968D919C9113979B838A83C4
:100E00004115510571F4D0938901C093880120C028
:100E100012968D919C911397AD01009711F0DC0112
:100E2000D3CFFA01D383C28321913191E20FF31F13
:100E3000CE17DF0769F488819981280F391F2E5F4B
:100E40003F4FFA01318320838A819B819383828380
:100E5000DF91CF910895A0E0B0E0E1E3F7E00C94DA
:100E60009E19EC01A880B980CA80DB80A114B1046E
:100E7000C104D10441F484E2A82E89EDB82E8BE59B
:100E8000C82E87E0D82EC601B5012DE133EF41E031
:100E900050E00E943F1927EA31E440E050E00E9410
:100EA0000D197B018C01C601B5012DE133EF41E045
:100EB00050E00E943F19CA01B9012CEE34EF4FEF08
:100EC0005FEF0E940D196E0D7F1D801F911F97FF10
:100ED00004C06150704080409048688379838A8361
:100EE0009B839B01AC015F77B901CA01CDB7DEB727
:100EF000EAE00C94BA190E942B07089580E191E072
:100F00000E942B0708956093100170931101809344
:100F10001201909313010895DC0101C06D934150BB
:100F20005040E0F70895FC016230B1F0633061F0A9
:100F3000613009F0089580E990E09583848380E131
:100F4000838388E08283089588E890E09583848392
:100F500088E083838283089588E690E09583848384
:100F600088E790E09783868380E1838388E08283AB
:100F700008954F925F926F927F928F929F92AF925D
:100F8000BF92CF92DF92EF92FF920F931F93DF9366
:100F9000CF93CDB7DEB729970FB6F894DEBF0FBE5B
:100FA000CDBF3C01A62EBB2482E0A816B1040CF4F0
:100FB00051C0850191E0E92EF12C89E0882E912C19
:100FC000860C971C6E010894C11CD11CC5018E199A
:100FD0009F0918161906ACF5F301B40141E050E081
:100FE0009081DB018C91981709F44BC0981708F594
:100FF00096012F0189E0D2010D902D01D9010D92AA
:101000009D018150C1F79F012B0189E0D2010D9014
:101010002D01D9010D929D018150C1F79B0126013F
:1010200089E0D2010D902D01D9010D929D018150D1
:10103000C1F74F5F5F4F3996675F7F4F401751078A
:1010400079F60894E11CF11C0150104001301105A3
:1010500009F0BCCF29960FB6F894DEBF0FBECDBF06
:10106000CF91DF911F910F91FF90EF90DF90CF9084
:10107000BF90AF909F908F907F906F905F904F90B8
:10108000089591818285981708F4B2CF4F5F5F4F22
:101090003996675F7F4F4017510709F0A1CFD1CF35
:1010A0004F925F926F927F928F929F92AF92BF9278
:1010B000CF92DF92EF92FF920F931F93DF93CF9324
:1010C000CDB7DEB729970FB6F894DEBF0FBECDBF00
:1010D0003C01A62EBB2482E0A816B1040CF451C03A
:1010E000850131E0E32EF12C29E0822E912C860C33
:1010F000971C6E010894C11CD11CC5018E199F0953
:1011000018161906ACF5F301B40141E050E09081E6
:10111000DB018C91981709F44BC0891708F59601EB
:101120002F0189E0D2010D902D01D9010D929D0171
:101130008150C1F79F012B0189E0D2010D902D0153
:10114000D9010D929D018150C1F79B01260189E0D3
:10115000D2010D902D01D9010D929D018150C1F751
:101160004F5F5F4F3996675F7F4F4017510779F6A2
:101170000894E11CF11C015010400130110509F0E8
:10118000BCCF29960FB6F894DEBF0FBECDBFCF916E
:10119000DF911F910F91FF90EF90DF90CF90BF9064
:1011A000AF909F908F907F906F905F904F90089539
:1011B00091818285891708F4B2CF4F5F5F4F3996CE
:1011C000675F7F4F4017510709F0A1CFD1CFAF9292
:1011D000BF92CF92DF92EF92FF920F931F93DF9314
:1011E000CF93CDB7DEB729970FB6F894DEBF0FBE09
:1011F000CDBF0983A12F1A832B833C834D835E834C
:101200006F8378878987532F422FDD24C114D1043F
:1012100009F447C010E0F70160E070E0E52EFF241C
:10122000B0E0A42EBB248081482F50E08381282F7A
:1012300030E0C801821B930B8417950764F52E0DCF
:101240003F1D200F311F421753072CF58181482F76
:1012500050E08281282F30E0CD01821B930B841750
:101260009507CCF42A0F3B1F2A0D3B1D421753074D
:1012700094F4862F29960FB6F894DEBF0FBECDBF2B
:10128000CF91DF911F910F91FF90EF90DF90CF9062
:10129000BF90AF9008956F5F7F4F39966C157D05B5
:1012A00014F28FEFE7CF86E191E062E143E10E9423
:1012B000870D08952F923F925F926F927F928F9247
:1012C0009F92AF92BF92CF92DF92EF92FF920F93D5
:1012D0001F93DF93CF9300D000D000D0CDB7DEB7FF
:1012E0003C017A8369835C834B8379011801101672
:1012F00011060CF069C0AA24BB2455241E141F0437
:101300000CF042C095013595279535952795359573
:101310002795C5018770907041E0C42ED12C02C082
:10132000CC0CDD1C8A95E2F72E9D80012F9D100DBF
:101330003E9D100D11248B819C81080F191F1E8268
:101340001D8289809A808A0C9B1CF801849190E010
:101350008C219D21181619066CF46D817E81660D15
:10136000771D86E191E0A4010E94DE0D882311F033
:10137000552453948D819E8101969E838D830F5FAA
:101380001F4F8E159F050CF30894A11CB11CA214CD
:10139000B3040CF4B3CF852D26960FB6F894DEBFB8
:1013A0000FBECDBFCF91DF911F910F91FF90EF90B6
:1013B000DF90CF90BF90AF909F908F907F906F9075
:1013C0005F903F902F9008955524E5CF0F931F9382
:1013D000CF93DF9381E10E942316892B09F063C02C
:1013E000909179019330B8F1892F90E00097D9F06E
:1013F0000197EC01CC0FDD1FCC0FDD1FCC0FDD1FE3
:10140000C80FD91FCF5CDE4F88818B5F888387FF31
:1014100016C080917901815080937901299781E0EC
:10142000C832D80789F780917B01882319F0815051
:1014300080937B01DF91CF911F910F910895698176
:101440004C815D812B810A8190E070E030E010E0FA
:101450000E945A09E3CF80917B01882329F6892FC6
:1014600090E0FC01EE0FFF1FEE0FFF1FEE0FFF1FBE
:10147000E80FF91FEF5CFE4F80912801805F8083A9
:10148000809129018183CF0163E00E9493076091DD
:1014900079016F5F6093790181E391E00E945008C8
:1014A00083E080937B01909179019ECFAF92BF92B0
:1014B000CF92DF92EF92FF920F931F93CF93DF9320
:1014C000A82EBB24A114B104D9F0C0E0D0E0CC24F4
:1014D000DD2486E191E0B60140E050E020EA30E012
:1014E00008E010E0F6E0EF2EF12C0E943810219673
:1014F000CA15DB052CF4C00ED11EC530D10549F745
:1015000086E191E060E071E04CE150E020E030E005
:101510000E94401286E191E041E050E060E070E01E
:1015200028E230E000E010E0EE24FF24E0E2CE2EDE
:101530000E94AE1286E191E064E071E040E350E089
:1015400020E030E00E94401240917A0150E060E0DB
:1015500070E086E191E028E330E00E94AE1286E17F
:1015600091E067E071E040E450E020E030E00E946C
:1015700040124091790150E060E070E086E191E036
:1015800028E430E00E94AE12DF91CF911F910F91BD
:10159000FF90EF90DF90CF90BF90AF9008956F9243
:1015A0007F928F929F92AF92BF92CF92DF92EF92F3
:1015B000FF920F931F93CF93DF933B014A010E9449
:1015C0006215EC01C40185549E4F8C179D070CF4E5
:1015D00052C08BEB91E088199909C817D9070CF014
:1015E00047C0B401882777FD8095982F0E941E1868
:1015F0009B01AC0160E070E88DED93E40E941E1742
:101600007B018C01B301882777FD8095982F0E947C
:101610001E18A80197010E9483175B016C01BE018F
:10162000882777FD8095982F0E941E189B01AC019A
:10163000C801B7010E941E179B01AC01C601B5018C
:101640000E94AA180E94EB1722273327261B370B6C
:10165000C901DF91CF911F910F91FF90EF90DF9023
:10166000CF90BF90AF909F908F907F906F90089594
:1016700020E030E0EDCFCB5BD140C819D909BE01E5
:10168000882777FD8095982F0E941E185B016C01BA
:10169000B301882777FD8095982F0E941E187B0143
:1016A0008C01B401882777FD8095982F0E941E1821
:1016B0009B01AC0160E070E88DED93E40E941E1781
:1016C0009B01AC01C801B7010E9483179B01AC01CB
:1016D000C601B5010E94AA180E94EB179B01B8CF62
:1016E0000F931F931091280180E165E070E040E0C6
:1016F00050E00E94CF0A180F109328011091290181
:101700008FE065E070E040E050E00E94CF0A181BD7
:101710001093290190912801983008F588E0809372
:10172000280198E0812F8650833C18F5183318F073
:1017300087E3809329016091290140912C01509108
:101740002D0120912B0100912A01892F90E070E05A
:1017500030E010E00E945A091F910F9108959037D0
:1017600008F38FE6809328019FE6812F8650833C03
:10177000E8F286E080932901DECFEF92FF920F938B
:101780001F9386E191E060E40E94B413882309F47A
:10179000FFCF86E191E061E00E94AF1186E191E028
:1017A00060E00E949A1186E191E060E070E040E024
:1017B00050E020EE30E000E810E0E0E4EE2EF12C06
:1017C0000E94381086E191E00E94BF110E94CD1462
:1017D0000E94830780E160E00E9484158FE060E052
:1017E0000E94841581E160E00E94841560ED77E03D
:1017F00080E090E00E94011586E191E060E87AE0E7
:101800000E94680F88E0809328018CE18093290171
:1018100088E291E061E00E9493071F910F91FF9091
:10182000EF9008955F926F927F928F929F92AF9206
:10183000BF92CF92DF92EF92FF920F931F93CF93BD
:10184000DF9300917A01053028F480917C01882390
:1018500009F4F8C010E00115110509F4B2C038010F
:10186000089461087108E301CC0FDD1FCC0FDD1F68
:10187000CC0FDD1FC60DD71DC45BDE4F0DC08091A0
:101880007A01815080937A0129976114710409F4D7
:1018900098C00894610871088881982F91509883A6
:1018A0008A5C863360F3892E9924598094012F71C4
:1018B0003070213131050CF4A5C000D000D0B90141
:1018C000882777FD8095982F28E030E040E050E0B1
:1018D000EDB7FEB721833283438354832FE130E099
:1018E00040E050E0F0E1EF2EF12C012D112DAA2463
:1018F000BB2465010E9495160F900F900F900F90DA
:10190000650D711DC4018770907004970CF470C050
:10191000C40148E650E020E130E008E010E00E9419
:101920005A09882309F4B0CF688170E0498150E0FA
:101930008B819B01280F311D8A818A01080F111D9F
:1019400086E191E00E94EF0FF301EE0FFF1FEE0F13
:10195000FF1FEE0FFF1FE60DF71DE45BFE4F00813A
:10196000118122813381448155816681778180850F
:10197000B1E3EB2EB1E0FB2EC09079010E94E708A5
:1019800090E0FC01EE0FFF1FEE0FFF1FEE0FFF1F99
:10199000E80FF91FEE0DFF1D608170E0418150E0FE
:1019A00083819B01280F311D82818A01080F111D3F
:1019B00086E191E00E94EF0F29976114710409F00C
:1019C00068CF80917C01882319F0815080937C013D
:1019D000DF91CF911F910F91FF90EF90DF90CF900B
:1019E000BF90AF909F908F907F906F905F90089581
:1019F000C40148E750E020E130E008E010E00E9438
:101A00005A098FCF00D000D0B901882777FD809583
:101A1000982FEDB7FEB7118212821382148220E153
:101A200030E040E050E0EE24FF248701E8E0AE2EF5
:101A3000B12CC12CD12C0E9495160F900F900F90B5
:101A40000F905ECF10E066E070E080E090E020E371
:101A500030E040E050E00E940017F801EE0FFF1F59
:101A6000EE0FFF1FEE0FFF1FE00FF11FE45BFE4FB5
:101A700061838FE7808388E690E09583848388E79D
:101A800090E09783868380E1838388E082836091FE
:101A90007A016F5F60937A0184E180937C018CE42A
:101AA00091E00E94B90700917A01D4CECF92DF92E3
:101AB000EF92FF920F931F93F6E1CF2EF1E0DF2E0E
:101AC000C6010E9492130E94E6090E94700B0E94B8
:101AD000120CC60160E070E046E050E028EA30E019
:101AE00008E010E0EAE3EE2EF12C0E94381083E0CB
:101AF0000E94560AC6010E94BF111F910F91FF90CC
:101B0000EF90DF90CF9008950E94560D0895FC014C
:101B1000618340838FEF82830895FC0160387105F3
:101B200018F5878590E048175907F0F4CA0133E0AB
:101B3000969587953A95E1F79695982F88279795EA
:101B40008795860F971F0384F485E02DE80FF91F12
:101B50004770507081E090E002C0880F991F4A954D
:101B6000E2F72081282B20830895FC01603871055D
:101B700020F5878590E048175907F8F4CA01B3E0CB
:101B800096958795BA95E1F79695982F882797951A
:101B90008795860F971F0384F485E02DE80FF91FC2
:101BA0004770507081E090E002C0880F991F4A95FD
:101BB000E2F780952081282320830895FC01603876
:101BC000710570F5878590E04817590748F5CA01F7
:101BD000B3E096958795BA95E1F79695982F882763
:101BE00097958795860F971F0384F485E02DE80F5E
:101BF000F91F208147705070822F90E0042E02C0A0
:101C0000959587950A94E2F7382F317081E090E03E
:101C100002C0880F991F4A95E2F7282B208301C044
:101C200030E0832F08952F923F924F925F926F92F0
:101C30007F928F929F92AF92BF92CF92DF92EF925C
:101C4000FF920F931F93DF93CF9300D000D0CDB7B7
:101C5000DEB79C838B8349835A83322E232EDC018B
:101C600017962C911797422F50E0CA0187709070F9
:101C70001696EC91169770E018963C91892B09F016
:101C800088C02695269526952E9FC0011124631B9A
:101C90007109869F3001879F700C969F700C1124EC
:101CA000E4E0F0E06E0E7F1E232D322DC9014C01C1
:101CB000AA24BB245BC000E010E0AB81BC81169677
:101CC0008C91169790E0FC01AE9EC001AF9E900DE6
:101CD000BE9E900D1124860D971D8C0D9D1D149692
:101CE000ED91FC911597E80FF91FE4918E2F90E08C
:101CF000002E02C0959587950A94E2F71A969C915A
:101D00001A9780FF07C0A801480D591D992339F47F
:101D1000CD010DC0A801480D591D992331F48B81C7
:101D20009C81B7010E94B50D05C08B819C81B701D4
:101D30000E948D0D0F5F1F4F0830110509F0BDCFB8
:101D40000894C11CD11C0894E11CF11CAB81BC811E
:101D500016968C9190E0C816D9060CF4ACCF089476
:101D6000A11CB11CE8E0F0E08E0E9F1EAB81BC818F
:101D700017968C9186958695869590E0A816B9065B
:101D80000CF08FC089819A819C017901CC24DD24DB
:101D9000DDCF631B71098E2F90E0FC01E49FC00131
:101DA000E59F900DF49F900D112423E09595879564
:101DB0002A95E1F7689F5001699FB00C789FB00C9D
:101DC000112424E030E0A20EB31EAB81BC81149636
:101DD000ED91FC911597EA0DFB1DE4914E2E5524D3
:101DE00029813A81C9017C0197E0C92ED12C662452
:101DF000772448C0C2010C2C02C0959587950A949F
:101E0000E2F7EB81FC81928580FF04C0992321F4E5
:101E1000CF010BC0992339F48B819C81B701A801B4
:101E20000E94B50D06C08B819C81B701A8010E945C
:101E30008D0D0894C108D108D7FE11C00894A11CCB
:101E4000B11CAB81BC811496ED91FC911597EA0D04
:101E5000FB1DE4914E2E552487E0C82ED12C08940A
:101E6000811C911C0F5F1F4FEB81FC81878190E0EB
:101E7000881699060CF4BECF0894611C711C089456
:101E8000E11CF11CAB81BC8116968C9190E0681628
:101E900079063CF4832D922D9C0189018824992494
:101EA000E3CF0F900F900F900F90CF91DF911F9184
:101EB0000F91FF90EF90DF90CF90BF90AF909F90E9
:101EC0008F907F906F905F904F903F902F900895EC
:101ED000DC01FB0115967C936E9314978491169602
:101EE0008C9316973196849117968C931797319609
:101EF000849118968C9318973196E4911996EC93E7
:101F000019971A961C920895CF93DF93EC016038CD
:101F1000710580F557FD2EC08F8590E04817590751
:101F20004CF5DA01F3E0B595A795FA95E1F7B6958A
:101F3000BA2FAA27B795A795A60FB71F477050705D
:101F400081E090E002C0880F991F4A95E2F7682F60
:101F500040E050E00CC0CA018A0F9B1FEB85FC8556
:101F6000E80FF91F8081862B80834F5F5F4F4217F8
:101F700053078CF3DF91CF910895AF92BF92CF9228
:101F8000DF92EF92FF920F931F93CF93DF936C0139
:101F90007A0159018B0160387105B0F457FD14C006
:101FA000FC01878590E04817590774F4C0E0D0E041
:101FB00008C0AE014E0D5F1DC601B8010E948D0D17
:101FC0002196CA15DB05ACF3DF91CF911F910F91DC
:101FD000FF90EF90DF90CF90BF90AF9008958F92D9
:101FE0009F92AF92BF92CF92DF92EF92FF920F93A8
:101FF0001F93CF93DF934C01EB017A0159016801E4
:102000002617370714F45B01E901CE14DF041CF432
:10201000C60167017C0185010C1B1D0BC401BE01BB
:10202000A70198010E94840FC401BE01A601980176
:102030000E94840F86010E191F09C401BE01A70169
:1020400098010E94BD0F0F5F1F4FC401B501A7018A
:1020500098010E94BD0FDF91CF911F910F91FF90CA
:10206000EF90DF90CF90BF90AF909F908F900895AA
:102070002F923F924F925F926F927F928F929F9298
:10208000AF92BF92CF92DF92EF92FF920F931F9386
:10209000DF93CF9300D000D000D0CDB7DEB72C01B6
:1020A0006B837C833A832983380117015A01CC243E
:1020B000DD244DC0C60187709070F1E08F2E912C09
:1020C00002C0880C991C8A95E2F72B813C81C901DA
:1020D0008C01C601E3E095958795EA95E1F7869D29
:1020E0009001879D300D969D300D112489819A8134
:1020F000280F391F3E832D83EE24FF241FC0ED815E
:10210000FE81849190E0882199211816190634F4F3
:10211000C201B801A5010E948D0D05C0C201B80120
:10212000A5010E94B50D0894E11CF11C0F5F1F4F23
:102130002D813E812F5F3F4F3E832D83E614F704B0
:10214000F4F20894C11CD11C0894A11CB11CC21447
:10215000D3040CF4AFCF26960FB6F894DEBF0FBEB3
:10216000CDBFCF91DF911F910F91FF90EF90DF9046
:10217000CF90BF90AF909F908F907F906F905F9027
:102180004F903F902F900895FF920F931F938C01D3
:10219000F62EFC01818161E00E948415F8018181A5
:1021A000608141E02F2D0E9453161F910F91FF90E7
:1021B00008950F931F938C01FC01818161E00E94BF
:1021C0008415F801818160E00E94F015F80180819A
:1021D00061E00E94F015F801818161E00E94F01534
:1021E000F801818160E00E9484151F910F9108958C
:1021F000FF920F931F938C01F62EFC01818161E009
:102200000E948415F801818161E00E94F015F801B7
:10221000808161E00E94F015F801818160E00E94F8
:10222000F015F801808160E00E94F015F8018181CD
:10223000608141E02F2D0E9453161F910F91FF9056
:10224000089582E161E00E94F01583E161E00E945F
:10225000F015E9EBF0E080818E7F808380818D7FB7
:1022600080838CE08093B80085E08093BC00089563
:10227000CF93DF93EC01898160E00E94841588810F
:1022800061E00E94F01589810E9423160197D9F31D
:10229000888160E00E94F015DF91CF9108951F932F
:1022A000CF93DF93EC01162F8B81882339F184EED5
:1022B0008093BC008091BC0087FFFCCF88E78093AF
:1022C000BB0084EC8093BC008091BC0087FFFCCFF6
:1022D0001092BB0084EC8093BC008091BC0087FF0F
:1022E000FCCF1093BB0084EC8093BC008091BC00B9
:1022F00087FFFCCF84E98093BC0018C0CE0168E75B
:102300000E94F810CE010E943811CE0160E00E94B8
:10231000C410CE010E943811CE01612F0E94C4105A
:10232000CE010E943811CE010E94D910DF91CF91C9
:102330001F910895CF93DF93EC01662331F060EA9B
:102340000E944F11CE0160EC05C061EA0E944F115E
:10235000CE0168EC0E944F11DF91CF910895FF925A
:102360000F931F938C01F62E61E80E944F11C80154
:102370006F2D0E944F111F910F91FF900895FF92B2
:102380000F931F93CF93DF93EC01F89461E20E94C7
:102390004F11CE0160E00E944F11CE016FE70E9405
:1023A0004F11CE0162E20E944F11CE0160E00E9407
:1023B0004F11CE0167E00E944F118B818823E1F01D
:1023C00084EE8093BC008091BC0087FFFCCF88E73F
:1023D0008093BB0084EC8093BC008091BC0087FF9D
:1023E000FCCF80E48093BB0084EC8093BC008091A0
:1023F000BC0087FFFCCF0EC0CE0168E70E94F8103A
:10240000CE010E943811CE0160E40E94C410CE01BA
:102410000E94381100E010E0A4ECFA2E1BC0EB85FE
:10242000FC85222361F0E00FF11F80818093BB00C7
:10243000F092BC008091BC0087FFFCCF09C0E00F88
:10244000F11FCE0160810E94C410CE010E9438119C
:102450000F5F1F4F8D859E852B8108171907F8F296
:10246000222321F084E98093BC0003C0CE010E94A6
:10247000D9107894DF91CF911F910F91FF9008951B
:102480008F929F92AF92BF92CF92DF92EF92FF9284
:102490000F931F93CF93DF936C015B01EA01490116
:1024A000DB010D900020E9F77D010894E108F108B7
:1024B000E61AF70AB7E24F305B0779F4FC01868130
:1024C00090E09C012E9DC0012F9D900D3E9D900D92
:1024D0001124C0E8D0E0C81BD90B37E2CE30D307B7
:1024E000A1F4D60116968C9190E08E9D90018F9D5F
:1024F000300D9E9D300D112480E890E0821B930BDF
:1025000062E070E00E942C19EB0100E010E016C0C0
:10251000F50161915F01D60116968C9190E0089FBC
:10252000A001099F500D189F500D11244C0F5D1FE5
:10253000C60194010E94130E0F5F1F4F0E151F0559
:102540003CF3DF91CF911F910F91FF90EF90DF90BF
:10255000CF90BF90AF909F908F9008952F923F9211
:102560004F925F926F927F928F929F92AF92BF92A3
:10257000CF92DF92EF92FF920F931F93DF93CF934F
:10258000CDB7DEB7E6970FB6F894DEBF0FBECDBF6E
:102590002C014A015B0119011EAB0DAB370141153E
:1025A00051056105710511F5E114F104D9F0A0E0C0
:1025B000B0E00894E108F1089E01265E3F4F05C097
:1025C000F901EA0FFB1FC0821196AE15BF05C4F3D7
:1025D0002A0F3B1F80E3F9018083AC0FBD1F5B9680
:1025E0001C927EC080E38A8F1B8E7AC077FD02C06A
:1025F000DD240AC0B094A09490948094811C911C16
:10260000A11CB11CDD24D39400E010E07E010894ED
:10261000E11CF11CC501B4012AE030E040E050E0CB
:102620000E943F199B01AC01F701E00FF11F862FBB
:10263000805D80830F5F1F4F821A930AA40AB50A38
:10264000C501B4012AE030E040E050E00E943F19AB
:10265000C901DA014C015D01181419041A041B04A4
:10266000CCF2E00EF11EF7011082DD2011F08DE2B8
:102670008A8F8D2D90E0B801680F791F6615770558
:102680001CF040E050E012C0FE017A96E80FF91FFE
:1026900040E050E07301E01AF10AE81AF90A03C0B9
:1026A000C1924F5F5F4F4E155F05D4F3DE01A00F5F
:1026B000B11FFE017A96840F951FE80FF91F20E0E5
:1026C00030E08C9181932F5F3F4F11972017310796
:1026D000C4F3FE013196E40FF51FE60FF71F118ECC
:1026E000C201BE01665E7F4FA1012DA93EA90E94D5
:1026F0004012E6960FB6F894DEBF0FBECDBFCF9165
:10270000DF911F910F91FF90EF90DF90CF90BF90DE
:10271000AF909F908F907F906F905F904F903F9081
:102720002F900895FC01458556858385948560E04A
:1027300070E00E948C070895EF92FF920F931F9311
:102740007B018C010E94CD14E60EF71E081F191F95
:102750000E94CD146E157F0580079107C8F31F9165
:102760000F91FF90EF900895CF93DF93EC016032CB
:1027700019F06034B1F408C06F878FE1888B82E074
:10278000898B80E092E007C06F878FE3888B82E1BE
:10279000898B80E094E09E878D870E9429068B8735
:1027A0009C878B859C85892B11F480E09CC08A8155
:1027B0008F3FD9F061E00E9484158A8161E00E9418
:1027C000F01561E070E080E090E00E949C138A8147
:1027D00060E00E94F0156AE070E080E090E00E9406
:1027E0009C138A8161E00E94F0158981823149F44D
:1027F0008881833131F481E08B83CE010E942111E5
:1028000005C01B82888161E00E948415CE016EEABA
:102810000E944F11CE0165ED0E944F11CE0160E87C
:102820000E944F11CE0168EA0E944F11CE016889C3
:102830000E944F11CE0163ED0E944F11CE0160E066
:102840000E944F11CE0160E40E944F11CE016DE84D
:102850000E944F11CE0164E10E944F11CE0160E24F
:102860000E944F11CE0160E00E944F11CE0161EA3B
:102870000E944F11CE0168EC0E944F11CE016AED0B
:102880000E944F11CE0169890E944F11CE0161E86B
:102890000E944F11CE016FEC0E944F11CE0169EDE5
:1028A0000E944F11CE0161EF0E944F11CE016BEDDE
:1028B0000E944F11CE0160E40E944F11CE0164EAE4
:1028C0000E944F11CE0166EA0E944F11CE016FEABD
:1028D0000E944F11CE010E949213CE010E94BF119F
:1028E0001D821C8281E0DF91CF910895CF93DF9309
:1028F0000E9427150E94BD0BC0E0D0E00E94840D0D
:102900002097E1F30E940000F9CF1F920F920FB6BB
:102910000F9211242F933F938F939F93AF93BF9365
:102920008091810190918201A0918301B0918401F5
:10293000309185010196A11DB11D232F2D5F2D37EB
:1029400020F02D570196A11DB11D20938501809384
:10295000810190938201A0938301B09384018091BF
:102960007D0190917E01A0917F01B091800101963F
:10297000A11DB11D80937D0190937E01A0937F01E5
:10298000B0938001BF91AF919F918F913F912F9113
:102990000F900FBE0F901F9018958FB7F89420914D
:1029A00081013091820140918301509184018FBF58
:1029B000B901CA0108959FB7F89420917D01309123
:1029C0007E0140917F015091800186B5A89B06C091
:1029D0008F3F21F02F5F3F4F4F4F5F4F9FBF542FCF
:1029E000432F322F2227280F311D411D511D82E018
:1029F000220F331F441F551F8A95D1F7B901CA0111
:102A00000895EF92FF920F931F93CF93DF937B0173
:102A10008C010E94DB14EB010EC00E94DB146C1BC6
:102A20007D0B685E7340C8F30894E108F108010962
:102A30001109C851DC4FE114F1040105110569F7D2
:102A4000DF91CF911F910F91FF90EF9008957894AF
:102A500084B5826084BD84B5816084BD85B58260A3
:102A600085BD85B5816085BDEEE6F0E08081816041
:102A70008083E1E8F0E01082808182608083808141
:102A800081608083E0E8F0E0808181608083E1EB19
:102A9000F0E0808184608083E0EBF0E08081816001
:102AA0008083EAE7F0E080818460808380818260B7
:102AB00080838081816080838081806880831092A0
:102AC000C1000895982F8E3008F09E509770809125
:102AD00014018295880F880F807C892B80937C005D
:102AE00080917A00806480937A0080917A0086FDDC
:102AF000FCCF2091780040917900942F80E030E065
:102B0000282B392BC9010895CF93DF93482F50E02C
:102B1000CA018D52944FFC0134914154544FFA0133
:102B20008491882369F190E0880F991FFC01EF558B
:102B3000F44FA591B491FC01E555F44FC591D491A2
:102B4000662351F42FB7F8948C91932F9095892395
:102B50008C93888189230BC0623061F42FB7F8947D
:102B60008C91932F909589238C938881832B8883D4
:102B70002FBF06C09FB7F8948C91832B8C939FBF77
:102B8000DF91CF910895833071F0843028F4813043
:102B9000A1F0823021F514C08630B1F08730D1F039
:102BA0008430E9F404C0809180008F7703C0809165
:102BB00080008F7D80938000089584B58F7702C058
:102BC00084B58F7D84BD08958091B0008F77809308
:102BD000B00008958091B0008F7D8093B00008957B
:102BE000FF920F931F93F62E482F50E0CA01895190
:102BF000944FFC012491CA018D52944FFC01149111
:102C00004154544FFA0104910023C9F0222319F0D2
:102C1000822F0E94C315E02FF0E0EE0FFF1FE55555
:102C2000F44FA591B4919FB7F894FF2021F48C91B3
:102C30001095812302C08C91812B8C939FBF1F9193
:102C40000F91FF9008950F931F93482F50E0CA01F2
:102C50008951944FFC012491CA018D52944FFC017B
:102C600004914154544FFA011491112319F420E0B6
:102C700030E015C0222319F0822F0E94C315812F46
:102C800090E0880F991F8B54944FFC01A591B4914B
:102C90008C9120E030E0802311F021E030E0C90188
:102CA0001F910F910895BF92CF92DF92EF92FF9202
:102CB0000F931F93CF93DF93E82EF62EB42EC7E029
:102CC000D0E0022F10E087E0C82ED12CBB2059F4B1
:102CD000B6016C1B7D0BC80102C0959587956A955E
:102CE000E2F7BC0107C0B8010C2E02C075956795CC
:102CF0000A94E2F761708E2D0E94F0158F2D61E02D
:102D00000E94F0158F2D60E00E94F01521979FEF33
:102D1000CF3FD907D9F6DF91CF911F910F91FF9047
:102D2000EF90DF90CF90BF9008952F923F924F92F7
:102D30005F926F927F928F929F92AF92BF92CF924B
:102D4000DF92EF92FF920F931F93DF93CF93CDB754
:102D5000DEB73B014C0119012A016D897E898F89FB
:102D6000988D6A197B098C099D09621A730A840A75
:102D7000950AA40193010E940D19E218F3080409B1
:102D80001509A80197010E943F192A0D3B1D4C1DF2
:102D90005D1DB901CA01CF91DF911F910F91FF9085
:102DA000EF90DF90CF90BF90AF909F908F907F90EB
:102DB0006F905F904F903F902F900895EF92FF9209
:102DC0000F931F937B018C0161157105810591059E
:102DD00029F420E030E040E050E00BC00E947E0784
:102DE000A80197010E943F19AC01CB01DA019C01B7
:102DF000AD01B901CA011F910F91FF90EF900895A5
:102E0000EF92FF920F931F937B018C016217730760
:102E10008407950764F4261B370B480B590BCA012E
:102E2000B9010E94DE16E60EF71E081F191FB70132
:102E3000C8011F910F91FF90EF9008955058BB2744
:102E4000AA270ED04DC13ED130F043D120F031F44D
:102E50009F3F11F41EF433C10EF4E095E7FB29C146
:102E6000E92F4FD180F3BA176207730784079507DC
:102E700018F071F49EF567C10EF4E0950B2EBA2F91
:102E8000A02D0B01B90190010C01CA01A001112470
:102E9000FF27591B99F0593F50F4503E68F11A161C
:102EA000F040A22F232F342F4427585FF3CF4695AD
:102EB00037952795A795F0405395C9F77EF41F16CF
:102EC000BA0B620B730B840BBAF09150A1F0FF0F99
:102ED000BB1F661F771F881FC2F70EC0BA0F621F85
:102EE000731F841F48F4879577956795B795F79575
:102EF0009E3F08F0B3CF9395880F08F09927EE0F07
:102F00009795879508950CD0EBC0E3D040F0DAD0C8
:102F100030F021F45F3F19F0CCC0511115C1CFC082
:102F2000F0D098F39923C9F35523B1F3951B550BB2
:102F3000BB27AA2762177307840738F09F5F5F4F8C
:102F4000220F331F441FAA1FA9F333D00E2E3AF0CD
:102F5000E0E830D091505040E695001CCAF729D0E7
:102F6000FE2F27D0660F771F881FBB1F2617370736
:102F70004807AB07B0E809F0BB0B802DBF01FF2766
:102F800093585F4F2AF09E3F510568F092C0DCC015
:102F90005F3FECF3983EDCF3869577956795B795A0
:102FA000F7959F5FC9F7880F911D9695879597F9BB
:102FB0000895E1E0660F771F881FBB1F6217730734
:102FC0008407BA0720F0621B730B840BBA0BEE1F49
:102FD00088F7E095089504D06894B111B5C00895BC
:102FE00098D088F09F5790F0B92F9927B751A0F04B
:102FF000D1F0660F771F881F991F1AF0BA95C9F78D
:1030000012C0B13081F09FD0B1E008959CC0672F0D
:10301000782F8827B85F39F0B93FCCF3869577953C
:103020006795B395D9F73EF4909580957095619525
:103030007F4F8F4F9F4F0895E89409C097FB3EF450
:1030400090958095709561957F4F8F4F9F4F9923F5
:10305000A9F0F92F96E9BB279395F6958795779573
:103060006795B795F111F8CFFAF4BB0F11F460FF33
:103070001BC06F5F7F4F8F4F9F4F16C0882311F08B
:1030800096E911C0772321F09EE8872F762F05C09F
:10309000662371F096E8862F70E060E02AF09A953A
:1030A000660F771F881FDAF7880F9695879597F92F
:1030B000089597F99F6780E870E060E008959FEFBA
:1030C00080EC089500240A941616170618060906BF
:1030D000089500240A94121613061406050608958E
:1030E000092E0394000C11F4882352F0BB0F40F416
:1030F000BF2B11F460FF04C06F5F7F4F8F4F9F4F56
:10310000089557FD9058440F551F59F05F3F71F0D7
:103110004795880F97FB991F61F09F3F79F087953E
:103120000895121613061406551FF2CF4695F1DFC7
:1031300008C0161617061806991FF1CF8695710557
:10314000610508940895E894BB2766277727CB018B
:1031500097F908950BD0C4CFB5DF28F0BADF18F087
:10316000952309F0A6CFABCF1124EECFCADFA0F391
:10317000959FD1F3950F50E0551F629FF001729F0C
:10318000BB27F00DB11D639FAA27F00DB11DAA1F2B
:10319000649F6627B00DA11D661F829F2227B00D78
:1031A000A11D621F739FB00DA11D621F839FA00D03
:1031B000611D221F749F3327A00D611D231F849F53
:1031C000600D211D822F762F6A2F11249F575040AA
:1031D0008AF0E1F088234AF0EE0FFF1FBB1F661F45
:1031E000771F881F91505040A9F79E3F510570F0FE
:1031F00060CFAACF5F3FECF3983EDCF386957795DE
:103200006795B795F795E7959F5FC1F7FE2B880FF8
:10321000911D9695879597F90895629FD001739FA8
:10322000F001829FE00DF11D649FE00DF11D929F62
:10323000F00D839FF00D749FF00D659FF00D9927A1
:10324000729FB00DE11DF91F639FB00DE11DF91FC5
:10325000BD01CF011124089597FB092E07260AD03E
:1032600077FD04D027D006D000201AF47095619520
:103270007F4F0895F6F7909581959F4F089597FB9E
:10328000092E05260ED057FD04D028D00AD0001CE8
:1032900038F450954095309521953F4F4F4F5F4FF3
:1032A0000895F6F790958095709561957F4F8F4FB3
:1032B0009F4F0895AA1BBB1B51E107C0AA1FBB1F4C
:1032C000A617B70710F0A61BB70B881F991F5A95B2
:1032D000A9F780959095BC01CD010895A1E21A2E21
:1032E000AA1BBB1BFD010DC0AA1FBB1FEE1FFF1FAA
:1032F000A217B307E407F50720F0A21BB30BE40BFA
:10330000F50B661F771F881F991F1A9469F7609540
:103310007095809590959B01AC01BD01CF010895FA
:10332000EE0FFF1F0590F491E02D09942F923F922C
:103330004F925F926F927F928F929F92AF92BF92C5
:10334000CF92DF92EF92FF920F931F93CF93DF9371
:10335000CDB7DEB7CA1BDB0B0FB6F894DEBF0FBECE
:10336000CDBF09942A88398848885F846E847D841B
:103370008C849B84AA84B984C884DF80EE80FD801D
:103380000C811B81AA81B981CE0FD11D0FB6F89493
:0E339000DEBF0FBECDBFED010895F894FFCF54
:10339E004C563A00453A00423A0020008A0100009D
:0633AE0001000000010017
:00000001FF
