:100000000C94A4060C94CC060C94CC060C94CC0650
:100010000C94CC060C94CC060C94CC060C94CC0618
:100020000C94CC060C94CC060C94CC060C94CC0608
:100030000C94CC060C94CC060C94CC060C94CC06F8
:100040000C9481190C94CC060C9462160C94B01686
:100050000C94CC060C94CC060C94CC060C94CC06D8
:100060000C94CC060C94CC060020DCFE773F1F3E9F
:1000700031284400402010000020DCFE773F1F3E66
:1000800030204080008080001010142E55385428F5
:10009000111F1E9E76FEDCFE777F5A7260E0507064
:1000A00077BF55AE54B040005723558F573A55F897
:1000B00075FADDEA55A2D53F77FF7F3F150F0100A6
:1000C00077FFDDFE54B0400077FFDFFF552355A8D2
:1000D00057FFDFFF75FE552A77FF7F3F170F01009F
:1000E00055BBDFFE74F0400077FFDFFF77FFD5A838
:1000F000552357AF57FFFD3F57FA753E170F0100C5
:1001000057BF5DFE74F0C000557A55FF77FFDDF8EC
:1001100077FFDFEF5523553F77FF5F3F150E010057
:10012000573F55BE54F0C00077FED5EA55BF5DF885
:1001300077FFDFFF77FF552A77FF7F3F170F01001B
:1001400077FFD5EE54B0400077FFDFFF75FAD5F8A2
:1001500077FFDFFF77FFFD3F77FF7F3F170F01003E
:1001600077FFD5FE74F0400077FFDFFF77FFDDF803
:1001700077FFDFFF77FFFD3F77FF7F3F170F01001E
:1001800077FFD5FE74F0C00077FFDFFF77FFDDF863
:1001900057FFDFFF77FFFD3F75FB7F3F170F010024
:1001A000572F57FE74F0C00055EA5DFF77FFDDF86A
:1001B00077FF5DFF57FFFD3F77FB753A150F010095
:1001C000572B55AE54F0C00055EA558A75FFDDF83F
:1001D00075FFDFEF57FB5D3F77FF7F3F150E010097
:1001E00057AF55AE54B0400055A2D5EA55E2D5F808
:1001F00075FFDFFF75FFF53F75FF7F3F170F0100AC
:1002000057AF55AE54B04000572F558B55FAD5F81F
:10021000552255FA75FFFD3F75FA7D3F170F010016
:10022000000E1E3C2E170E00000000000000000013
:1002300000000000000000000000000000000000BE
:1002400000000000000000000000000000000000AE
:10025000000000000000000000000000000000009E
:10026000000000000000500010205020706050B0CE
:10027000503050207020504051A044005100458023
:100280001503550E1522550A143C54085010500001
:10029000000000000000000000000000000000005E
:1002A000000000000000000000000000000000004E
:1002B000000000000000000000000000000000003E
:1002C000000000000000000000000000000000002E
:1002D000000000000000000000000000000000001E
:1002E0000000000000000000010045001100450072
:1002F00015020502150045001102550315FA5502B5
:10030000110045025520548015025508553E558070
:10031000500000000000000000000000000000008D
:1003200000000000000000000000000000000000CD
:1003300000000000000000000000000000000000BD
:10034000000000000000400010004000100000000D
:10035000100000001000100000004000000000002D
:1003600000000000000000000000440010004400F5
:100370000100040011004500510045801123550083
:1003800011004500110055205582558055005580BB
:1003900055A0508040004000000000000000000018
:1003A000000000000000000000000000000000004D
:1003B0000000000000000000010005001000000027
:1003C000100000000000400000004000000040005D
:1003D0000000000000000000100004005102542042
:1003E0001000000051204418150005005120540051
:1003F0001100040011005000110105011103450214
:1004000015020502150000001503050E153E5DBE20
:1004100075A3550055A05080150000000000000095
:1004200000000000000000000000000000000400C8
:100430001000040010005000400000000000000008
:1004400000000000000000000000000000000000AC
:100450000000408040004180410040804100400059
:1004600041000100150044081500540051004400EB
:100470001100400011000400110014001120500070
:100480001100140011025400110005001500550060
:10049000153B55AE55FAF5EF7500140050000000FD
:1004A000000000000000000000000000000000004C
:1004B0000000000000000000010001000100100029
:1004C000010200000100050001000500010001001B
:1004D0000100400001004000010040000100540004
:1004E00011000000110000000500010011000000D3
:1004F00001000500010000000100040001000000EF
:100500001100040011004000110001001500558089
:100510005502550A55AF55BF77FE54001100000033
:1005200000000000000000000000000000000000CB
:1005300000000000000000000000000000000000BB
:100540000100040014000000100010001000500012
:10055000100011001100040011000400010004004B
:10056000010000000000000000000000000000008A
:10057000000000000000000000000000000000007B
:10058000040014361500540011000000110004008E
:100590001102450015005500150305001500010066
:1005A000000000000000000000000000000000004B
:1005B000000000000000000000000000000000003B
:1005C000000000000000000000000000000000002B
:1005D000000000000000000000000000000000001B
:1005E000000000000000000000000000000000000B
:1005F00000000000000000000000000000000000FB
:100600000000000001000400150810000100400077
:100610001100400011005000010000000000000027
:1006200000000000000000000608205F000000003D
:1006300000000000002F0000000007000700001469
:100640007F147F1400242A7F2A1200231308646277
:1006500000364955225000000503000000001C220E
:100660004100000041221C000014083E081400084C
:10067000083E0808000000A06000000808080808FC
:10068000000060600000002010080402003E514994
:10069000453E0000427F4000004261514946002132
:1006A00041454B31001814127F100027454545394C
:1006B000003C4A49493000017109050300364949A7
:1006C000493600064949291E000036360000000060
:1006D00056360000000814224100001414141414AB
:1006E0000000412214080002015109060032495954
:1006F000513E007C1211127C007F49494936003E70
:1007000041414122007F4141221C007F494949412A
:10071000007F09090901003E4149497A007F080824
:10072000087F0000417F4100002040413F01007FE1
:1007300008142241007F40404040007F020C027FAD
:10074000007F0408107F003E4141413E007F0909BF
:100750000906003E4151215E007F091929460046E5
:10076000494949310001017F0101003F4040403FBC
:10077000001F2040201F003F4038403F0063140806
:1007800014630007087008070061514945430000E1
:100790007F414100AA55AA55AA55000041417F005A
:1007A00000040201020400404040404000000305F4
:1007B0000000002054545478007F484444380038E6
:1007C0004444442000384444487F0038545454186A
:1007D00000087E0901020018A4A4A47C007F08047C
:1007E00004780000447D4000004080847D00007F4C
:1007F000102844000000417F4000007C0418047869
:10080000007C0804047800384444443800FC242464
:1008100024180018242418FC007C0804040800484C
:100820005454542000043F444020003C4040207C6D
:10083000001C2040201C003C4030403C004428105C
:100840002844001CA0A0A07C004464544C44000038
:10085000107C8200000000FF00000000827C10007D
:100860000000060909060C102D0D00000080808094
:1008700080808000000000000103030303030301E4
:100880000000000000000000000000000000000068
:10089000000000C0C0000000000000000286868644
:1008A000868686020000000081C3C3C3C3C3C38120
:1008B000000000FC7A0606060606067AFC00007EAA
:1008C000BCC0C0C0C0C0C0BC7E00000000000000B2
:1008D00000000078FC000000000000000000003C68
:1008E0007E000000028686868686867AFC00007E70
:1008F000BDC3C3C3C3C3C381000000000286868694
:100900008686867AFC00000081C3C3C3C3C3C3BD0F
:100910007E0000FC7880808080808078FC00000071
:10092000010303030303033D7E0000FC7A868686F1
:10093000868686020000000081C3C3C3C3C3C3BD53
:100940007E0000FC7A868686868686020000007E0F
:10095000BDC3C3C3C3C3C3BD7E00000002060606F9
:100960000606067AFC000000000000000000003CC3
:100970007E0000FC7A8686868686867AFC00007E6B
:10098000BDC3C3C3C3C3C3BD7E0000FC7A868686D5
:100990008686867AFC00000081C3C3C3C3C3C3BD7F
:1009A0007E000E182D0D0000000000000000000069
:1009B0000000000000001038383838383838381057
:1009C0000000000000000000000000000000000027
:1009D0000000000000000000000000000000000017
:1009E0000000000000000000000000000000000007
:1009F0000040E0E0400000000000000002060E0E93
:100A00000E0E0E0E0602000000001038383838387E
:100A1000383838100000000080C0E0E0E0E0E0E09E
:100A2000C080000000FCFAF60E0E0E0E0E0EF6FA56
:100A3000FC0000EFC78300000000000083C7EF0048
:100A4000007FBFDFE0E0E0E0E0E0DFBF7F0000002C
:100A50000000000000000000F0F8FC0000000000B2
:100A600000000000000083C7EF000000000000004D
:100A7000000000001F3F7F00000002060E0E0E0E59
:100A80000E0EF6FAFC0000E0D0B8383838383838A6
:100A90003B170F00007FBFDFE0E0E0E0E0E0C08058
:100AA0000000000002060E0E0E0E0E0EF6FAFC00FE
:100AB00000001038383838383838BBD7EF0000001D
:100AC00080C0E0E0E0E0E0E0DFBF7F0000FCF8F0A5
:100AD000000000000000F0F8FC00000F173B383861
:100AE00038383838BBD7EF000000000000000000A5
:100AF00000001F3F7F0000FCFAF60E0E0E0E0E0ED9
:100B000006020000000F173B383838383838B8D0A4
:100B1000E000000080C0E0E0E0E0E0E0DFBF7F0058
:100B200000FCFAF60E0E0E0E0E0E0602000000EF8E
:100B3000D7BB383838383838B8D0E000007FBFDF4E
:100B4000E0E0E0E0E0E0DFBF7F00000002060E0E24
:100B50000E0E0E0EF6FAFC00000000000000000071
:100B6000000083C7EF00000000000000000000004C
:100B70001F3F7F0000FCFAF60E0E0E0E0E0EF6FA68
:100B8000FC0000EFD7BB383838383838BBD7EF0017
:100B9000007FBFDFE0E0E0E0E0E0DFBF7F0000FCDF
:100BA000FAF60E0E0E0E0E0EF6FAFC00000F173BB4
:100BB000383838383838BBD7EF00000080C0E0E064
:100BC000E0E0E0E0DFBF7F000406205F00000003FC
:100BD000A000C00C00F94F806BEB00988C8052A5F0
:100BE0008003000001C88089C00050850021C20038
:100BF000084000208200002000188C00FA2F804B53
:100C0000E0805A66808AA500E08F80EAAB0072A976
:100C1000009A8C00FAAF804AA7000140000940000A
:100C200021488051450089420042660072A6807AC0
:100C30008780FAA500722500FA2700FAA880FA88B2
:100C400000722B00F88F808BE8808BE800F88D8095
:100C5000F82080F90F80F9CF80722700FA840072A3
:100C60002740FA85804AA90083E800F02F00E06E53
:100C700000F0EF00D88D80C0EC009AAC8003E880D3
:100C8000C081808BE0004204000820800204003113
:100C90002380F92300312480312F8031628023EAC0
:100CA00000255380F9038002E00006E000F842804E
:100CB00003E0007987803903803123007D230031F0
:100CC00027C078840029400043E400702700606654
:100CD0000070670048C48074578059E68023E8801C
:100CE0000360008BE200610C00000000002400277C
:100CF000002A0000000000250028002B0000000052
:100D0000002300260029000404040404040404024F
:100D10000202020202030303030303010204081098
:100D20002040800102040810200102040810200065
:100D3000000007000201000003040600000000009C
:100D400000000000430A1C1811241FBECFEFD4E09E
:100D5000DEBFCDBF11E0A0E0B1E0E2ECFDE302C0F8
:100D600005900D92AC33B107D9F712E0ACE3B1E0D6
:100D700001C01D92A13EB107E1F71DE0C8E4DDE02E
:100D800004C02297FE010E94A41EC434D107C9F7F3
:100D90000E9472180C94DF1E0C940000CF93DF9316
:100DA000BC018230910510F462E070E0A091DF0296
:100DB000B091E002ED01E0E0F0E040E050E021C061
:100DC000888199818617970769F48A819B8130977A
:100DD00019F09383828304C09093E0028093DF0232
:100DE000FE0134C06817790738F44115510519F030
:100DF0008417950708F4AC01FE018A819B819C0150
:100E0000E9012097E9F641155105A9F1CA01861BB0
:100E1000970B049708F4BA01E0E0F0E02AC08D9146
:100E20009C91119784179507F9F46417750781F45D
:100E300012968D919C911397309719F0938382832A
:100E400004C09093E0028093DF02FD0132964CC013
:100E5000CA01861B970BFD01E80FF91F619371937F
:100E600002978D939C9340C0FD01828193819C01E8
:100E7000D9011097A1F68091DD029091DE02892BB5
:100E800041F480911A0190911B019093DE028093AE
:100E9000DD0240911C0150911D014115510541F4A5
:100EA0004DB75EB78091180190911901481B590BFD
:100EB0002091DD023091DE02CA01821B930B86175E
:100EC000970780F0AB014E5F5F4F8417950750F096
:100ED000420F531F5093DE024093DD02F9016193EC
:100EE000719302C0E0E0F0E0CF01DF91CF9108956F
:100EF000CF93DF93009709F450C0EC0122971B8237
:100F00001A82A091DF02B091E002109709F140E04F
:100F100050E0AC17BD0708F1BB83AA83FE01219105
:100F20003191E20FF31FAE17BF0779F48D919C91B9
:100F30001197280F391F2E5F3F4F39832883129650
:100F40008D919C9113979B838A834115510571F470
:100F5000D093E002C093DF0220C012968D919C9145
:100F60001397AD01009711F0DC01D3CFFA01D383C1
:100F7000C28321913191E20FF31FCE17DF0769F48D
:100F800088819981280F391F2E5F3F4FFA013183E5
:100F900020838A819B8193838283DF91CF910895FF
:100FA000A0E0B0E0E6EDF7E00C94B01EEC01A88004
:100FB000B980CA80DB80A114B104C104D10441F41A
:100FC00084E2A82E89EDB82E8BE5C82E87E0D82EB6
:100FD000C601B5012DE133EF41E050E00E94731EE0
:100FE00027EA31E440E050E00E94131E7B018C01AF
:100FF000C601B5012DE133EF41E050E00E94731EC0
:10100000CA01B9012CEE34EF4FEF5FEF0E94131EBF
:101010006E0D7F1D801F911F97FF04C061507040AF
:1010200080409048688379838A839B839B01AC01CD
:101030005F77B901CA01CDB7DEB7EAE00C94CC1EE8
:101040000E94D00708958EE191E00E94D007089594
:1010500060931E0170931F018093200190932101E2
:101060000895DC0101C06D9341505040E0F70895B0
:10107000FC0160874083218721836230B1F06330B7
:1010800061F0613009F0089580E990E095838483F0
:1010900080E1838388E08283089588E890E09583E7
:1010A000848388E083838283089588E690E0958333
:1010B000848388E790E09783868380E1838388E058
:1010C00082830895DF92EF92FF920F931F93DF9335
:1010D000CF93CDB7DEB72A970FB6F894DEBF0FBE19
:1010E000CDBFD82E7A01FA012081482F50E0822FFF
:1010F00090E00197481759070CF041C08E010F5F2F
:101100001F4F9A01220F331FCA01880F991F880FA2
:10111000991F880F991F280F391F260F371FD801D5
:10112000F9018AE001900D928150E1F7CA01019620
:10113000AC01440F551F440F551F440F551F880F16
:10114000991F480F591F460F571FD901FA018AE00E
:1011500001900D928150E1F7DA01F8018AE00190E7
:101160000D928150E1F7D394F70120814D2D50E08D
:10117000822F90E00197481759070CF4C2CF2150F5
:10118000F70120832A960FB6F894DEBF0FBECDBFBD
:10119000CF91DF911F910F91FF90EF90DF90089515
:1011A0009C018038910580F56034710568F5CB01AC
:1011B0009695879596958795969587959695982F68
:1011C000882797958795820F931FE0914701F091AB
:1011D0004801E80FF91F2081AB0147705070822F42
:1011E00090E0042E02C0959587950A94E2F7382F77
:1011F000317081E090E002C0880F991F4A95E2F7B4
:10120000282B2083832F089530E0832F08952F9279
:101210003F925F926F927F928F929F92AF92BF9216
:10122000CF92DF92EF92FF920F931F93DF93CF93B2
:1012300000D000D000D0CDB7DEB73C017A836983FF
:101240005C834B8379011801101611060CF067C0FE
:101250005524AA24BB241E141F040CF040C0950181
:10126000359527953595279535952795C50187702F
:10127000907061E0C62ED12C02C0CC0CDD1C8A958A
:10128000E2F72E9D80012F9D100D3E9D100D112423
:101290008B819C81080F191F1E821D8289809A8074
:1012A0008A0C9B1CF801849190E08C219D211816DA
:1012B00019065CF48D819E81860D971DB4010E94F4
:1012C000D008882311F0552453948D819E81019676
:1012D0009E838D830F5F1F4F8E159F051CF308940F
:1012E000A11CB11CA214B3040CF4B5CF852D269615
:1012F0000FB6F894DEBF0FBECDBFCF91DF911F9127
:101300000F91FF90EF90DF90CF90BF90AF909F90A4
:101310008F907F906F905F903F902F90089555240D
:10132000E5CF0F931F9380912502883709F18F5FD6
:1013300080932502809125026AE00E94321E482F88
:1013400050E0440F551F42955295507F5427407FDF
:10135000542740565F4F80E090E063E170E028E062
:1013600030E000E210E00E9407091F910F910895FC
:1013700010922502DFCF4F925F926F927F928F92F1
:101380009F92AF92BF92CF92DF92EF92FF920F9314
:101390001F93DF93CF93CDB7DEB764970FB6F89462
:1013A000DEBF0FBECDBF0B871C87E22F2D873E8788
:1013B0004F87588B698B7A8B8B8B9C8B432FDD24CB
:1013C000C114D10409F45CC0A02EBB24970160E0D5
:1013D00070E04E010894811C911CE42EFF24612EC4
:1013E00077244E2E5524D401F9018AE001900D9204
:1013F0008150E1F7AB81FA818981082F10E08C815F
:10140000482F50E0C501841B950B8017910784F588
:101410004E0D5F1D4A0D5B1D041715074CF50F2F70
:1014200010E04A2F50E0C301841B950B80179107F1
:10143000FCF4460D571D440D551D04171507C4F443
:10144000CB0164960FB6F894DEBF0FBECDBFCF912F
:10145000DF911F910F91FF90EF90DF90CF90BF90A1
:10146000AF909F908F907F906F905F904F90089576
:101470006F5F7F4F265F3F4F6C157D050CF4B3CF38
:101480006FEF7FEFDDCF8CE391E062E143E10E94FB
:10149000A70F0895EF92FF920F931F93CF93DF93BF
:1014A000E82EF62E142F862F61E00E94F61A812F67
:1014B0000E94291B892BD9F385E090E00E94231A12
:1014C0008F2D60E00E94F61A812F0E94291B892B24
:1014D000D9F700E0CE2DD0E0812F0E94291B892B67
:1014E000D9F39E012170822F6F2D0E94F61AD69596
:1014F000C795BE016170707082EB92E04AE050E0E7
:101500000E946B19812F0E94291B892BD9F70F5F2D
:10151000083010F382EB92E060E071E00E947E19E7
:10152000812F0E94291B892BD9F38F2D60E00E9407
:10153000F61ADF91CF911F910F91FF90EF900895D0
:1015400080914E016CE04BE00E944A0A80914F016D
:101550006CE04BE00E944A0A0895AF92BF92CF928E
:10156000DF92EF92FF920F931F93CF93DF936091DF
:101570002402662309F091C080912A018823F1F0AA
:10158000C0E0D0E0CC24DD248CE391E0B60140E063
:1015900050E020E232E008E010E0B6E0EB2EF12C63
:1015A0000E942312219680912A0190E0C817D90742
:1015B0002CF4C00ED11EC530D10531F78CE391E07B
:1015C00062E071E04CE150E020E030E00E942B143A
:1015D0008CE391E041E050E060E070E028E230E030
:1015E00000E010E0EE24FF24A0E2CA2E0E9499142D
:1015F0008CE391E066E071E040E350E020E030E011
:101600000E942B144091210250E060E070E08CE3D6
:1016100091E028E330E00E9499148CE391E069E0C6
:1016200071E040E450E020E030E00E942B14409153
:10163000200250E060E070E08CE391E028E430E0CC
:101640000E94991440914E0150E060E070E08CE3FC
:1016500091E027E630E00E9499148CE391E06CE081
:1016600071E043E750E020E030E00E942B1440910D
:101670004F0150E060E070E08CE391E027E730E05C
:101680000E949914DF91CF911F910F91FF90EF90DD
:10169000DF90CF90BF90AF90089500D000D070E061
:1016A00080E090E0E0902901FF2400E010E02FE7C7
:1016B00030E040E050E0EDB7FEB721833283438352
:1016C000548320E030E040E050E0AA24BB246501D0
:1016D0000E949B1B162F0F900F900F900F90662368
:1016E00061F08CE391E0612F70E040E050E026E093
:1016F00030E00E94A8111150A1F78091240281507E
:1017000080932402BFCF6F927F928F929F92AF926D
:10171000BF92CF92DF92EF92FF920F931F93CF93DE
:10172000DF933B014A010E94681AEC01C401855411
:101730009E4F8C179D070CF452C08BEB91E08819DB
:101740009909C817D9070CF047C0B401882777FD5D
:101750008095982F0E94241D9B01AC0160E070E8E9
:101760008DED93E40E94241C7B018C01B30188273A
:1017700077FD8095982F0E94241DA80197010E9453
:10178000891C5B016C01BE01882777FD8095982F2D
:101790000E94241D9B01AC01C801B7010E94241CBA
:1017A0009B01AC01C601B5010E94B01D0E94F11C55
:1017B00022273327261B370BC901DF91CF911F91B9
:1017C0000F91FF90EF90DF90CF90BF90AF909F90E0
:1017D0008F907F906F90089520E030E0EDCFCB5B4D
:1017E000D140C819D909BE01882777FD8095982F67
:1017F0000E94241D5B016C01B301882777FD809551
:10180000982F0E94241D7B018C01B401882777FD4D
:101810008095982F0E94241D9B01AC0160E070E828
:101820008DED93E40E94241C9B01AC01C801B7011B
:101830000E94891C9B01AC01C601B5010E94B01D2C
:101840000E94F11C9B01B8CF0F931F9310914E0182
:101850006091280180E170E048E250E00E94830B33
:10186000180F10934E0110914F01609128018FE0E5
:1018700070E048E250E00E94830B181B10934F0168
:1018800080914E01893C10F110924E01812F8650BB
:10189000833C28F186E080934F018091240280FDF3
:1018A00012C060914F01409152015091530120911B
:1018B00051010091500180914E0190E070E030E0C4
:1018C00010E00E9407091F910F9108958037F0F2F0
:1018D0008FE680934E01812F8650833CD8F61833D3
:1018E000E0F287E380934F01D8CFEF92FF920F93FE
:1018F0001F9382EB92E040E855E260E070E00E94C6
:10190000EB168CE391E060E40E949F15882309F4B4
:10191000FFCF8CE391E068EC0E949A138CE391E096
:1019200060E00E9485138CE391E060E070E040E0AD
:1019300050E028E232E000E810E0B0E4EB2EF12CB9
:101940000E9423128CE391E00E94AA130E94C919FD
:101950000E94280880E160E00E948A1A8FE060E01F
:101960000E948A1A81E160E00E948A1A8BE060E09E
:101970000E948A1A82E060E00E948A1A8CE061E08C
:101980000E948A1A83E061E00E948A1A8CE060E07B
:101990000E94F61A83E060E00E94F61A60ED77E09C
:1019A00080E090E00E94FD198CE391E068EC7BE020
:1019B0000E9453118EE491E061E048E02CE10E9426
:1019C00038080E94C91960932602709327028093F9
:1019D0002802909329021F910F91FF90EF90089594
:1019E000FF920F931F93CF93DF9381E10E94291BF6
:1019F000892B09F448C020912002822F90E00097A3
:101A0000A9F10197EC01CC0FDD1FCC0FDD1FCC0F2E
:101A1000DD1F880F991FC80FD91FC85ADE4FF22E3D
:101A2000FA9411C069814C815D812B810A81892FD3
:101A300090E070E030E010E00E9407092A97FA94E5
:101A40008FEFF81699F0909123018881980F988371
:101A500097FFE8CF8F2D68E571E040E252E00E94E9
:101A600062082A97FA948FEFF81669F7809122029C
:101A7000882319F0815080932202DF91CF911F912A
:101A80000F91FF9008952091200280912201281744
:101A900008F0B3CF80912202882309F0AECF8AE00C
:101AA000289FC001112440914E01405F885A9E4FEB
:101AB00063E020914F010E943808209120022F5F9F
:101AC00020932002809124018093220296CF2F92AE
:101AD0003F925F926F927F928F929F92AF92BF924E
:101AE000CF92DF92EF92FF920F931F93DF93CF93EA
:101AF000CDB7DEB72A970FB6F894DEBF0FBECDBFC5
:101B00000091210280912501081728F48091230279
:101B1000882309F468C110E00115110509F45FC0BC
:101B200038010894610871084301880C991CC301AD
:101B3000880F991F880F991F880F991F880E991E6B
:101B40008CEB91E0880E991E1E010894211C311C1B
:101B500028C0E92FF0E0CF018770907004970CF453
:101B60008FC0D40111966C91119716964D915C918E
:101B7000179713962C91139712960C91CF0170E042
:101B800030E010E00E940709882309F082C0E6EFE8
:101B9000FFEF8E0E9F1E6114710409F10894610815
:101BA0007108D4016C9180912601681B962F6C936B
:101BB00018968C911897823089F1892F895C863329
:101BC00040F6862D6CEB71E041E252E00E94620823
:101BD000E6EFFFEF8E0E9F1E61147104F9F68091FF
:101BE0002302882319F08150809323022A960FB68E
:101BF000F894DEBF0FBECDBFCF91DF911F910F9143
:101C0000FF90EF90DF90CF90BF90AF909F908F901C
:101C10007F906F905F903F902F90089519965C9001
:101C2000262F30E02F713070213131050CF462C065
:101C300000D000D0B901882777FD8095982F28E043
:101C400030E040E050E0EDB7FEB7218332834383BC
:101C500054832FE130E040E050E0F0E1EF2EF12C32
:101C6000012D112DAA24BB2465010E949B1B0F90FE
:101C70000F900F900F90560EF401518290819DCFDE
:101C8000D40111966C91119714964D915C91159712
:101C900070CFF301EE0FFF1FC301880F991F880F4C
:101CA000991F880F991FE80FF91FE454FE4F008118
:101CB00011812281338144815581668177818085BC
:101CC0009185E8E5EE2EE1E0FE2EC09020020E9414
:101CD000BB09BFEF8F3F9B0779F1B70140E252E0AC
:101CE0000E946208862D6CEB71E041E252E00E9496
:101CF00062086ECF00D000D0B901882777FD8095AB
:101D0000982FADB7BEB711961D921D921D921C92D1
:101D1000149720E130E040E050E0EE24FF248701FA
:101D2000E8E0AE2EB12CC12CD12C0E949B1B0F9051
:101D30000F900F900F909FCFD101F4018AE0019096
:101D40000D928150E1F71B81AA818981E82FF0E093
:101D500080914E01682F70E08C81482F50E0CB01BC
:101D6000841B950B8E179F070CF011CF80915101AA
:101D7000282F30E0460F571F420F531FE417F50777
:101D80000CF005CFB0E080914F01482F50E0E12FDB
:101D9000F0E0CA018E1B9F0B8A179B070CF0F7CE51
:101DA00080915001082F10E0E40FF51FE00FF11FA4
:101DB000AE17BF070CF0EBCE80912402882309F008
:101DC000E6CE260F371F040F151F8CE391E00E940B
:101DD000DA11809129018093240280912A01815097
:101DE00080932A01D4CE10E066E070E080E090E0BD
:101DF00020E330E040E050E00E94061CF801EE0FC6
:101E0000FF1FC801880F991F880F991F880F991FFE
:101E1000E80FF91FE454FE4F82E080878FE780834C
:101E20006187618388E690E09583848388E790E00A
:101E30009783868380E18383F801EE0FFF1FEE0F07
:101E4000FF1FE00FF11FEE0FFF1FE254FE4F88E06F
:101E50008083009121020F5F00932102809127016E
:101E60008093230258CEAF92BF92CF92EF92FF920F
:101E70000F931F93FCE3AF2EF1E0BF2EC5010E942C
:101E80007D150E94F00C0E94240C0E94A00A0E9462
:101E9000670D0E9491090E94AD0A0E94C919AB0109
:101EA000BC018091260290912702A0912802B09156
:101EB0002902481B590B6A0B7B0BC50120E530E05A
:101EC00000E010E0EE24FF24E0E2CE2E0E94991400
:101ED0000E94C919609326027093270280932802FA
:101EE00090932902C5010E94AA131F910F91FF90A0
:101EF000EF90CF90BF90AF90089580912A01893CD8
:101F0000D0F08CE391E00E947D158CE391E06EE0CF
:101F100071E04BE250E02CE130E00E942B148CE3A6
:101F200091E00E94AA1380912402882339F0815005
:101F30008093240208950E94330F089581E10E9446
:101F4000291B892BD1F783E080932A010895FC0196
:101F5000618340838FEF82830895FC0160387105AF
:101F600018F5878590E048175907F0F4CA0133E067
:101F7000969587953A95E1F79695982F88279795A6
:101F80008795860F971F0384F485E02DE80FF91FCE
:101F90004770507081E090E002C0880F991F4A9509
:101FA000E2F72081282B20830895FC016038710519
:101FB00020F5878590E048175907F8F4CA01B3E087
:101FC00096958795BA95E1F79695982F88279795D6
:101FD0008795860F971F0384F485E02DE80FF91F7E
:101FE0004770507081E090E002C0880F991F4A95B9
:101FF000E2F7809520812823208308952F923F9235
:102000004F925F926F927F928F929F92AF92BF9208
:10201000CF92DF92EF92FF920F931F93DF93CF93B4
:1020200000D000D0CDB7DEB79C838B8349835A8321
:10203000322E232EDC0117962C911797422F50E059
:10204000CA01877090701696EC91169770E01896FA
:102050003C91892B09F088C02695269526952E9FC0
:10206000C0011124631B7109869F3001879F700C8A
:10207000969F700C1124E4E0F0E06E0E7F1E232D7D
:10208000322DC9014C01AA24BB245BC000E010E042
:10209000AB81BC8116968C91169790E0FC01AE9EA8
:1020A000C001AF9E900DBE9E900D1124860D971D10
:1020B0008C0D9D1D1496ED91FC911597E80FF91F5D
:1020C000E4918E2F90E0002E02C0959587950A949A
:1020D000E2F71A969C911A9780FF07C0A801480D55
:1020E000591D992339F4CD010DC0A801480D591D82
:1020F000992331F48B819C81B7010E94D50F05C0D3
:102100008B819C81B7010E94AD0F0F5F1F4F08307C
:10211000110509F0BDCF0894C11CD11C0894E11C25
:10212000F11CAB81BC8116968C9190E0C816D90643
:102130000CF4ACCF0894A11CB11CE8E0F0E08E0ECA
:102140009F1EAB81BC8117968C918695869586954E
:1021500090E0A816B9060CF08FC089819A819C0185
:102160007901CC24DD24DDCF631B71098E2F90E033
:10217000FC01E49FC001E59F900DF49F900D112498
:1021800023E0959587952A95E1F7689F5001699F0F
:10219000B00C789FB00C112424E030E0A20EB31EE6
:1021A000AB81BC811496ED91FC911597EA0DFB1D56
:1021B000E4914E2E552429813A81C9017C0197E092
:1021C000C92ED12C6624772448C0C2010C2C02C031
:1021D000959587950A94E2F7EB81FC81928580FFC3
:1021E00004C0992321F4CF010BC0992339F48B81CA
:1021F0009C81B701A8010E94D50F06C08B819C81EC
:10220000B701A8010E94AD0F0894C108D108D7FEFC
:1022100011C00894A11CB11CAB81BC811496ED9136
:10222000FC911597EA0DFB1DE4914E2E552487E095
:10223000C82ED12C0894811C911C0F5F1F4FEB817D
:10224000FC81878190E0881699060CF4BECF089433
:10225000611C711C0894E11CF11CAB81BC811696B9
:102260008C9190E0681679063CF4832D922D9C01A8
:10227000890188249924E3CF0F900F900F900F903D
:10228000CF91DF911F910F91FF90EF90DF90CF9052
:10229000BF90AF909F908F907F906F905F904F9086
:1022A0003F902F900895DC01FB0115967C936E936F
:1022B0001497849116968C9316973196849117965D
:1022C0008C9317973196849118968C931897319622
:1022D000E4911996EC9319971A961C920895CF934E
:1022E000DF93EC016038710580F557FD2EC08F85B6
:1022F00090E0481759074CF5DA01F3E0B595A7953A
:10230000FA95E1F7B695BA2FAA27B795A795A60F24
:10231000B71F4770507081E090E002C0880F991F8E
:102320004A95E2F7682F40E050E00CC0CA018A0FDE
:102330009B1FEB85FC85E80FF91F8081862B80832E
:102340004F5F5F4F421753078CF3DF91CF91089592
:10235000AF92BF92CF92DF92EF92FF920F931F93B3
:10236000CF93DF936C017A0159018B0160387105BD
:10237000B0F457FD14C0FC01878590E04817590759
:1023800074F4C0E0D0E008C0AE014E0D5F1DC60180
:10239000B8010E94AD0F2196CA15DB05ACF3DF91A1
:1023A000CF911F910F91FF90EF90DF90CF90BF9052
:1023B000AF9008958F929F92AF92BF92CF92DF928B
:1023C000EF92FF920F931F93CF93DF934C01EB019A
:1023D0007A01590168012617370714F45B01E901F6
:1023E000CE14DF041CF4C60167017C0185010C1BBF
:1023F0001D0BC401BE01A70198010E946F11C40109
:10240000BE01A60198010E946F1186010E191F09D5
:10241000C401BE01A70198010E94A8110F5F1F4FC0
:10242000C401B501A70198010E94A811DF91CF91C5
:102430001F910F91FF90EF90DF90CF90BF90AF90E2
:102440009F908F9008952F923F924F925F926F923C
:102450007F928F929F92AF92BF92CF92DF92EF9234
:10246000FF920F931F93DF93CF9300D000D000D043
:10247000CDB7DEB72C016B837C833A832983380187
:1024800017015A01CC24DD244DC0C601877090701D
:10249000F1E08F2E912C02C0880C991C8A95E2F7EE
:1024A0002B813C81C9018C01C601E3E0959587959C
:1024B000EA95E1F7869D9001879D300D969D300D40
:1024C000112489819A81280F391F3E832D83EE24A0
:1024D000FF241FC0ED81FE81849190E08821992125
:1024E0001816190634F4C201B801A5010E94AD0FF7
:1024F00005C0C201B801A5010E94D50F0894E11CD6
:10250000F11C0F5F1F4F2D813E812F5F3F4F3E8398
:102510002D83E614F704F4F20894C11CD11C08942E
:10252000A11CB11CC214D3040CF4AFCF26960FB675
:10253000F894DEBF0FBECDBFCF91DF911F910F91F9
:10254000FF90EF90DF90CF90BF90AF909F908F90D3
:102550007F906F905F904F903F902F900895FF92E3
:102560000F931F938C01F62EFC01818161E00E9484
:102570008A1AF8018181608141E02F2D0E94591B48
:102580001F910F91FF9008950F931F938C01FC01F1
:10259000818161E00E948A1AF801818160E00E94D5
:1025A000F61AF801808161E00E94F61AF801818133
:1025B00061E00E94F61AF801818160E00E948A1AA7
:1025C0001F910F910895FF920F931F938C01F62E88
:1025D000FC01818161E00E948A1AF801818161E039
:1025E0000E94F61AF801808161E00E94F61AF80153
:1025F000818160E00E94F61AF801808160E00E940B
:10260000F61AF8018181608141E02F2D0E94591B4B
:102610001F910F91FF90089582E161E00E94F61AE8
:1026200083E161E00E94F61AE9EBF0E080818E7FA1
:10263000808380818D7F80838CE08093B80085E0EB
:102640008093BC000895CF93DF93EC01898160E013
:102650000E948A1A888161E00E94F61A89810E948C
:10266000291B0197D9F3888160E00E94F61ADF9157
:10267000CF9108951F93CF93DF93EC01162F8B8199
:10268000882339F184EE8093BC008091BC0087FFE1
:10269000FCCF88E78093BB0084EC8093BC008091E2
:1026A000BC0087FFFCCF1092BB0084EC8093BC0081
:1026B0008091BC0087FFFCCF1093BB0084EC80931B
:1026C000BC008091BC0087FFFCCF84E98093BC00F4
:1026D00018C0CE0168E70E94E312CE010E942313C6
:1026E000CE0160E00E94AF12CE010E942313CE0102
:1026F000612F0E94AF12CE010E942313CE010E94CF
:10270000C412DF91CF911F910895CF93DF93EC0115
:10271000662331F060EA0E943A13CE0160EC05C0F6
:1027200061EA0E943A13CE0168EC0E943A13DF91ED
:10273000CF910895FF920F931F938C01F62E61E8BD
:102740000E943A13C8016F2D0E943A131F910F91F6
:10275000FF900895FF920F931F93CF93DF93EC01A7
:10276000F89461E20E943A13CE0160E00E943A13AD
:10277000CE016FE70E943A13CE0162E20E943A1343
:10278000CE0160E00E943A13CE0167E00E943A1346
:102790008B818823E1F084EE8093BC008091BC00A3
:1027A00087FFFCCF88E78093BB0084EC8093BC005C
:1027B0008091BC0087FFFCCF80E48093BB0084EC59
:1027C0008093BC008091BC0087FFFCCF0EC0CE017F
:1027D00068E70E94E312CE010E942313CE0160E459
:1027E0000E94AF12CE010E94231300E010E0A4EC7F
:1027F000FA2E1BC0EB85FC85222361F0E00FF11F50
:1028000080818093BB00F092BC008091BC0087FF68
:10281000FCCF09C0E00FF11FCE0160810E94AF1212
:10282000CE010E9423130F5F1F4F8D859E852B8144
:1028300008171907F8F2222321F084E98093BC00DD
:1028400003C0CE010E94C4127894DF91CF911F91F2
:102850000F91FF9008958F929F92AF92BF92CF9267
:10286000DF92EF92FF920F931F93CF93DF936C0150
:102870005B01EA014901DB010D900020E9F77D01D0
:102880000894E108F108E61AF70AB7E24F305B074F
:1028900079F4FC01868190E09C012E9DC0012F9D62
:1028A000900D3E9D900D1124C0E8D0E0C81BD90BBF
:1028B00037E2CE30D307A1F4D60116968C9190E082
:1028C0008E9D90018F9D300D9E9D300D112480E8CE
:1028D00090E0821B930B62E070E00E943E1EEB01D1
:1028E00000E010E016C0F50161915F01D601169677
:1028F0008C9190E0089FA001099F500D189F500DEA
:1029000011244C0F5D1FC60194010E94FE0F0F5F42
:102910001F4F0E151F053CF3DF91CF911F910F91B3
:10292000FF90EF90DF90CF90BF90AF909F908F90EF
:1029300008952F923F924F925F926F927F928F9263
:102940009F92AF92BF92CF92DF92EF92FF920F933E
:102950001F93DF93CF93CDB7DEB7E6970FB6F8940A
:10296000DEBF0FBECDBF2C014A015B0119011EABBA
:102970000DAB3701411551056105710511F5E114E4
:10298000F104D9F0A0E0B0E00894E108F1089E015C
:10299000265E3F4F05C0F901EA0FFB1FC08211966A
:1029A000AE15BF05C4F32A0F3B1F80E3F9018083F6
:1029B000AC0FBD1F5B961C927EC080E38A8F1B8E7E
:1029C0007AC077FD02C0DD240AC0B094A094909430
:1029D0008094811C911CA11CB11CDD24D39400E0C7
:1029E00010E07E010894E11CF11CC501B4012AE04D
:1029F00030E040E050E00E94731E9B01AC01F70103
:102A0000E00FF11F862F805D80830F5F1F4F821ABA
:102A1000930AA40AB50AC501B4012AE030E040E0F7
:102A200050E00E94731EC901DA014C015D011814C7
:102A300019041A041B04CCF2E00EF11EF7011082F7
:102A4000DD2011F08DE28A8F8D2D90E0B801680FA6
:102A5000791F661577051CF040E050E012C0FE01BA
:102A60007A96E80FF91F40E050E07301E01AF10A8E
:102A7000E81AF90A03C0C1924F5F5F4F4E155F0518
:102A8000D4F3DE01A00FB11FFE017A96840F951FCB
:102A9000E80FF91F20E030E08C9181932F5F3F4FCA
:102AA000119720173107C4F3FE013196E40FF51F8B
:102AB000E60FF71F118EC201BE01665E7F4FA101B6
:102AC0002DA93EA90E942B14E6960FB6F894DEBFFE
:102AD0000FBECDBFCF91DF911F910F91FF90EF906F
:102AE000DF90CF90BF90AF909F908F907F906F902E
:102AF0005F904F903F902F900895FC01458556853B
:102B00008385948560E070E00E9431080895EF921B
:102B1000FF920F931F937B018C010E94C919E60E4F
:102B2000F71E081F191F0E94C9196E157F0580071F
:102B30009107C8F31F910F91FF90EF900895CF93E5
:102B4000DF93EC01603219F06034B1F408C06F8794
:102B50008FE1888B82E0898B80E092E007C06F87ED
:102B60008FE3888B82E1898B80E094E09E878D875C
:102B70000E94CE068B879C878B859C85892B11F4C0
:102B800080E09CC08A818F3FD9F061E00E948A1A60
:102B90008A8161E00E94F61A61E070E080E090E0D6
:102BA0000E9487158A8160E00E94F61A6AE070E050
:102BB00080E090E00E9487158A8161E00E94F61A09
:102BC0008981823149F48881833131F481E08B83BA
:102BD000CE010E940C1305C01B82888161E00E9417
:102BE0008A1ACE016EEA0E943A13CE0165ED0E9468
:102BF0003A13CE0160E80E943A13CE0168EA0E94BF
:102C00003A13CE0168890E943A13CE0163ED0E9407
:102C10003A13CE0160E00E943A13CE0160E40E94B4
:102C20003A13CE016DE80E943A13CE0164E10E948E
:102C30003A13CE0160E20E943A13CE0160E00E9496
:102C40003A13CE0161EA0E943A13CE0168EC0E9469
:102C50003A13CE016AED0E943A13CE0169890E94AF
:102C60003A13CE0161E80E943A13CE016FEC0E9444
:102C70003A13CE0169ED0E943A13CE0161EF0E9432
:102C80003A13CE016BED0E943A13CE0160E40E942C
:102C90003A13CE0164EA0E943A13CE0166EA0E941A
:102CA0003A13CE016FEA0E943A13CE010E947D15BD
:102CB000CE010E94AA131D821C8281E0DF91CF9178
:102CC000089508951F920F920FB60F9211242F931B
:102CD0003F934F938F939F93EF93FF938091C00007
:102CE00082FD1DC04091C60020916A0230916B02A6
:102CF0002F5F3F4F2F73307080916C0290916D0267
:102D00002817390771F0E0916A02F0916B02E65DD5
:102D1000FD4F408330936B0220936A0202C0809182
:102D2000C600FF91EF919F918F914F913F912F910D
:102D30000F900FBE0F901F901895E091BE02F0917A
:102D4000BF02E05CFF4F8191919120813181821B14
:102D5000930B8F739070892B11F00E946116089568
:102D60001F920F920FB60F9211242F933F938F93C0
:102D70009F93EF93FF932091AE023091AF02809129
:102D8000B0029091B1022817390731F48091C10047
:102D90008F7D8093C10014C0E091B002F091B10228
:102DA000E259FD4F20818091B0029091B1020196CD
:102DB0008F7390709093B1028093B0022093C600FD
:102DC000FF91EF919F918F913F912F910F900FBEA7
:102DD0000F901F901895AF92BF92DF92EF92FF92E3
:102DE0000F931F93CF93DF93EC017A018B01DD24C6
:102DF000403081EE580780E0680780E0780711F0E6
:102E0000DD24D39491E0A92EB12CEC89FD89DD203D
:102E100069F0C50108A002C0880F991F0A94E2F763
:102E2000808360E079E08DE390E005C0108260E887
:102E300074E88EE190E0A80197010E94511E215094
:102E4000304040405040569547953795279580E152
:102E50002030380720F0DD2011F0DD24D6CFE889BE
:102E6000F9893083EA89FB89208319A2EE89FF89D9
:102E7000408121E030E0C9010C8C02C0880F991F0D
:102E80000A94E2F7482B4083EE89FF894081C9010B
:102E90000D8C02C0880F991F0A94E2F7482B4083DB
:102EA000EE89FF894081C9010E8C02C0880F991FED
:102EB0000A94E2F7482B4083EE89FF8980810F8CCA
:102EC00002C0220F331F0A94E2F7209528232083A3
:102ED000DF91CF911F910F91FF90EF90DF90BF9006
:102EE000AF900895DC011C96ED91FC911D97E05C7C
:102EF000FF4F2191319180819181281B390B2F73D4
:102F00003070C9010895DC011C96ED91FC911D976C
:102F1000E05CFF4F20813181E054F040DF01AE5B87
:102F2000BF4F8D919C9111972817390719F42FEFF6
:102F30003FEF07C08D919C91E80FF91F8081282FEA
:102F400030E0C9010895DC011C96ED91FC911D97BC
:102F5000E05CFF4F20813181E054F040DF01AE5B47
:102F6000BF4F8D919C9111972817390719F42FEFB6
:102F70003FEF10C08D919C911197E80FF91F2081B0
:102F80008D919C91119701968F73907011969C93DF
:102F90008E9330E0C9010895DC0191968C91919750
:102FA000882339F05496ED91FC915597808186FFE6
:102FB000F9CF91961C920895CF93DF93EC01EE85A3
:102FC000FF85E05CFF4F20813181E054F0402F5FAE
:102FD0003F4F2F733070DF01AE5BBF4F8D919C91DF
:102FE000119728173907D1F3E05CFF4F8081918159
:102FF000E054F040E80FF91F6083EE85FF85E05C48
:10300000FF4F31832083EE89FF89208181E090E0AA
:103010000F8C02C0880F991F0A94E2F7282B208397
:1030200081E089A3EC89FD8980818064808381E0CF
:1030300090E0DF91CF9108951092B5021092B40202
:1030400088EE93E0A0E0B0E08093B6029093B702E0
:10305000A093B802B093B90280E391E09093B302D9
:103060008093B2028AE292E09093BF028093BE0204
:103070008EE692E09093C1028093C00285EC90E0CE
:103080009093C3028093C20284EC90E09093C502B7
:103090008093C40280EC90E09093C7028093C602B4
:1030A00081EC90E09093C9028093C80282EC90E09A
:1030B0009093CB028093CA0286EC90E09093CD026D
:1030C0008093CC0284E08093CE0283E08093CF0291
:1030D00087E08093D00285E08093D10281E08093E5
:1030E000D2020895CF93DF930E942D1A0E94750C8F
:1030F000CDE9D6E10E947D0F2097E1F30E949D1655
:10310000F9CFCF92DF92EF92FF920F931F93CF935D
:10311000DF937C016B018A01C0E0D0E00FC0D601D3
:103120006D916D01D701ED91FC910190F081E02D41
:10313000C7010995C80FD91F01501040011511058D
:1031400071F7CE01DF91CF911F910F91FF90EF901A
:10315000DF90CF900895CF93DF93EC016115710557
:1031600019F420E030E00FC0DB010D900020E9F7FA
:103170001197A61BB70BE881F9810280F381E02D3E
:10318000AD0109959C01C901DF91CF9108954F923E
:103190005F927F928F929F92AF92BF92CF92DF9277
:1031A000EF92FF920F931F93DF93CF93CDB7DEB7CC
:1031B000A1970FB6F894DEBF0FBECDBF2C01742EC1
:1031C000CB01223008F42AE019A231E2C32ED12C1F
:1031D000CC0EDD1E822E9924AA24BB24672D752FC8
:1031E000A50194010E94511E79018A01C801B7010D
:1031F000A50194010E94131E472D461B0894C10887
:10320000D1084A3014F4405D01C0495CF6014083A6
:10321000E114F1040105110521F07E2C5F2DC80198
:10322000DDCFC201B6010E94AB18A1960FB6F8948B
:10323000DEBF0FBECDBFCF91DF911F910F91FF90E9
:10324000EF90DF90CF90BF90AF909F908F907F9046
:103250005F904F900895CF92DF92EF92FF920F937D
:103260001F93CF93DF93EC016A017B012115310598
:1032700041F4E881F9810190F081E02D642F0995F6
:103280001FC02A303105D1F477FF17C0E881F981DA
:103290000190F081E02D6DE209958C0144275527BE
:1032A000BA014C195D096E097F09CE012AE00E941E
:1032B000C7189801280F391F04C02AE00E94C718B8
:1032C0009C01C901DF91CF911F910F91FF90EF9069
:1032D000DF90CF900895EF92FF920F931F937B01A1
:1032E0009A010027F7FC0095102FB801A7010E9452
:1032F0002B191F910F91FF90EF9008950E94AB182A
:1033000008951F920F920FB60F9211242F933F939F
:103310008F939F93AF93BF938091D8029091D902DE
:10332000A091DA02B091DB023091DC020196A11D7E
:10333000B11D232F2D5F2D3720F02D570196A11D94
:10334000B11D2093DC028093D8029093D902A09300
:10335000DA02B093DB028091D4029091D502A09161
:10336000D602B091D7020196A11DB11D8093D4025F
:103370009093D502A093D602B093D702BF91AF919C
:103380009F918F913F912F910F900FBE0F901F90A3
:1033900018958FB7F8942091D8023091D9024091B6
:1033A000DA025091DB028FBFB901CA0108959FB7BD
:1033B000F8942091D4023091D5024091D6025091D8
:1033C000D70286B5A89B06C08F3F21F02F5F3F4FE5
:1033D0004F4F5F4F9FBF542F432F322F2227280F6D
:1033E000311D411D511D82E0220F331F441F551F07
:1033F0008A95D1F7B901CA010895EF92FF920F9310
:103400001F93CF93DF937B018C010E94D719EB01AF
:103410000EC00E94D7196C1B7D0B685E7340C8F309
:103420000894E108F10801091109C851DC4FE114C1
:10343000F1040105110569F7DF91CF911F910F91FB
:10344000FF90EF900895019739F0880F991F880F2A
:10345000991F02970197F1F70895789484B58260D7
:1034600084BD84B5816084BD85B5826085BD85B528
:10347000816085BDEEE6F0E0808181608083E1E8D7
:10348000F0E010828081826080838081816080830F
:10349000E0E8F0E0808181608083E1EBF0E0808112
:1034A00084608083E0EBF0E0808181608083EAE7E4
:1034B000F0E080818460808380818260808380816D
:1034C000816080838081806880831092C10008952C
:1034D000982F8E3008F09E50977080912B01829526
:1034E000880F880F807C892B80937C0080917A00E4
:1034F000806480937A0080917A0086FDFCCF2091D1
:10350000780040917900942F80E030E0282B392B0F
:10351000C9010895CF93DF93482F50E0CA01855E1B
:10352000924FFC013491495F524FFA0184918823F4
:1035300069F190E0880F991FFC01E751F34FA591C5
:10354000B491FC01ED50F34FC591D491662351F431
:103550002FB7F8948C91932F909589238C93888121
:1035600089230BC0623061F42FB7F8948C91932FAC
:10357000909589238C938881832B88832FBF06C0E5
:103580009FB7F8948C91832B8C939FBFDF91CF9141
:103590000895833071F0843028F48130A1F08230B6
:1035A00021F514C08630B1F08730D1F08430E9F4D1
:1035B00004C0809180008F7703C0809180008F7D50
:1035C00080938000089584B58F7702C084B58F7D85
:1035D00084BD08958091B0008F778093B0000895E6
:1035E0008091B0008F7D8093B0000895FF920F937B
:1035F0001F93F62E482F50E0CA01815D924FFC01C7
:103600002491CA01855E924FFC011491495F524F8B
:10361000FA0104910023C9F0222319F0822F0E949D
:10362000C91AE02FF0E0EE0FFF1FED50F34FA59108
:10363000B4919FB7F894FF2021F48C9110958123C9
:1036400002C08C91812B8C939FBF1F910F91FF9093
:1036500008950F931F93482F50E0CA01815D924F48
:10366000FC012491CA01855E924FFC010491495FDF
:10367000524FFA011491112319F420E030E015C0E3
:10368000222319F0822F0E94C91A812F90E0880FFF
:10369000991F8350934FFC01A591B4918C9120E028
:1036A00030E0802311F021E030E0C9011F910F913B
:1036B0000895BF92CF92DF92EF92FF920F931F93E4
:1036C000CF93DF93E82EF62EB42EC7E0D0E0022F82
:1036D00010E087E0C82ED12CBB2059F4B6016C1B3A
:1036E0007D0BC80102C0959587956A95E2F7BC01EC
:1036F00007C0B8010C2E02C0759567950A94E2F7D1
:1037000061708E2D0E94F61A8F2D61E00E94F61ACC
:103710008F2D60E00E94F61A21979FEFCF3FD907C7
:10372000D9F6DF91CF911F910F91FF90EF90DF902D
:10373000CF90BF9008952F923F924F925F926F92D9
:103740007F928F929F92AF92BF92CF92DF92EF9231
:10375000FF920F931F93DF93CF93CDB7DEB73B015B
:103760004C0119012A016D897E898F89988D6A190A
:103770007B098C099D09621A730A840A950AA401BF
:1037800093010E94131EE218F30804091509A80109
:1037900097010E94731E2A0D3B1D4C1D5D1DB90132
:1037A000CA01CF91DF911F910F91FF90EF90DF90B1
:1037B000CF90BF90AF909F908F907F906F905F90D1
:1037C0004F903F902F900895EF92FF920F931F9389
:1037D0007B018C01611571058105910529F420E0BB
:1037E00030E040E050E00BC00E942308A8019701A0
:1037F0000E94731EAC01CB01DA019C01AD01B9013D
:10380000CA011F910F91FF90EF900895EF92FF92E0
:103810000F931F937B018C01621773078407950731
:1038200064F4261B370B480B590BCA01B9010E94DF
:10383000E41BE60EF71E081F191FB701C8011F91F0
:103840000F91FF90EF9008955058BB27AA270ED0F4
:103850004DC13ED130F043D120F031F49F3F11F4FF
:103860001EF433C10EF4E095E7FB29C1E92F4FD1D7
:1038700080F3BA17620773078407950718F071F48D
:103880009EF567C10EF4E0950B2EBA2FA02D0B010B
:10389000B90190010C01CA01A0011124FF27591B95
:1038A00099F0593F50F4503E68F11A16F040A22F9B
:1038B000232F342F4427585FF3CF4695379527950C
:1038C000A795F0405395C9F77EF41F16BA0B620B0B
:1038D000730B840BBAF09150A1F0FF0FBB1F661F52
:1038E000771F881FC2F70EC0BA0F621F731F841F95
:1038F00048F4879577956795B795F7959E3F08F0BB
:10390000B3CF9395880F08F09927EE0F9795879579
:1039100008950CD0EBC0E3D040F0DAD030F021F4C1
:103920005F3F19F0CCC0511115C1CFC0F0D098F352
:103930009923C9F35523B1F3951B550BBB27AA2730
:1039400062177307840738F09F5F5F4F220F331FA2
:10395000441FAA1FA9F333D00E2E3AF0E0E830D06E
:1039600091505040E695001CCAF729D0FE2F27D071
:10397000660F771F881FBB1F261737074807AB073F
:10398000B0E809F0BB0B802DBF01FF2793585F4FB4
:103990002AF09E3F510568F092C0DCC05F3FECF317
:1039A000983EDCF3869577956795B795F7959F5F79
:1039B000C9F7880F911D9695879597F90895E1E0CD
:1039C000660F771F881FBB1F621773078407BA072C
:1039D00020F0621B730B840BBA0BEE1F88F7E09587
:1039E000089504D06894B111B5C0089598D088F0B6
:1039F0009F5790F0B92F9927B751A0F0D1F0660FDB
:103A0000771F881F991F1AF0BA95C9F712C0B130F5
:103A100081F09FD0B1E008959CC0672F782F882750
:103A2000B85F39F0B93FCCF3869577956795B39534
:103A3000D9F73EF490958095709561957F4F8F4FA3
:103A40009F4F0895E89409C097FB3EF490958095A8
:103A5000709561957F4F8F4F9F4F9923A9F0F92F54
:103A600096E9BB279395F695879577956795B795D2
:103A7000F111F8CFFAF4BB0F11F460FF1BC06F5FB8
:103A80007F4F8F4F9F4F16C0882311F096E911C0CA
:103A9000772321F09EE8872F762F05C0662371F0EB
:103AA00096E8862F70E060E02AF09A95660F771FFF
:103AB000881FDAF7880F9695879597F9089597F9F3
:103AC0009F6780E870E060E008959FEF80EC0895C4
:103AD00000240A94161617061806090608950024ED
:103AE0000A9412161306140605060895092E039467
:103AF000000C11F4882352F0BB0F40F4BF2B11F4DB
:103B000060FF04C06F5F7F4F8F4F9F4F089557FD39
:103B10009058440F551F59F05F3F71F04795880F3B
:103B200097FB991F61F09F3F79F0879508951216D2
:103B300013061406551FF2CF4695F1DF08C016167E
:103B400017061806991FF1CF86957105610508942F
:103B50000895E894BB2766277727CB0197F9089546
:103B60000BD0C4CFB5DF28F0BADF18F0952309F0E9
:103B7000A6CFABCF1124EECFCADFA0F3959FD1F330
:103B8000950F50E0551F629FF001729FBB27F00D0B
:103B9000B11D639FAA27F00DB11DAA1F649F662760
:103BA000B00DA11D661F829F2227B00DA11D621FAF
:103BB000739FB00DA11D621F839FA00D611D221F69
:103BC000749F3327A00D611D231F849F600D211D4D
:103BD000822F762F6A2F11249F5750408AF0E1F0F0
:103BE00088234AF0EE0FFF1FBB1F661F771F881F39
:103BF00091505040A9F79E3F510570F060CFAACF79
:103C00005F3FECF3983EDCF3869577956795B79523
:103C1000F795E7959F5FC1F7FE2B880F911D96954D
:103C2000879597F90895629FD001739FF001829F55
:103C3000E00DF11D649FE00DF11D929FF00D839F3B
:103C4000F00D749FF00D659FF00D9927729FB00DD8
:103C5000E11DF91F639FB00DE11DF91FBD01CF01EB
:103C600011240895991B79E004C0991F961708F054
:103C7000961B881F7A95C9F78095089597FB092EA2
:103C800007260AD077FD04D049D006D000201AF4C8
:103C9000709561957F4F0895F6F7909581959F4FA8
:103CA0000895A1E21A2EAA1BBB1BFD010DC0AA1F7D
:103CB000BB1FEE1FFF1FA217B307E407F50720F095
:103CC000A21BB30BE40BF50B661F771F881F991F10
:103CD0001A9469F760957095809590959B01AC0159
:103CE000BD01CF01089597FB092E05260ED057FD83
:103CF00004D0D7DF0AD0001C38F450954095309599
:103D000021953F4F4F4F5F4F0895F6F7909580955F
:103D1000709561957F4F8F4F9F4F0895AA1BBB1BD6
:103D200051E107C0AA1FBB1FA617B70710F0A61BBB
:103D3000B70B881F991F5A95A9F780959095BC01DC
:103D4000CD010895EE0FFF1F0590F491E02D099429
:103D50002F923F924F925F926F927F928F929F929B
:103D6000AF92BF92CF92DF92EF92FF920F931F9389
:103D7000CF93DF93CDB7DEB7CA1BDB0B0FB6F8943A
:103D8000DEBF0FBECDBF09942A88398848885F847A
:103D90006E847D848C849B84AA84B984C884DF80EB
:103DA000EE80FD800C811B81AA81B981CE0FD11DCF
:103DB0000FB6F894DEBF0FBECDBFED010895F894A5
:023DC000FFCF33
:103DC2000A004C563A00453A00423A002C0047415C
:103DD2004D45204F564552002000E10200000100EF
:103DE200000003050605011405640301000000003C
:0C3DF200DC1781187217A3178317CC1779
:00000001FF
